S00D00007363616C652E737265630F
S31500000000E0150020012A000041280000FD2900001B
S31500000010FD290000FD290000FD290000FD29000042
S31500000020000000000000000000000000FD290000A4
S31500000030FD29000000000000FD290000FD29000048
S31500000040A91C0000E51800005918000075190000E9
S31500000050BD190000E51800005918000075190000C8
S31100000060BD19000019250000A9240000AD
S3150000006CF628DE4201000000400035004000350055
S3150000007C0000000003000000201C002020000020CF
S3150000008C00000000201C0020881C0020F01C002012
S3150000009C000000000000000000000000000000004E
S315000000AC000000000000000000000000000000003E
S315000000BC000000000000000000000000000000002E
S315000000CC00000000000000000000000043000000DB
S315000000DC000000000000000000000000000000000E
S315000000EC00000000000000000000000043000000BB
S315000000FC00000000000000000000000000000000EE
S3150000010C000000000000000000000000430000009A
S3150000011C00000000000000000000000000000000CD
S3150000012C000000000000000000000000430000007A
S3150000013C00000000000000000000000000000000AD
S3150000014C000000000000000000000000430000005A
S3150000015C000000000000000000000000000000008D
S3150000016C000000000000000000000000430000003A
S3150000017C000000000000000000000000000000006D
S3150000018C000000000000000000000000430000001A
S3150000019C000000000000000000000000000000004D
S315000001AC0000000000000000000000007159000073
S315000001BC4D59000000000000087E0000037D000081
S315000001CCEF7C0000EF7C0000EF7C0000EF7C000071
S315000001DCEF7C0000EF7C0000EF7C0000EF7C000061
S315000001ECEF7C0000FFFFFFFFFFFFFFFFFFFFFFFF9E
S315000001FCFFFF000001004153434949000000000085
S3150000020C00000000000000000000000000000000DC
S3150000021C0000000000004153434949000000000063
S3150000022C00000000000000000000000000000000BC
S30D0000023C0000000000000000B4
S315000002480348044B834202D0034B03B11847704757
S31500000258D8010020D801002000000000064B0749FD
S31500000268C91A891048BF0131491003D0044B0BB194
S3150000027801481847704700BFD8010020D801002060
S315000002880000000010B5064C237843B9FFF7D8FFE5
S31500000298044B13B10448AFF300800123237010BD4B
S315000002A8F81500200000000004A2000108B5054B5F
S315000002B81BB105490548AFF30080BDE80840FFF7C4
S315000002C8CDBF00BF00000000FC15002004A20001FD
S315000002D860B370B4164B9C6A93F83050D96A621CA6
S315000002E87DB943F824000A2A0844C3E90A2004D140
S315000002F801212A469D6283F83010B0FBF2F070BCEB
S31500000308704753F824600B4D891B014443F82400B9
S31500000318A5FB0240D962A5FB0145C10801EB810195
S31500000328A2EB41029A62E80870BC7047704700BFAA
S3150000033824160020CDCCCCCC70B540F6454282B010
S3150000034840F20D21414801F039FC002876D10121FF
S31500000358052002F02BFA012240F20D213B4801F05C
S3150000036877FB0121084602F021FA00224FF40371B7
S31500000378364801F06DFB102240F20D21334801F09A
S315000003881DFC00285ED10121052002F00FFA2F4C32
S315000003982F4E02E09DF807507DB140F20D21204610
S315000003A80DF1070201F042FB0028F3D0304603F0B6
S315000003B807FC9DF80750002DEFD11824234E0BE0BB
S315000003C801219DF80730084603B10D4402F0EEF905
S315000003D8621E12F0FF041DD001224FF4037130464D
S315000003E801F036FB012108468D4002F0DFF90022B4
S315000003F84FF40371304601F02BFB40F20D213046D5
S315000004080DF1070201F012FB0028D9D0104803F0BD
S31500000418D7FBD5E701224FF403710C4801F018FB0E
S315000004280121084602F0C2F922464FF40371074833
S3150000043801F00EFB85F4000002B070BD054803F01C
S31500000448BFFB84E7034803F0BBFB9CE7E81A0020E0
S31500000458585F00003C5F000008B540F6454240F290
S315000004680D210D4801F0AAFB90B9012240F20D2199
S31500000478094801F0EDFA4FF403710122064801F02C
S31500000488E7FABDE808404FF47A71642002F08EB9A5
S31500000498024803F095FBE8E7E81A00203C5F0000F5
S315000004A808B5FFF749FF014B186008BD581600202C
S315000004B870B5FFF741FF00283AD01F4A956A92F8AF
S315000004C83030D46A691C0BB352F825601B4BA41B49
S315000004D842F825000444A3FB0150C00800EB800045
S315000004E8A3FB0453A1EB4001D4629162144ADB08D2
S315000004F812689A421CD29B1A07EE903A1149F8EEF6
S31500000508677A91ED007A87EE870A70BD42F8250072
S315000005180A292044C2E90A1004D101241946936223
S3150000052882F83040B0FBF1F3054A12689A42E2D3EA
S315000005389FED050A70BD00BF24160020CDCCCCCC9B
S3150000054858160020000000200000000038B5224C94
S31500000558224D21782B78A27901336170E27140F23D
S31500000568013122461E482B7001F060FA40F2023132
S315000005781B48A21D01F05AFA2378B3B96378012BF8
S3150000058825D0A3791BB9E379012B1CD038BD012BE3
S31500000598FCD1E379002BF9D12A78A37A6272002B71
S315000005A8F4D04FF48073638138BD012BE9D16378A9
S315000005B8002BE6D12A782379E270002BE1D04FF49C
S315000005C88073A380DDE72A78A372227238BD2A7861
S315000005D82371A270D5E700BF181600201416002054
S315000005E8E81A0020694BDB7A002B00F0CE802DE953
S315000005F8F0410A24664DFFF79FFEFFF769FE4FF4A8
S315000006087A710A2002F0D2F8B5F88030013C9BB224
S3150000061883F00403A5F88030EDD14FF47A714FF4D6
S31500000628FA7002F0C3F850252646594FFFF784FEA4
S31500000638FFF74EFE03464FF47A711B194FF00A0076
S315000006481C4646F1000602F0B1F8B7F88030013DC5
S315000006589BB283F00403A7F88030E7D1012240F269
S3150000066802414C4801F0F4F94FF0CC324A4FA31935
S3150000067843F10003A7FB03CE2EF0030C0CEB9E0CF4
S31500000688A3EB0C03E41A04FB02F266F1000607FB6F
S315000006980622A4FB0747414D3A44240944EA02745A
S315000006A84FF47A7142F210702C6002F07FF80A2437
S315000006B8374EFFF741FEFFF70BFE4FF47A710A201B
S315000006C802F074F8B6F88030013C9BB283F004035C
S315000006D8A6F88030EDD14FF47A714FF4FA7002F033
S315000006E865F850272646DFF8A880FFF725FEFFF7AE
S315000006F8EFFD03464FF47A711B194FF00A001C46AA
S3150000070846F1000602F052F8B8F88030013F9BB275
S3150000071883F00403A8F88030E7D1012240F20241B1
S315000007281C4801F095F94FF0CC321B48A31943F148
S3150000073800032968A0FB035C2CF0030505EB9C0568
S315000007485B1BE41A04FB02F266F1000600FB0622B4
S31500000758A4FB00400244230943EA0273581A4FEAED
S31500000768121262F1000102F063FC9FED0D7A06EEAB
S31500000778900AC6EE877A0B4F4FF00061C7ED007AF4
S315000007883846BDE8F04100F0A3BB704718160020B4
S3150000079800000840E81A0020CDCCCCCC5816002022
S315000007A800007A440000002008B50549054800F015
S315000007B883FE00B908BD0448BDE8084003F000BA46
S315000007C83C7A0000F01A0020745F000008B505495D
S315000007D8054800F071FE00B908BD0448BDE80840A8
S315000007E803F0EEB9707A0000201B0020885F000035
S315000007F803790146022B0AD0042B02D0012B0AD01A
S315000008087047064B06481A68083100F00BBE0122ED
S31500000818044B1A707047044A13707047040000208E
S31500000828F01A00205E1600205F1600200379012BBF
S3150000083806D0022B00D070470122034B1A7070476E
S31500000848024A1370704700BF5C1600205D16002030
S315000008584FF0FF30704700BF4FF0FF30704700BFC2
S31500000868002070474FF0FF30704700BF01207047E7
S3150000087810B50648144600F0D5FD05490B78002B3F
S31500000888FCD000230B70204610BD00BFF01A0020D4
S315000008985E16002010B5134C01224FF481612046E4
S315000008A801F0D6F8012240F20741204601F0D0F8BF
S315000008B80121032001F07AFF00224FF481612046CE
S315000008C801F0C6F80121032001F070FF40F207414C
S315000008D82046002201F0BCF8BDE8104001210320A3
S315000008E801F064BFE81A002070B508250446124EC8
S315000008F823064CBF012200224FF48161304601F0E5
S31500000908A7F80121032001F051FF012240F2074117
S31500000918304601F09DF80121032001F047FF00222F
S3150000092840F20741304601F093F86B1E640013F05D
S31500000938FF05E4B2DCD170BDE81A002010B5104CF2
S3150000094801224FF48161204601F082F8012103203B
S3150000095801F02CFF012240F20741204601F078F809
S315000009680121032001F022FF40F207412046002220
S3150000097801F06EF8BDE810400121032001F016BF12
S31500000988E81A002038B50C460546FFF783FF78209D
S31500000998FFF7AAFFFFF7D2FF0CB34020FFF7A4FF2B
S315000009A8FFF7CCFF2846FFF79FFFFFF7C7FF002298
S315000009B84FF481610C4801F04BF8012240F20741DF
S315000009C8094801F045F80121032001F0EFFEBDE8D2
S315000009D8384001224FF48161034801F039B82046B6
S315000009E8FFF782FFDCE700BFE81A002030B10128D4
S315000009F800D070470021A720FFF7C4BF0146A620F4
S31500000A08FFF7C0BF10B5044660B1012800D010BD7D
S31500000A180021C020FFF7B6FFBDE810400021A02046
S31500000A28FFF7B0BF0146C820FFF7ACFF2146BDE877
S31500000A381040A120FFF7A6BF2DE9F041224F234E13
S31500000A483D460837C5F1B00808EB05000021C0B2DD
S31500000A58FFF798FF00210846FFF794FF00211020B2
S31500000A68FFF790FFFFF716FF7820FFF73DFFFFF728
S31500000A7865FF4020FFF738FF0024FFF75FFF15F8F2
S31500000A8834000134FFF730FFFFF758FF802CF6D10A
S31500000A9800224FF48161304600F0DAFF012240F26D
S31500000AA80741304600F0D4FF0121032001F07EFE05
S31500000AB8013501224FF48161304600F0C9FFBD427D
S31500000AC8C2D1BDE8F08100BF60160020E81A0020F8
S31500000AD8012310B50C4C01F0070E04EBC00C03FA09
S31500000AE80EF3C9081CF801C0C000DBB22AB143EAFC
S31500000AF80C0C044404F801C010BD2CEA030C044491
S31500000B0804F801C010BD00BF601600202DE9F04FA3
S31500000B18203A89B0082B9DF84880D4B24FEA530C86
S31500000B2800F08A8013F0070218BF012202EBD302F5
S31500000B3812FB0CF212F0FF0A4AD0434A434F02EB6B
S31500000B48041909EB0A02DFF80CE10392404A04EBA8
S31500000B58440504EBC40402EB850A07EB450B0EEBD0
S31500000B68840EA3F10802059376464B46D146DA462B
S31500000B788346CDE906C00492049A102A28D8DFE8ED
S31500000B8802F05E2727274F2727274A2727272727C1
S31500000B9827272A00059A0BF10100082ADDE900310A
S31500000BA82C465FFA80FB03F101030AF1010A06F1FC
S31500000BB8010609F1010939D0079A0698ABEB020537
S31500000BC8854208BF9346039A08BF21469342D3D16C
S31500000BD809B0BDE8F08F01F10802357802922C467B
S31500000BE8CDE900310D469DF808700AE042462946CF
S31500000BF85846FFF76DFF691CCDB2BD424FEA540453
S31500000C08C8D0E307F2D4B8FA88F2294658465209FA
S31500000C18FFF75EFFEFE701F108021D780292DEE7B3
S31500000C2801F1080299F800500292D8E7039A934214
S31500000C38CED09AF80050D2E74FF0060A7DE701F1C8
S31500000C4808020292F5E700BF806D0000E477000015
S31500000C5870730000246000002DE9F04315461278F1
S31500000C689946A2F1200383B05E2B9DF8287015D80B
S31500000C7804460E464FEA590820464B463146009729
S31500000C88FFF744FF15F8012FB9F1080FA2F120006C
S31500000C980CBF063444445E28E4B2EDD903B0BDE87F
S31500000CA8F08300BF2DE9F04F83B09DF830709DF8B2
S31500000CB83490A7F10804B4FA84F4640973B383463C
S31500000CC80E4690466400013BDFF870A004EB57051A
S31500000CD8DCB22346013CE4B26BB322460123013A57
S31500000CE8D2B203EB8303FF2A4FEA4303F7D1B8FBDB
S31500000CF8F3F3AAFB0312D20802EB8202B3EB420219
S31500000D080FD13B46302231465846CDF80090FFF7C2
S31500000D18FDFEAB44FF2C5FFA8BFBDAD103B0BDE8CE
S31500000D28F08F30323B4631465846CDF80090D2B265
S31500000D38FFF7ECFEEDE74346DBE700BFCDCCCCCCB6
S31500000D4808B5012240F20741484800F081FE012219
S31500000D584FF48161454800F07BFE0021AE20FFF785
S31500000D6811FE00210846FFF70DFE00211020FFF7AF
S31500000D7809FE00214020FFF705FE00218120FFF72C
S31500000D8801FE0021CF20FFF7FDFD0021A120FFF77E
S31500000D98F9FD0021C820FFF7F5FD0021A620FFF781
S31500000DA8F1FD0021A820FFF7EDFD00213F20FFF708
S31500000DB8E9FD0021D320FFF7E5FD00210846FFF7EE
S31500000DC8E1FD0021D520FFF7DDFD00218020FFF79A
S31500000DD8D9FD0021D920FFF7D5FD0021F120FFF725
S31500000DE8D1FD0021DA20FFF7CDFD00211220FFF703
S31500000DF8C9FD0021DB20FFF7C5FD00214020FFF7D4
S31500000E08C1FD00212020FFF7BDFD00210220FFF7CC
S31500000E18B9FD00218D20FFF7B5FD00211420FFF74D
S31500000E28B1FD0021A420FFF7ADFD0021A620FFF7A4
S31500000E38A9FD00200E4BA3F1080203F5806143F8D3
S31500000E48080C08338B42FAD100210A4B02F20C42F5
S31500000E5843F8081C08339A42FAD1FFF7EDFDBDE8BE
S31500000E6808400021AF20FFF78DBD00BFE81A00201B
S31500000E78681600206C16002008B51621024B034A96
S31500000E88034801F08BFC00BF9C5F0000247A000039
S31500000E98B05F000008B53221024B034A034801F04F
S31500000EA87DFC00BF9C5F00000C7A0000B05F00006C
S31500000EB808B50449044801F08DF800B908BDFFF7E4
S31500000EC8DBFF00BFA47A0000501B002002F0C1BF60
S31500000ED870B50122064682B013480D4601F0E8F9BE
S31500000EE8C8B9124C2378002BFCD004234FF0000C11
S31500000EF831682A4601910C480DEB030184F800C0BD
S31500000F0801F068FA68B90A4A1378002BFCD0002366
S31500000F18137002B070BD2221064B074A074801F03C
S31500000F283DFCFFF7B7FF00BF501B0020E51A002065
S31500000F38E41A00209C5F0000187A0000B05F0000E9
S31500000F480B680360704700BF0378032B13D8DFE8EC
S31500000F5803F00E0A060201220A4B1A707047012294
S31500000F68094B1A7070470122084B1A707047012204
S31500000F78074B1A70704701200649074A0870137014
S31500000F88704700BFE31A0020E21A0020E41A002086
S31500000F98E51A0020E11A0020E01A00202DE9F041A8
S31500000FA82DED028B84B0FFF7FFFBFFF70FFC3C48E3
S31500000FB802F006FEFFF77CFF002304224FF00061D3
S31500000FC803A80393FFF782FF9DF80C309DF80D00E8
S31500000FD89DF80E109DF80F2003400B401340FF2B81
S31500000FE859D04FF000612F48FFF7AAFF012600F0FD
S31500000FF8F1F8FFF731FAFFF753FAFFF7A1FE0020E1
S31500001008FFF7F4FC0020FFF7FDFC10231821002051
S31500001018254A0096FFF720FE102318216020234A50
S315000010280096FFF719FE4FF01008FFF705FD204C54
S31500001038204FE57A35B1FFF7D5FA0023E372E57A52
S31500001048002DF8D1FFF782FAFFF732FA10EE100AF0
S31500001058B0EE408A01F0CCFE02460B46384602F056
S3150000106847FDFDEEC87A17EE900A00F073F9FCEE1C
S31500001078C87A05231821382017EE902ACDE900866C
S31500001088FFF710FEFFF7D8FC6379002BD1D0FFF7E6
S3150000109807FA6571CDE7084802F092FDA6E700BF9A
S315000010A8C85F000000000020F85F00000060000034
S315000010B81816002004600000D85F000010B5154C13
S315000010C8012240F20721204600F0C2FC01210A2035
S315000010D801F06CFB012240F20621204600F0B8FC24
S315000010E801210A2001F062FB002240F20721204676
S315000010F800F0AEFC01210A2001F058FB40F206215F
S315000011082046002200F0A4FCBDE8104001210A2078
S3150000111801F04CBBE81A002070B500240646124DB3
S3150000112880222241324040F20721284600F090FCF6
S3150000113801210A2001F03AFB012240F20621284645
S3150000114800F086FC01210A2001F030FB002240F263
S315000011580621284600F07CFC013401210A2001F012
S3150000116825FB082CDCD170BDE81A002010B5184CF8
S3150000117882B0012240F20721204600F069FC0121D5
S315000011880A2001F013FB012240F20621204600F056
S315000011985FFC01210A2001F009FB0DF1070240F26C
S315000011A80721204600F042FC01210A2001F0FEFA40
S315000011B8002240F2062120469DF8074000F048FC30
S315000011C801210A2001F0F2FA204602B010BD00BF44
S315000011D8E81A002038B5FFF771FF4820FFF79CFF93
S315000011E8FFF7C4FF5120FFF797FFFFF7BFFF002265
S315000011F840F20721384800F02BFC01210A2001F0B3
S31500001208D5FA012240F20621334800F021FC0121DB
S315000012180A2001F0CBFA012240F207212E4800F0FD
S3150000122817FC01210A2001F0C1FA68252A4C01227F
S3150000123840F20721204600F00BFC01210A2001F0AC
S31500001248B5FA012240F20621204600F001FC0121F0
S315000012580A2001F0ABFA002240F20721204600F0EE
S31500001268F7FB01210A2001F0A1FA002240F206212B
S31500001278204600F0EDFB01210A2001F097FA2846E6
S31500001288FFF74AFFFFF772FF0020FFF745FFFFF75A
S315000012986DFF002240F20721204600F0D9FB01210C
S315000012A80A2001F083FA012240F20621204600F0C6
S315000012B8CFFB01210A2001F079FA0235012240F21A
S315000012C80721204600F0C4FBEDB201210A2001F0F7
S315000012D86DFA702DABD138BDE81A002038B5044632
S315000012E80D46FFF7EBFE04F13400400000F0FE0067
S315000012F8FFF712FFFFF73AFF0A2D16BF134B002020
S31500001308585DFFF709FFFFF731FF002240F207217A
S315000013180F4800F09DFB01210A2001F047FA01223F
S3150000132840F206210A4800F093FB01210A2001F049
S315000013383DFA40F207210122054800F089FBBDE885
S31500001348384001210A2001F031BA00BF307A000086
S31500001358E81A0020254970B581FB0031C417C4EB93
S31500001368A10101EB810309280E46A0EB430123DD09
S315000013781F4A6328A2FB06534FEAD30303EB8303F2
S31500001388A6EB4306F6B22CDD1A4DB0F57A7F85FB3F
S315000013980035C4EB6515A2FB05324FEAD20202EB13
S315000013A88202A5EB4205EDB21EDB134B83FB003030
S315000013B8C4EBA014E4B202E0002425462646032026
S315000013C8C9B2FFF78BFF31460220FFF787FF294690
S315000013D80120FFF783FF2146BDE870400020FFF794
S315000013E87DBF00242546EAE70024E8E767666666C7
S315000013F8CDCCCCCC1F85EB51D34D6210FFF7CEBDBB
S31500001408022800D070470249024800F0CDBB00BF51
S31500001418B87A0000E81A002008B5FFF7EFFF0020A9
S3150000142808BD00BF10B4046AA37803F07B03A37059
S315000014388378046A03F00303D21A0B44C0E9033223
S31500001448A37843F08003A370837803F00303022B89
S3150000145806D0036A0A780020DA705DF8044B7047F4
S315000014680B88026A43F47E43D38100205DF8044B5F
S31500001478704700BFF0B5846A85B005460F469446A6
S315000014886E46B4B194E80F0086E80F00EB69204673
S315000014981B78A760236084F804C0EB6AE3606B6A74
S315000014A89847AC6A1CB196E80F0084E80F0005B0AF
S315000014B8F0BD3446EAE700BF034600224FF0010CB0
S315000014C82DE9F04108781A7000F5800000F58C5077
S315000014D80002C3E907104869D44C58628D699878A8
S315000014E8C3E90A256CF3010098704878904214BF46
S315000014F865460225987865F30100987091F90B50B6
S3150000150891F80AE0680905F01F0620300CFA06F67D
S3150000151844F82060BFF34F8FBFF36F8FC44805F1BF
S31500001528C00650F8267062F3104740F8267050F847
S315000015382660C04E4FEA0E1E67195FFA8EFE87F8C0
S3150000154800E346F8253091F9055091F804E06F0953
S3150000155805F01F0820370CFA08F844F82780BFF36F
S315000015684F8FBFF36F8F05F1C00750F8278062F3DE
S31500001578104840F8278050F827704FEA0E1E671962
S315000015885FFA8EFE87F800E346F8253091F9075092
S3150000159891F806E06F0905F01F0820370CFA08F8DD
S315000015A844F82780BFF34F8FBFF36F8F05F1C0074D
S315000015B850F8278062F3104840F8278050F82770C3
S315000015C84FEA0E1E67195FFA8EFE87F800E346F8A3
S315000015D8253091F9095091F808E06F0905F01F08C0
S315000015E820370CFA08F844F82780BFF34F8FBFF36B
S315000015F86F8F05F1C00750F8278062F3104840F84E
S31500001608278050F827004FEA0E10C0B22C4484F801
S31500001618000346F82530EFF310868CF310884FF058
S3150000162800450C788448E540446824EA050444608B
S31500001638406886F31088186A8270186A0271186AF8
S315000016484272186A8272186AC272186A428340F233
S31500001658012208780CFA00FC1CEA020F02D040208E
S315000016681A6AD0740625012240F201201C6A2577E1
S315000016780C78A240024203D04FF478401A6A90824E
S31500001688CA7848788C78D200032842EA041200F017
S31500001698DB8000280CBFE220F2201C6AD2B222703E
S315000016A81A6A9071C869027B082A00F0C9801C6A08
S315000016B8520002F002026273002542788478D20151
S315000016C8640104F02004D2B222431C6A257204780D
S315000016D8023C012C1C6A40F29D80D2B2E27140683D
S315000016E81A6A847854704578147865F3010414707E
S315000016F8C4789474D479007804F0A30400F05C00EC
S315000017082043D0710020C3E90300C3E90500DC6962
S31500001718474A94F90540CD6904F1C00152F82160A1
S3150000172895F800C060F3104642F821600CF0030CEF
S3150000173852F82110BFF35F8F4FF0010E610989003F
S3150000174804F01F0401F1604101F561410EFA04F449
S31500001758C1F880410C60D96991F90B4004F1C001C8
S3150000176852F8216060F3104642F8216052F82110C1
S31500001778BFF35F8F6109890004F01F0401F160411E
S315000017880EFA04F401F56141C1F880410C60D9698B
S3150000179891F9074004F1C00152F8216060F3104640
S315000017A842F8216052F82110BFF35F8F6109890062
S315000017B804F01F0401F160410EFA04F401F56141D9
S315000017C8C1F880410C60D96991F9091001F1C0048A
S315000017D852F8246060F3104642F8246052F8242038
S315000017E8BFF35F8F4A09920001F01F0102F16042C0
S315000017F80EFA01F102F56142C2F8801111601A6A07
S315000018084CF0700C82F802C069890C4A19815A603A
S31500001818BDE8F081FF2565700078022808BF42F010
S315000018281002186AD2B2C2716CE700BF00E100E08C
S3150000183800600040E01B0020004008405549435323
S315000018480A241A6A547337E7F22042F0400224E762
S31500001858EFF30383103B1F4A5BB203F1C00152F852
S31500001868210020F4803042F8210052F821201A4A3B
S3150000187852F82300C3691B6983B1036903B1704732
S31500001888026A0021937803F07F0343F00403937000
S31500001898436AC160C3B18022FFF7ECBD0369026ADF
S315000018A8002BEED08378C16803F00303022B0CD01B
S315000018B80B78D3708278D0E9031302F003029B1ADF
S315000018C81144C0E90313D9E770470B8843F47E43F4
S315000018D8D381EFE700600040E01B002010B582B01E
S315000018E8EFF30383103B1F4A5BB203F1C00152F8C2
S315000018F8210020F4803042F8210052F821201A4AAB
S3150000190852F82340A27802F00303022B236A0CBF85
S31500001918198A5979A3690CBFC1F30801C9B20191A3
S3150000192843B9636AB3B10422204602B0BDE8104049
S31500001938FFF7A0BD02F0030201A9606902F089FA67
S31500001948D4E90521A37803F003031A44C91AC4E9A4
S31500001958052109B102B010BD636A002BFAD0012235
S31500001968E2E700BF00600040E01B002010B5EFF37F
S3150000197803830E4A103B5CB252F82400026A93783D
S3150000198803F07B039370436A1BB102220021FFF721
S3150000199871FD074A04F1C00352F8231021F480317F
S315000019A842F8231052F8233010BD00BFE01B002078
S315000019B80060004010B5EFF303831A4A103B5CB28F
S315000019C852F82400837803F00303022B036A0CBF42
S315000019D8198A597993F804C00CBFC1F30801C9B232
S315000019E81CF0100F0CF0380206D093F81CC01CF03F
S315000019F8010F08BF42F0400293F804C00CF0C70C70
S31500001A0883F804C0436A0BB1FFF734FD064A04F1B4
S31500001A18C00352F8231021F4803142F8231052F8FB
S31500001A28233010BDE01B00200060004010B40B0AF4
S31500001A38064C1B0153FA81F154F821300020C3F3F8
S31500001A4840035DF8044B1370704700BF0008084058
S31500001A580120CBB2984080B202B900040B0A5B01A0
S31500001A6803F1804303F5002398600020704700BF08
S31500001A782DE9F8430388BBB107464FF00008DFF8A5
S31500001A88789000241B4D4FEAC8067B6835F8022B70
S31500001A9899198988914209D00134032CF5D13B88DC
S31500001AA808F101084345ECD8BDE8F8839B5904F1D1
S31500001AB8200203F0B853B3F1807F19F812300CD026
S31500001AC8DB09E9D019F81230012123F08003C82078
S31500001AD809F8123000F06AFEDEE7DB09DCD119F8F6
S31500001AE81230012143F08003C82009F8123000F0B3
S31500001AF85DFED1E7547B000000300840F8B5064685
S31500001B08FFF7B6FFEFF31082012383F31088234F04
S31500001B183B681BB92249CB704023CB703B68013325
S31500001B283B6082F31088338823B300211D4D08E0FB
S31500001B381B01134445F82340328801318BB29A427F
S31500001B4818D9736853F8314003EBC1029288E00351
S31500001B584FEA1223D2B2EBD502EB031055F820E078
S31500001B6824F4803C2EF4803E45F820E01B0145F81D
S31500001B7820C0DEE7EFF31082012383F310883B6869
S31500001B8813B13B68013B3B603B681BB980200449A5
S31500001B98CB70C87082F31088F8BD00BFDC1B00202C
S31500001BA8000D08400008084008B5034B03600846C6
S31500001BB8FFF7A4FF002008BD54524F5070B5012608
S31500001BC886B001AB03A80C4615460493ADF80C6025
S31500001BD8ADF808100192FFF74BFFEFF3108286F37A
S31500001BE810881D490B681BB940261C48C370C6706F
S31500001BF80B6801330B6082F31088EA034FEA14235B
S31500001C08E4B219D41B01164A234442F82350EFF3D1
S31500001C181082012383F310880B6813B10B68013B0C
S31500001C280B600B681BB980200C49CB70C87082F317
S31500001C381088002006B070BD094A04EB031052F85C
S31500001C4820601B0126F4803642F8206025F4803691
S31500001C5842F82060D7E700BFDC1B0020000D0840D3
S31500001C680008084070B5836984B004468C46164659
S31500001C7801AD9BB193E8070085E8070083F804C027
S31500001C889E60E26918461A6063699847A3691BB1A2
S31500001C9895E8070083E8070004B070BD2B46EDE71A
S31500001CA8F0B5EFF30382103A214C51B201F1C00CA2
S31500001CB854F82C3023F4803344F82C308B0003F18D
S31500001CC8804303F5C043D3F800031A4850F82100AF
S31500001CD8456895F800E0BEF1010F08D043692BB1BD
S31500001CE8BDE8F04000221146FFF7BCBFF0BD002555
S31500001CF8D0E90267B760866802F0FF02B5648668B5
S31500001D08F5648668356554F82C6065F3104644F822
S31500001D182C60D3F80033BFF35F8F074C4B0902F0F2
S31500001D281F020EFA02F2603344F82320D6E700BFFA
S31500001D3800600040E01B002000E100E04FF0000CCE
S31500001D482DE9F0410126394A80F83CC0384B014656
S31500001D58106A1B68146A82F81664C0F3026203FAF2
S31500001D6802F2344DC0F30270C4F30264C240A340C9
S31500001D78AA4223FA04F355D92F4803F5742302F52A
S31500001D88742203F23F2302F23F22A0FB034340F6EC
S31500001D98D866A0FB0202604644F2506C43F6B85778
S31500001DA854254FF4FA2E254C920C02F5F052A4F85D
S31500001DB8E420234C9B0C03FB04F4224A03FB06F69F
S31500001DC8A2FB0484A4080C620CFB03F403FB07F7CC
S31500001DD8A2FB0668A2FB0464A2FB077C03FB05F5CD
S31500001DE80EFB03FEA4084C62174CA2FB0557A2FB88
S31500001DF80E654FEA9C0604FB03FC5B00A2FB03434B
S31500001E08A2FB0C2C9B084FEA9808BF08AD080B618B
S31500001E184FEA9C03C1F80C804F618D618E60CB61DF
S31500001E28BDE8F0814FF4FB70BDE8F08100E00140A9
S31500001E381C1C0020FF083D0083DE1B4300E07F409A
S31500001E4880DE0F00ABAAAAAAA0F7030030B5436C40
S31500001E5885B004468C4601ADA3B193E8070085E832
S31500001E680700002283F800C05A60A26C18469A60E0
S31500001E78236C9847636C1BB195E8070083E8070055
S31500001E8805B030BD2B46ECE74FF42A431C49B1F8A0
S31500001E9884C0A1F88430B1F884001FFA8CFC80B2A3
S31500001EA860B14FF496420020B1F88430002A9BB204
S31500001EB808BF4FF4FA70013A002BF5D1BCF1010FB7
S31500001EC80AD0BCF1800F00D0704701230D4A536039
S31500001ED85368002BFCD170474DF60111084B0A4A8E
S31500001EE8A3F84410A2F804C1B2F804319BB2002B3F
S31500001EF8FAD101230349A2F800318B600B607047C1
S31500001F0800E07F400070004000C0014030B482B05D
S31500001F1881B9012443682C4D93F911305A0903F00D
S31500001F281F03203204FA03F345F82230BFF34F8F1C
S31500001F38BFF36F8FE8234FF0020C426B234D244CFE
S31500001F4822632B7085F800C0036B1B882B800369FE
S31500001F58019303E0019B5A1E019293B1D4F8803095
S31500001F685B05F7D4426B036B02324263826B023322
S31500001F78013ABCF1010F0363826306D04FF0010CEE
S31500001F88E3E7142002B030BC7047D0220F4B1A701A
S31500001F9869B1D4F880301A0414D40D4A01E0002936
S31500001FA8EFD0D2F8803001391B04F8D50AE043682F
S31500001FB893F91130044903F01F005A090CFA00F08E
S31500001FC841F822000020DDE700E100E000007E4045
S31500001FD800E07F402DE9F04141600B78044653B993
S31500001FE8324A137613752046FFF7A8FE08B9304B18
S31500001FF82360BDE8F081002701204B68DFF8ACE0DC
S315000020082364CB686764A3648EF818000A7C91F988
S315000020181130284EDFF8A4C01201274D06EB03083D
S31500002028D2B288F800234CF8234003F1C00255F8D1
S31500002038228067F3104845F8228055F82220BFF31E
S315000020485F8F5A09920003F01F0302F1604200FAFB
S3150000205803F302F56142C2F88031136098238EF8C3
S3150000206814308B7C91F913201B01DBB2164486F8D9
S3150000207800334CF8224002F1C00355F8231067F3E9
S31500002088104145F8231055F82330BFF35F8F5309E5
S315000020989B0002F01F0203F1604300FA02F203F507
S315000020A86143C3F880211A609DE700BF00E07F40C6
S315000020B84E45504F00E100E000600040E01B002064
S315000020C84FF4964310B483B0019343681A7802BB61
S315000020D84AF680232B4AA2F88430B2F884309BB2A1
S315000020E8802B08D110E0019B013B0193B2F88430A4
S315000020F89BB2802B08D0019B002BF4D14FF4FA70C9
S3150000210803B05DF8044B7047002003B05DF8044B3C
S31500002118704793F911301C4A03F1C00152F8214067
S3150000212824F4803442F8214052F82110BFF35F8F1F
S31500002138012103F01F045B099B0003F1604303F5CB
S31500002148614301FA04F4C3F880411C60436893F9BB
S31500002158130000F1C00352F8234024F4803442F8F7
S31500002168234052F82330BFF35F8F43099B0000F0EA
S315000021781F0003F16043814003F56143C3F88011F2
S315000021881960A5E700E07F400060004030B543686D
S3150000219804461A7883B0F2B1012293F91130414806
S315000021A8590903F01F03203102FA03F340F82130DE
S315000021B8BFF34F8FBFF36F8F636893F913305909D5
S315000021C803F01F039A4001F1200340F82320BFF3D0
S315000021D84F8FBFF36F8F344BB3F884309BB2002B0D
S315000021E855D04FF49640B321304B2F4A01901970C1
S315000021F8D2F880301B040CD406E0019B013B019306
S31500002208D2F880301D0404D4019B002BF5D1142587
S3150000221807E0254B40F2F5151B7C13F0100F08BF9D
S3150000222800254FF496405021204B1F4A0090197004
S31500002238D2F88030180414D406E0009B013B0093C2
S31500002248D2F8803019040CD4009B002BF5D1B5B90F
S31500002258FFF71AFE14250023284684F83C3003B0FD
S3150000226830BD114B1B7CDB0615D445B9FFF70CFEB8
S3150000227805460023284684F83C3003B030BDFFF7F6
S3150000228803FE0023284684F83C3003B030BD2046C0
S31500002298FFF716FFA5E7002DF1D1FFF7F5FD40F290
S315000022A8F515D8E700E100E000E07F4000007E4039
S315000022B800232DE9F04121F03F0182B080F83C303F
S315000022C8016382630446FFF7FBFE002877D1636843
S315000022D81B78002B39D1656A01234FF020084FF08F
S315000022E8D00E3A49DFF8E8C0A1F8E030206B086361
S315000022F88CF800808CF800E0206BA66B4030013E1D
S315000023082063A66365B1D1F880301B0408D42B4638
S3150000231801E0002B51D0D1F88020013B1704F8D5F5
S31500002328002763681B78002B33D10A7CD20634D485
S31500002338D1F880309B040DD4002F3CD1002ED6D185
S3150000234802B0BDE8F041FFF79FBD0223054684F8B9
S315000023583C30C1E77FBB1927B3214FF496401C4B8D
S315000023681A4A01901970D2F88030190407D50CE082
S31500002378019B013B0193D2F880301B0405D4019BD5
S31500002388002BF5D1FFF780FD03E0104B1B7CFFF710
S315000023987BFD384602B0BDE8F081D1F880205404B0
S315000023A801D50A7C0B74D1F880309804D2D417B9B9
S315000023B840F2F517D0E71427CEE71427B1E74FF414
S315000023C8FA77384602B0BDE8F08100BF00E07F40EA
S315000023D800007E40F0B500245B0880F83C40C0E968
S315000023E80C1283B083630546FFF76AFE044600BBFA
S315000023F86B681B7803BBEF68274E39462846FFF7FC
S3150000240885FD6B6804461B789BB9327CD20634D4AA
S31500002418D6F88030DB0414D4B0B9AB6B002BECD102
S3150000242803B0BDE8F040FFF72FBD1B4B1B7CFFF741
S315000024382BFD204603B0F0BD0123074685F83C3046
S31500002448DAE7002C08BF1824B3214FF49640134B43
S31500002458114A01901970D2F880301904E5D406E0C3
S31500002468019B013B0193D2F880301B04DDD4019B0C
S31500002478002BF5D1FFF708FDDBE7D6F880205504D9
S3150000248801D5327C3374D6F88030D804D9D4002CE0
S31500002498DAD140F2F514D7E700E07F4000007E402D
S315000024A870B5EFF30383174917480A7C103B5CB2F3
S315000024B850F824501007D1F880100AD4D3B21A065F
S315000024C81CD4DB061CD511F4405F14BF072606266C
S315000024D800E004262846FFF759FE0C4A04F1C0031B
S315000024E852F8230020F4803042F8230052F82330B3
S315000024F831462846BDE87040FFF7A8BC0526E9E73F
S315000025080726E7E700E07F40E01B00200060004068
S3150000251838B5EFF30383103B234A5BB203F1C001DE
S3150000252852F82100214C20F4803054F8234042F818
S31500002538210052F8213094F83C50012D26D0022D66
S3150000254811D01B4B93F8D430012B14BF0225032559
S31500002558FFF79AFC002384F83C3029462046BDE85C
S315000025683840FFF773BCA56B002DF1D0D02220218F
S31500002578206B0F4B1863A3F5F03319701A70226B92
S31500002588A36B4032013B2263A36338BDA36B002BC8
S31500002598DED000212046FFF7B9FC0028F5D02046FA
S315000025A8BDE83840FFF7F2BD00600040E01B0020A0
S315000025B800E07F40064B074993F826001A6A51F84F
S315000025C82030C2F302620449D3400B60704700BF53
S315000025D800E00140E01500201C1C0020704700BFE9
S315000025E8F8B54AF2035001234349444AA1F8FE03C9
S315000025F8A2F80431B2F804319BB2002BFAD10120BB
S315000026084FF400454FF0090C3D4CDFF80CE13D4E08
S31500002618C4F804E03C4F0EF1376E37490EF5D83E44
S31500002628E660C4F814E0A2F80001B86038602660D5
S31500002638A560256191F82620086A54F82220334EB1
S31500002648C0F30260C240326081F8133481F8A2C038
S3150000265891F880341BB991F88134990746D0264DF4
S3150000266895F88034002B36D00022234B83F881243A
S3150000267883F880240023204981F8363091F83C30CD
S31500002688DA07FBD541F2103000231B4A088581F88A
S315000026982A3092F83C309B06FBD5032005231749C0
S315000026A8F12581F81C011A49116282F8263092F840
S315000026B82630106A54F82310C0F30260C140316016
S315000026C80124F0204FF42541124B1D731C72187318
S315000026D8A2F8FE13F8BD0121C82085F8801400F081
S315000026E865F895F88034012BFBD1BDE74FF47A7075
S315000026F8FFF774FFBEE700BF00E0014000C00140DD
S31500002708E0150020002D3101007000401C1C00203F
S31500002718211200200020004000127A0038B500255A
S315000027281C4C0121C82084F8285000F03FF884F892
S31500002738245094F82430002BFBD194F82430154A01
S3150000274843F0020384F8243092F82430C3F340009F
S315000027589B07F9D40F4982F8220091F8223003F03A
S31500002768FF00002BF9D191F840300A4A60F3C713ED
S3150000277881F8403092F84030DB09FBD192F84200EC
S31500002788044963F3C71082F8420091F84230DB0926
S31500002798FBD138BD00300840704700BF00BEFEE7D9
S315000027A8A0F101000028FBD1704700BF1F4B204A4B
S315000027B81B6800FB01F1934213D302F1854202F52F
S315000027C8071203F5741302F6834203F6FF03A2FB0E
S315000027D803231B0DA3FB01314FF0FF30F9B1FFF7BF
S315000027E8DFBF4FF47A7210B4A1FB02C41148B0FBE4
S315000027F8F3F34FF0FF3044B9BCFBF3FC4FEA9C00FF
S3150000280888B15DF8044BFFF7CBBF9B00B1FBF3F132
S31500002818A1FB0212002AF4D1084620B1F1E71846B6
S31500002828002BDCD170475DF8044B70471C1C002058
S3150000283800127A0000CA9A3B70B500240B4B0C4E66
S31500002848B3F82021B3F84051ADB2154025FA04F388
S31500002858DB0704D556F82430E0B203B198470134B3
S31500002868102CF3D1014BA3F8305170BD0060004025
S315000028789C1B002030B5032085B000F075F80025B4
S315000028886FF0FF014FF0FF301B4B1C4C996422463A
S315000028982B464FF0010ECDE90100039032F8021BDA
S315000028A80EFA03FC013311B1012520EA0C000B2BAB
S315000028B8F4D1F5B10190124B0F4A1067C3F88002A4
S315000028C8029903205167C3F8841203999167C3F8E4
S315000028D8881200F019F800230A4834F8022B03F18D
S315000028E8C00101330AB140F821200B2BF5D105B000
S315000028F830BD4FF0FF30DEE7008000403C7B000033
S3150000290800E100E000600040EFF31081012383F34B
S315000029181088124B33F8102092B22AB133F81020DF
S31500002928013A92B223F8102033F810309BB293B9CB
S3150000293810B40B4A0B4CB2F8FE3334F810009BB2B5
S3150000294843F4254323EA0003A2F8FE3381F31088F3
S315000029585DF8044B704781F3108870470C1C002003
S3150000296800E00140C47B000030B4EFF3108101237E
S3150000297883F310880E4A32F810309BB26BB90D4CAF
S315000029880D4DB4F8FE3335F810C09BB243EA0C037C
S3150000299843F425439BB2A4F8FE3332F810300133D2
S315000029A89BB222F8103081F3108830BC704700BF04
S315000029B80C1C002000E00140C47B000008B503465B
S315000029C80A4903330A6823F0030309481344B3F595
S315000029D8805F104401D80B6008BD01F023FA0C2271
S315000029E803461A604FF0FF3008BD00BF181C0020D0
S315000029F8E001002000BE704708B500F035F8FEF784
S31500002A080BFDFEE7F8B5174F05463E68A6B17C688C
S31500002A1806EB460604EB860602E00C34B4420BD0FD
S31500002A28637AAB42F9D1D4E900020021121A0C34B8
S31500002A3801F0A6F9B442F3D1BE6896B1FC6804EB7E
S31500002A48061602E01034A6420BD0637BAB42F9D1DE
S31500002A58D4E90002A168121A103401F0FAF9A64264
S31500002A68F3D1F8BD5C7B00004FF47001274B284A70
S31500002A7870B50020C3F888109A60FEF7C1FCFFF70E
S31500002A88AFFD0120FEF7BCFC224B83F30A88002029
S31500002A98FFF7B8FFFFF78EFDFFF740FE0320FFF7AD
S31500002AA863FF00234FF6FF701B4903F10802013349
S31500002AB8092B21F81200F8D100240320FFF724FF80
S31500002AC80320FFF751FF154B03205C609C60DC6018
S31500002AD81C61FFF719FF0220FEF792FC0120FFF7A1
S31500002AE891FF0F4D0F4B5B1BA3424FEAA30605DD73
S31500002AF855F8043B01349847A642F9DCFFF7BAFEBD
S31500002B08BDE870400020FFF747BE00BF00ED00E0BB
S31500002B1800000000E0110020000D084000000E40F3
S31500002B28647F0000687F000081F0004102E000BF7A
S31500002B3883F0004330B54FEA41044FEA430594EA6F
S31500002B48050F08BF90EA020F1FBF54EA000C55EAAA
S31500002B58020C7FEA645C7FEA655C00F0E2804FEA7B
S31500002B685454D4EB5555B8BF6D420CDD2C4480EA5D
S31500002B78020281EA030382EA000083EA010180EA8D
S31500002B88020281EA0303362D88BF30BD11F0004FDB
S31500002B984FEA01314FF4801C4CEA113102D0404211
S31500002BA861EB410113F0004F4FEA03334CEA13334C
S31500002BB802D0524263EB430394EA050F00F0A78064
S31500002BC8A4F10104D5F1200E0DDB02FA0EFC22FA5F
S31500002BD805F2801841F1000103FA0EF2801843FA53
S31500002BE805F359410EE0A5F120050EF1200E012A44
S31500002BF803FA0EFC28BF4CF0020C43FA05F3C01882
S31500002C0851EBE37101F0004507D54FF0000EDCF1FA
S31500002C18000C7EEB00006EEB0101B1F5801F1BD3A3
S31500002C28B1F5001F0CD349085FEA30004FEA3C0CA7
S31500002C3804F101044FEA445212F5800F80F09A809D
S31500002C48BCF1004F08BF5FEA500C50F1000041EBA1
S31500002C58045141EA050130BD5FEA4C0C404141EBA5
S31500002C680101013C28BFB1F5801FE9D291F0000FA0
S31500002C7804BF01460020B1FA81F308BF2033A3F14F
S31500002C880B03B3F120020CDA0C3208DD02F1140C46
S31500002C98C2F10C0201FA0CF021FA02F10CE002F181
S31500002CA81402D8BFC2F1200C01FA02F120FA0CFC7A
S31500002CB8DCBF41EA0C019040E41AA2BF01EB0451C3
S31500002CC8294330BD6FEA04041F3C1CDA0C340EDCC1
S31500002CD804F11404C4F1200220FA04F001FA02F304
S31500002CE840EA030021FA04F345EA030130BDC4F1C2
S31500002CF80C04C4F1200220FA02F001FA04F340EAB7
S31500002D080300294630BD21FA04F0294630BD94F067
S31500002D18000F83F4801306BF81F480110134013D4E
S31500002D284EE77FEA645C18BF7FEA655C29D094EABF
S31500002D38050F08BF90EA020F05D054EA000C04BF3D
S31500002D481946104630BD91EA030F1EBF0021002028
S31500002D5830BD5FEA545C05D14000494128BF41F0C7
S31500002D68004130BD14F580043CBF01F5801130BD2B
S31500002D7801F0004545F0FE4141F470014FF00000B6
S31500002D8830BD7FEA645C1ABF194610467FEA655C67
S31500002D981CBF0B46024650EA013406BF52EA033509
S31500002DA891EA030F41F4002130BD00BF90F0000FF7
S31500002DB804BF0021704730B54FF4806404F1320433
S31500002DC84FF000054FF0000150E700BF90F0000FEC
S31500002DD804BF0021704730B54FF4806404F1320413
S31500002DE810F0004548BF40424FF000013EE700BFE3
S31500002DF842004FEAE2014FEA31014FEA02701FBF73
S31500002E0812F07F4393F07F4F81F06051704732F0A4
S31500002E187F4208BF704793F07F4F04BF41F40021FB
S31500002E28704730B54FF4607401F0004521F0004159
S31500002E381CE700BF50EA010208BF704730B54FF0E3
S31500002E4800050AE050EA010208BF704730B511F0E4
S31500002E58004502D5404261EB41014FF4806404F11C
S31500002E6832045FEA915C3FF4D8AE4FF003025FEAA2
S31500002E78DC0C18BF03325FEADC0C18BF033202EB26
S31500002E88DC02C2F1200300FA03FC20FA02F001FA80
S31500002E9803FE40EA0E0021FA02F11444BDE600BF23
S31500002EA880F0004002E000BF81F0004142001FBFF1
S31500002EB85FEA410392EA030F7FEA226C7FEA236CFA
S31500002EC86AD04FEA1262D2EB1363C1BFD2184140EF
S31500002ED848404140B8BF5B42192B88BF704710F085
S31500002EE8004F40F4000020F07F4018BF404211F028
S31500002EF8004F41F4000121F07F4118BF494292EA90
S31500002F08030F3FD0A2F1010241FA03FC10EB0C00BB
S31500002F18C3F1200301FA03F100F0004302D5494248
S31500002F2860EB4000B0F5000F13D3B0F1807F06D3F5
S31500002F3840084FEA310102F10102FE2A51D2B1F1ED
S31500002F48004F40EBC25008BF20F0010040EA0300E2
S31500002F587047490040EB0000013A28BFB0F5000F62
S31500002F68EDD2B0FA80FCACF1080CB2EB0C0200FA18
S31500002F780CF0AABF00EBC25052421843BCBFD04067
S31500002F881843704792F0000F81F4000106BF80F4E1
S31500002F9800000132013BB5E74FEA41037FEA226CA4
S31500002FA818BF7FEA236C21D092EA030F04D092F06F
S31500002FB8000F08BF0846704790EA010F1CBF0020A3
S31500002FC8704712F07F4F04D1400028BF40F0004000
S31500002FD8704712F100723CBF00F50000704700F020
S31500002FE8004343F0FE4040F4000070477FEA226247
S31500002FF816BF08467FEA23630146420206BF5FEA18
S31500003008412390EA010F40F4800070474FF0000317
S3150000301804E000BF10F0004348BF40425FEA000CDE
S3150000302808BF704743F0964301464FF000001CE086
S3150000303850EA010208BF70474FF000030AE000BFDC
S3150000304850EA010208BF704711F0004302D540421A
S3150000305861EB41015FEA010C02BF8446014600208C
S3150000306843F0B64308BFA3F18053A3F50003BCFAA7
S315000030788CF2083AA3EBC25310DB01FA02FC634454
S3150000308800FA02FCC2F12002BCF1004F20FA02F25B
S3150000309843EB020008BF20F00100704702F120024E
S315000030A801FA02FCC2F1200250EA4C0021FA02F2AF
S315000030B843EB020008BF20EADC7070472DE9FF47A2
S315000030C857EC106B002F0C4619463B46B4BF07F168
S315000030D8004300239146BFBF32461F462D2316469E
S315000030E8DDF830A00B700D9B23F02008B8F1460FD1
S315000030F805D0B8F1450F00D10134022100E00321C3
S3150000310803AB2246019302AB47EC106B0093534680
S3150000311800F042FFB8F1470F054619D119F0010F23
S315000031280ED000EB0409002200233046394602F08F
S3150000313891FE08B1CDF80C903022039B4B451ED367
S31500003148039B28460E9A5B1B136004B0BDE8F08704
S31500003158B8F1460F00EB0409E5D10378302B0AD104
S31500003168002200233046394602F074FE18B9C4F12D
S315000031780104CAF80040DAF800309944D3E7591C2C
S3150000318803911A70D9E7F7B500290270BABF494208
S315000031982D232B230929437028DD0DF107030A2760
S315000031A81D461A46013BB1FBF7F607FB16143034E9
S315000031B802F8014C0C463146632CF2DC3031941E81
S315000031C803F8011C411C2346AB420AD30DF109033F
S315000031D89B1AAC4288BF002302330344181A03B073
S315000031E8F0BD13F8016B01F8016FEDE730233031BC
S315000031F88370031DC170F1E72DE9F04F8DB00C46C1
S3150000320816461F46DDF85880054600F0C1FD0368DE
S315000032181846049300F02AFE002305900A93D8F86E
S31500003228003094F818A00733D4F800B023F0070349
S3150000323803F10802C8F800204FF0FF32D3E90089ED
S3150000324829F00043CDF8188007939D4BDDE9060168
S31500003258C4E9128902F030FE70BB4FF0FF32984B7A
S31500003268DDE9060102F00AFE30BB002200234046D3
S31500003278494602F0F9FD10B12D2384F84330914AEE
S31500003288914BBAF1470F8CBF9046984603234FF0EF
S31500003298000923612BF00403236033460BAA214659
S315000032A82846009700F0D2F9013040F08D804FF0A3
S315000032B8FF300DB0BDE8F08F42464B4640464946C2
S315000032C802F0FAFD40B14B46804A002BBCBF2D23C5
S315000032D884F843307E4BD4E70AF0DF02636806922F
S315000032E85A1C3BD1062363604BF4806200232846B0
S315000032F8226003930AABCDE901A309AB49EC108B15
S3150000330800930DF123036168FFF7D8FE069B8046FC
S315000033180999472B29D1C81C02DB6368994241DD0C
S31500003328AAF1020A5FFA8AFA0139524604F15000F4
S315000033380991FFF728FF0A9A81461318012A236183
S3150000334802DC2268D20701D5013323619DF82330B8
S31500003358002BA2D02D2384F843309EE7069A472AED
S31500003368C2D1002BC0D10123BDE7BAF1650FDBD965
S31500003378BAF1660F18D1002963680BDD216113B90C
S315000033882268D00702D501330B4423614FF00009A8
S31500003398A165DBE713B92268D20701D50233F4E742
S315000033A80123F2E74FF0670A0A9B994205DB236877
S315000033B82161D807EAD54B1CE7E70029D4BFC1F13C
S315000033C8020201221344E0E723685A0507D4236959
S315000033D8424631462846B84701302BD167E7BAF14D
S315000033E8650F40F2DD8000220023D4E9120102F0C5
S315000033F831FD002833D00123364A31462846B847DE
S3150000340801303FF454AFDDE90938434502DB236850
S31500003418D8070FD531462846DDE90423B8470130D9
S315000034283FF445AF4FF0000908F1FF3804F11A0AD6
S31500003438C84509DC23689B0700F10381E0680B9BFC
S315000034489842B8BF184634E7012352463146284603
S31500003458B84701303FF42BAF09F10109E8E7099BAA
S31500003468002B39DC01231B4A31462846B847013070
S315000034783FF41DAFDDE9093959EA030302D1236890
S31500003488D907D7D531462846DDE90423B8470130A0
S315000034983FF40DAF4FF0000A04F11A0B099B5B428B
S315000034A8534501DC4B4693E701235A4631462846E5
S315000034B8B84701303FF4FBAE0AF1010AEEE700BF58
S315000034C8FFFFEF7FD27B0000CE7B0000DA7B000097
S315000034D8D67B0000DE7B0000A36DDDF828A05345EF
S315000034E8A8BF5346002B994636DC4FF0000B29EA55
S315000034F8E97904F11A02A36D0693A3EB09035B4568
S3150000350831DC099B9A453ADC2368DA0737D4099BEC
S31500003518AAEB0309069BAAEB03039945A8BF99469C
S31500003528B9F1000F33DC4FF0000829EAE97904F114
S315000035381A0B099BAAEB0303A3EB090343457FF781
S3150000354879AF01235A4631462846B84701303FF439
S31500003558AEAE08F10108ECE7424631462846B847C0
S315000035680130C2D1A3E60123314628460692B84760
S3150000357801303FF49CAE0BF1010B069ABBE7DDE97F
S31500003588042331462846B8470130C0D18FE6069A4B
S315000035984B46314628464244B8470130C3D186E6F1
S315000035A8DDF828A0BAF1010F01DCDB0736D50123C7
S315000035B8424631462846B84701303FF478AE314690
S315000035C82846DDE90423B84701303FF470AE0022EF
S315000035D800230AF1FF3AD4E9120102F03BFCC0B914
S315000035E8534608F1010231462846B84701300CD146
S315000035F85DE601235A4631462846B84701303FF46E
S3150000360856AE08F10108D045F3DB4B4604F15002EB
S31500003618DFE64FF0000804F11A0BF4E701234246EF
S31500003628E1E701234A4631462846B84701303FF4C8
S315000036383EAE08F10108E3680B995B1A4345F0DCD6
S31500003648FCE64FF0000804F11909F4E72DE9F04704
S31500003658164698468A6807460B690C46DDF8209098
S315000036689342B8BF1346336091F843200AB1013339
S3150000367833602368990642BF33680233336025688E
S3150000368815F0060506D104F1190AE36832689B1A93
S31500003698AB422BDC94F843302268003B18BF012369
S315000036A8920630D404F1430241463846C8470130F1
S315000036B823D023681A3454F80A2C03F00603042B83
S315000036C80ABF54F80E5C002533684FF0000608BFA1
S315000036D8ED1A54F8123C08BF25EAE5759342C4BFB3
S315000036E89B1AED18B5421AD1002008E0012352466C
S315000036F841463846C847013003D14FF0FF30BDE890
S31500003708F0870135C1E7E1185A1C302002332244FC
S3150000371881F8430094F8451082F84310C2E7012364
S31500003728224641463846C8470130E6D00136D9E731
S315000037382DE9FF470F7E914680460C46782F9A461C
S315000037480C9E01F1430207D8622F0AD8002F00F019
S31500003758D180582F00F0B88004F1420684F84270F0
S315000037683AE0A7F16303152BF6D801A151F823F027
S31500003778D1370000E53700006137000061370000E7
S315000037886137000061370000E53700006137000047
S31500003798613700006137000061370000E338000038
S315000037A80F3800009D3800006137000061370000BF
S315000037B805390000613700000F3800006137000046
S315000037C861370000A538000033681A1D1B6832608F
S315000037D804F1420684F8423001239CE033682068ED
S315000037E8191D3160060601D51D6803E04506FBD59F
S315000037F8B3F90050002D03DA2D236D4284F84330C7
S3150000380858480A2311E021683368080653F8045B10
S3150000381802D4490648BFADB26F2F3360514814BF72
S315000038280A230823002184F843106668002EA66040
S3150000383805DB21682E4321F0040121604BD0164692
S31500003848B5FBF3F103FB1157C75D06F8017D2F465B
S315000038580D46BB42F4D9082B0BD12368DF0708D5E0
S31500003868236961689942DEBF302306F8013C06F1F8
S31500003878FF36921B22614B4603AA21464046CDF8E5
S3150000388800A0FFF7E3FE01304AD14FF0FF3004B045
S31500003898BDE8F087236843F0200323607827324881
S315000038A8236884F845701F06316851F8045B02D412
S315000038B85F0648BFADB23160D90744BF43F0200365
S315000038C823601DB11023ADE72648E9E7236823F0F6
S315000038D820032360F6E71646BDE733682568181DFA
S315000038E8616930602E061B6801D5196002E068061A
S315000038F8FBD51980002316462361BCE733680021EF
S315000039081A1D32601E686268304600F094FA08B1E3
S31500003918801B606063682361002384F84330AAE74C
S315000039282369324649464046D0470130ADD0236820
S315000039389B0713D4E068039B9842B8BF1846A6E7CE
S315000039480123324649464046D04701309DD00135CD
S31500003958E36803995B1AAB42F2DCEBE7002504F156
S315000039681906F5E7E07B0000F17B0000002310B59F
S3150000397804468360818119464366C28108228361B1
S31500003988C0E90033C0E904335C3000F0F9F90D4BA7
S31500003998246263620C4BA3620C4BE3620C4B2363F9
S315000039A80C4B9C4206D003F16802944202D0D033F5
S315000039B89C4205D104F15800BDE8104000F038BA21
S315000039C810BD00BFD93B0000FB3B0000333C0000A4
S315000039D8573C0000201C0020024A0349034800F017
S315000039E869B800BF10000020AD5700002000002075
S315000039F841680C4B994210B5044601D001F0D2FE3D
S31500003A08A168094B994202D0204601F0CBFEE16835
S31500003A18064B994204D02046BDE8104001F0C2BECC
S31500003A2810BD00BF201C0020881C0020F01C0020B0
S31500003A3810B50B4B04210B4C0B4A20461A6000228A
S31500003A48FFF794FF04F1680001220921FFF78EFFB2
S31500003A5804F1D00002221221BDE81040FFF786BF0C
S31500003A68581D0020201C0020E1390000014800F004
S31500003A78E0B900BF611D0020014800F0DBB900BFB6
S31500003A88611D002010B50446FFF7F0FF236A1BB13D
S31500003A98BDE81040FFF7F0BF044B2362044B1B68D8
S31500003AA8002BF5D1FFF7C4FFF2E700BFF939000094
S31500003AB8581D00202DE9F843074688461446002677
S31500003AC8D4E90195B9F1010905D52468002CF7D187
S31500003AD83046BDE8F883AB89012B07D9B5F90E3016
S31500003AE8013303D029463846C04706436835E9E717
S31500003AF80FB407B5064904AB086853F8042B816868
S31500003B08019301F0B3FC03B05DF804EB04B0704711
S31500003B181C000020036A70B505460E4684680BB97A
S31500003B28FFF7B0FF636EDB0705D4A389980502D4B7
S31500003B38A06D00F07EF9A389190702D52369002B29
S31500003B4835D12146284600F0C5F880B34FF0FF3539
S31500003B58636EDA0705D4A3899B0502D4A06D00F02D
S31500003B6869F9284670BD002B04DAA2699A4217DC67
S31500003B780A2915D023685A1C22601970A36816F8FA
S31500003B88011F013BA3600029EDD1002B11DA224663
S31500003B980A21284600F05FF80130D7D00A25D7E772
S31500003BA82246284600F057F80130E7D1CEE7013E15
S31500003BB8E4E723685A1C22600A221A70EEE700001E
S31500003BC8024B01461868FFF7A5BF00BF1C0000207E
S31500003BD810B50C46B1F90E1000F000F90028ABBF7D
S31500003BE8636DA3891B1823F48053ACBF6365A38157
S31500003BF810BD2DE9F0411F468B8905460C46DB05AD
S31500003C08164605D502230022B1F90E1000F0D4F8A5
S31500003C18A3893246B4F90E10284623F48053A381AB
S31500003C283B46BDE8F04100F0EBB810B50C46B1F9DB
S31500003C380E1000F0C1F8431CA38915BF606523F474
S31500003C48805343F48053A38118BFA38110BDB1F9F3
S31500003C580E1000F0A1B8F8B50E461446054618B180
S31500003C68036A0BB9FFF70EFFA369A360A3891A07B6
S31500003C7801D5236943B92146284600F02BF818B127
S31500003C884FF0FF373846F8BD2368F6B22269374643
S31500003C98981A6369834205DC2146284601F082FDAD
S31500003CA80028EDD1A368013BA36023685A1C226053
S31500003CB81E70431C62699A4204D0A389DB07E1D5CA
S31500003CC80A2EDFD12146284601F06CFD0028D9D0FE
S31500003CD8D6E7000038B5294B05460C46186818B1D2
S31500003CE8036A0BB9FFF7CEFEB4F90C30190722D4D4
S31500003CF8DA0607D409222A6043F040034FF0FF3062
S31500003D08A38133E0580712D5616B41B104F144032E
S31500003D18994202D0284600F0FDFE00236363A3897A
S31500003D2823F02403A3810023636023692360A38906
S31500003D3843F00803A38123694BB9A38903F42073CD
S31500003D48B3F5007F03D02146284601F078FDB4F983
S31500003D580C3013F001020AD00022A26062695242B6
S31500003D68A261226942B913F08000C5D138BD99070E
S31500003D7858BF6269A260F4E70020F7E71C0000203C
S31500003D8802440346934200D1704703F8011BF9E742
S31500003D98004870475C01002038B50023054D0446ED
S31500003DA808462B60FCF754FD431C02D12B6803B16F
S31500003DB8236038BD5C1D002038B50446064D08460C
S31500003DC8114600222A601A46FCF746FD431C02D11A
S31500003DD82B6803B1236038BD5C1D002038B5044646
S31500003DE8064D0846114600222A601A46FCF738FD99
S31500003DF8431C02D12B6803B1236038BD5C1D00202B
S31500003E0838B50446064D0846114600222A601A4669
S31500003E18FCF72EFD431C02D12B6803B1236038BD85
S31500003E285C1D0020014B1868704700BF1C0000206D
S31500003E38704770477047C9B20346024410B59342AB
S31500003E48184601D1002003E0047801338C42F6D1EC
S31500003E5810BD0A44431E914200D1704710B511F8AF
S31500003E68014B914203F8014FF9D110BD034613F8EF
S31500003E78012B002AFBD1181A013870472DE9F74F94
S31500003E88036907460C69A342C0F28380013C00F12E
S31500003E98140501F11408A30055F8242008EB840939
S31500003EA8009305EB8403019358F8243001339A42B2
S31500003EB8B2FBF3F631D34FF0000AC446AE46D346FA
S31500003EC85CF8043B98B2E1454FEA134306FB00A0B1
S31500003ED84FEA104280B206FB0323DEF8002092B2B6
S31500003EE84FEA134AA2EB00029BB2DEF800005A44DE
S31500003EF8C3EB224392B203EB104342EA03424FEA72
S31500003F08234B4EF8042BDBD2009BEB582BB9019BB5
S31500003F18043B9D421A4630D33C61384601F070F99D
S31500003F28002826DB2946002058F8042BD1F800C0C3
S31500003F381FFA82FEC1451FFA8CF34FEA1242A3EB21
S31500003F480E030344C2EB23429BB202EB1C4243EA34
S31500003F5802434FEA224041F8043BE5D255F82420B3
S31500003F6805EB840322B9043B9D421A460BD33C61F8
S31500003F780136304603B0BDE8F08F1268043B002ACC
S31500003F88CAD1013CC5E71268043B002AEFD1013CBF
S31500003F98EAE70020EEE700002DE9F04FC76999B07F
S31500003FA88346229E09910E92139355EC104B8DED84
S31500003FB8040B7FB9102000F0F7FD0246CBF81C0071
S31500003FC820B9A74BEF21A748FEF7E8FBC0E9017720
S31500003FD80760C760DBF81C30196859B15A680123B5
S31500003FE8584693404A608B6000F0D4FEDBF81C30DC
S31500003FF800221A602B1EB7BF23F0004300230122BC
S315000040080593A8BF3360059F974BB8BF3260BB4383
S3150000401812D142F20F73139A1360C7F313032343A3
S3150000402800F04685239BDFF854A2002B00F0488554
S315000040380AF1030300F042BD9DED047B0022002334
S3150000404851EC170B8DED0C7B01F004FF804658B13F
S315000040580123139A1360239B13B1844B239A13608D
S31500004068DFF81CA200F02CBDC7F30A5616AA17A93A
S3150000407858469DED0C0B01F077F98146002E75D058
S315000040880D9BA6F2FF36CDF85080C3F3130343F019
S315000040987F53DDE90C0143F4401319460022744BA3
S315000040A8FEF746FD68A3D3E9002301F06BFC68A37D
S315000040B8D3E90023FEF73EFD04460D463046FEF7DB
S315000040C885FE65A3D3E9002301F05CFC02460B4696
S315000040D820462946FEF72EFD04460D4601F002FF4E
S315000040E80022074600232046294601F0BDFE40B1BE
S315000040F83846FEF76BFE22462B4601F0ABFE00B9AA
S31500004108013F162F51D85B4B03EBC703DDE90C01C2
S31500004118D3E9002301F0A8FE002848D0013F002378
S315000041281293169B9B1B5A1E46BFC3F10108002318
S315000041384FF00008089248BF0893002F39DB089B08
S315000041480F973B44089300230A93099B092B61D8D0
S31500004158052BC5BF043B002401240993099B023B98
S31500004168032B63D8DFE803F05254372CDDE91663D6
S315000041781E4406F23243202BC9BFC3F14003C3F1E4
S3150000418820039F4006F21243D8BF04FA03F006F153
S31500004198FF36C4BF24FA03F347EA0300FEF706FE18
S315000041A80122A1F1F873149277E70123B8E7129078
S315000041B8B7E77B42A8EB07080A9300230F93C4E7E7
S315000041C801230B930E9BFB1800930133012B0393DA
S315000041D8B8BF012306E001230B930E9B002B28DDB5
S315000041E800930393DBF81C000021042202F1140556
S315000041F89D4223D94160584600F08CFD824600282E
S3150000420840D11D4B024640F2AF11DCE60023E3E73E
S315000042180023D6E7012400230B9409934FF0FF33BC
S3150000422800220093039312230E92DBE701230B93DC
S31500004238F4E701231A4600930393F5E70131520088
S31500004248D4E700BFAFF3008061436F63A787D23F0F
S31500004258B3C8608B288AC63FFB799F501344D33F67
S315000042680F7C0000267C00000000F07FDF7B00004A
S315000042780000F83F407D00007F7C00000B7C0000BA
S31500004288DE7B0000DBF81C301860039B0E2B00F267
S31500004298A180002C00F09E80002F33DD07F00F026E
S315000042A89B4BF8054FEA271403EBC20393ED007BFB
S315000042B88DED067B16D5974B04F00F040326D3E93C
S315000042C80823DDE90C0101F087FCCDE90401914DD5
S315000042D854B9DDE90623DDE9040101F07DFCCDE9E9
S315000042E8040128E00226F2E7E10708D50136DDE9F0
S315000042F80601D5E9002301F045FBCDE90601641066
S315000043080835E5E700F0AF807C42814B814D0226F7
S3150000431804F00F02241103EBC203DDE90C01D3E913
S31500004328002301F02FFB0023CDE90401002C40F007
S315000043388F80002BD3D1129BDDE90445002B00F0BA
S3150000434894800022744B2046294601F08DFD0028F2
S3150000435800F08B80039B002B00F08780009B002BCE
S3150000436834DD7B1E204600222946069301366B4B18
S3150000437801F008FB009CCDE904013046FEF726FD56
S31500004388DDE9042301F0FEFA0022654BFEF7D2FBB5
S315000043980546A1F15076002C6AD10022614BDDE971
S315000043A80401FEF7C5FB02460B46CDE904232A465F
S315000043B8334601F077FD002840F087822A4606F149
S315000043C80043DDE9040101F04FFD38BBDDE90C349B
S315000043D8CDE90434179B002BC0F258810E2F00F349
S315000043E855814B4B03EBC70393ED007B0E9B002BCC
S315000043F88DED007B80F2E580039B002B00F3E180C6
S315000044080CD10022474B51EC170B01F0BBFADDE942
S31500004418042301F03DFD002800F0558200242546BE
S315000044280E9B5646DB43069300272146584600F066
S31500004438B1FC002D00F0BD802FB1AF4203D0394644
S31500004448584600F0A7FC2946584600F0A3FCB0E001
S31500004458E20705D50136D5E9002301F093FA0123D1
S315000044686410083562E7022665E7039C069784E729
S31500004478274B0B9903EBC403544453E90223002941
S3150000448854D00020284901F0A7FB334656462A4651
S31500004498FEF74EFBCDE91001DDE9040101F022FD2E
S315000044A80546FEF793FC02460B463035DDE9040166
S315000044B8FEF73EFB02460B4606F8015BCDE90423F0
S315000044C8DDE9102301F0D0FC002872D10020124942
S315000044D8DDE90423FEF72CFBDDE9102301F0C4FC1B
S315000044E8002840F0B480A6423FF470AF00220B4B80
S315000044F8DDE9100101F046FA0022084BCDE910016A
S31500004508DDE9040101F03EFACDE90401C4E700BF84
S31500004518407D0000187D00000000F03F00002440A8
S3150000452800001C40000014400000E03F314656469B
S31500004538284601F027FA1594CDE91001DDE90401B2
S3150000454801F0D0FC0546FEF741FC024630350B4625
S31500004558DDE90401FEF7ECFA06F8015B02460B46B4
S31500004568A642CDE904234FF0000224D1AB4BDDE986
S315000045781001FEF7DFFA02460B46DDE9040101F0F9
S3150000458891FC002863D10020A449DDE91023FEF739
S31500004598CFFA02460B46DDE9040101F065FC002866
S315000045A83FF414AF159E731E159316F8013C302B75
S315000045B8F8D0069F3BE09A4B01F0E4F9CDE90401F7
S315000045C8BCE7DDE90445564620462946DDE90023D1
S315000045D801F002FB01F086FC8046FEF7F7FBDDE9F9
S315000045E8002301F0CFF90246204608F130040B46B5
S315000045F82946FEF79DFA039D06F8014BA6EB0A0429
S3150000460802460B46A54234D1FEF794FA04460D46F7
S31500004618DDE9002301F046FCC0B920462946DDE95C
S31500004628002301F017FC10B118F0010F0ED149460E
S31500004638584600F0AFFB002301373370139B1F6009
S31500004648239B002B00F03C821E6039E20697334616
S315000046581E4613F8012D392A07D19A45F8D1069A2C
S315000046680132069230228AF800201A7801321A702E
S315000046789FE700226A4B01F085F9002200230446D1
S315000046880D4601F0E7FB00289ED0D0E70B9A002ADA
S3150000469800F0E180099A012A00F3C480149A002ADE
S315000046A800F0B78003F233430A9C4646089A012174
S315000046B8584698441A44089200F022FC05465EB112
S315000046C8089B002B08DDB342089AA8BF3346A8EB1F
S315000046D80308F61AD31A08930A9BF3B10B9B002B0F
S315000046E800F0BD808CB129462246584600F0C2FC2F
S315000046F84A4601460546584600F018FC49460690C3
S31500004708584600F047FB069B99460A9B1A1B04D09D
S315000047184946584600F0AEFC81460121584600F04D
S31500004728EFFB0F9B0446002B00F0CE811A4601468C
S31500004738584600F09FFC099B0446012B00F3958020
S31500004748049B002B40F08D80059BC3F31303002BBD
S3150000475840F08980059B23F000431B0D1B052BB1F8
S31500004768089B08F101080133089301230A930F9B5C
S31500004778002B00F0AF81236904EB8303186900F06E
S3150000478873FBC0F12000089B184410F01F0077D077
S31500004798C0F12003042B6BDDC0F11C00089B80448C
S315000047A8034406440893B8F1000F05DD494642461E
S315000047B8584600F0B9FC8146089B002B05DD2146CA
S315000047C81A46584600F0B0FC0446129B002B59D0F6
S315000047D82146484600F014FD002853DA7B1E494658
S315000047E80A2258460693002300F0F6FA0B9B8146E8
S315000047F8002B00F07181002329460A22584600F052
S31500004808EBFA009B0546002B67DC099B022B41DC73
S3150000481863E0169BC3F1360346E700BF0000E03F9E
S3150000482800002440039B5C1E0A9BA34209DB1C1B59
S31500004838039B002BBFF639AF039BA8EB03060023A7
S3150000484834E70A9B46460F9AE31A0A9400241A4448
S31500004858039B0F922AE70A9C46460B9D2FE70A9A66
S3150000486856E7002382E7049B80E700230A9382E742
S3150000487899D01C33089A1A4498441E44089292E721
S315000048880346F6E7039B0697002B20DC0093099B5B
S31500004898022B1EDD009B002B7FF4C2AD21460522AC
S315000048A8584600F099FA01460446484600F0A8FC26
S315000048B800287FF7B5AD3123564606F8013B069B1F
S315000048C801330693B0E5039C06972546F3E7039B59
S315000048D800930B9B002B00F00381002E05DD294673
S315000048E83246584600F020FC05460A9B002B5AD053
S315000048F86968584600F00EFA064628B9834B024600
S3150000490840F2EF21FFF75FBB2A6905F10C010C3075
S3150000491802329200FFF79DFA01223146584600F00E
S3150000492803FC0AF101032F4605460393009B5344F3
S315000049380B93049B03F001030A93039B2146484605
S31500004948013B0093FFF79AFA3946049000F13008C4
S31500004958484600F055FC2A4608902146584600F07D
S315000049686BFCC268064602BB0146484600F048FC96
S315000049780246314658460E9200F00CFA099B0E9AEA
S31500004988039E42EA03010A9B194310D1B8F1390F75
S3150000499829D0089B002B02DD049B03F13108009BFC
S315000049A883F8008041E52846BBE70122E1E7089B3A
S315000049B8002B04DB09990B430A990B4320D1002AE3
S315000049C8EDDD49460122584600F0AEFB21468146F8
S315000049D800F016FC002803DCE1D118F0010FDED048
S315000049E8B8F1390FD8D13923009A137033461E46C9
S315000049F8013B16F8012C392A51D001321A7014E5F8
S31500004A08002A07DDB8F1390FEDD008F10103009A45
S31500004A1813700AE5039B0B9A03F8018C934228D07E
S31500004A28494600230A22584600F0D6F9AF42814685
S31500004A384FF000034FF00A023946584607D100F0F6
S31500004A48CBF907460546039B0133039375E700F048
S31500004A58C3F92946074600230A22584600F0BCF93E
S31500004A680546F0E7009B0027002BCCBF1E46012613
S31500004A78564449460122584600F056FB21468146CF
S31500004A8800F0BEFB0028B1DC02D118F0010FADD151
S31500004A9833461E4613F8012D302AFAD0C5E49A4546
S31500004AA8A5D1069B0133069331238AF80030BCE46E
S31500004AB8239BDFF85CA01BB10AF10803239A136055
S31500004AC8504619B0BDE8F08F099B012B7FF738AE29
S31500004AD80F9B0A93012056E6009B002B7FF7D7AE63
S31500004AE8564621464846FFF7C9F900F13008009BAB
S31500004AF806F8018BA6EB0A029342B3DD494600236A
S31500004B080A22584600F068F98146EAE77F7C0000E9
S31500004B18027C000038B50546002941D051F8043C0E
S31500004B280C1F002BB8BFE41800F0E8F81D4A1368FC
S31500004B3833B9636014602846BDE8384000F0E4B82D
S31500004B48A34208D9206821188B4201BF19685B68FF
S31500004B5809182160EDE71A465B680BB1A342FAD93A
S31500004B6811685018A0420BD12068014450181160F2
S31500004B788342E0D118685B68084453601060DAE73E
S31500004B8802D90C232B60D6E7206821188B4202BF76
S31500004B9819685B680918636008BF21605460CAE732
S31500004BA838BD00BF681D0020024B0146186800F09A
S31500004BB825B800BF1C00002070B50F4E0C460546F0
S31500004BC8316811B900F09AFE30602146284600F097
S31500004BD895FE431C03D14FF0FF34204670BDC41C1C
S31500004BE824F00304A042F8D0211A284600F086FED5
S31500004BF80130F2D1EFE700BF641D00202DE9F8432C
S31500004C08CD1C064625F0030508350C2D38BF0C25A6
S31500004C18002D01DBA94204D90C2333600020BDE82E
S31500004C28F883DFF8D48000F069F8D8F800301C461D
S31500004C3844BB29463046FFF7BFFF431C044658D1FC
S31500004C48D8F800402746002F43D1002C4BD02368C4
S31500004C583946304604EB030900F050FE814542D13F
S31500004C68216830466D1A2946FFF7A6FF01303AD06B
S31500004C7823682B442360D8F800305A6862BBC8F80A
S31500004C8800700FE02268521B20D40B2A17D961192D
S31500004C98A342256018BF5960636808BFC8F80010AA
S31500004CA862514B60304600F02FF804F10B00231DCB
S31500004CB820F00700C21A1CBF1B1AA350AFE7626890
S31500004CC8A3420CBFC8F800205A60EBE72346646885
S31500004CD8AEE73C467F68B6E71A465B68A342FBD157
S31500004CE800235360DEE70C233046336000F00CF8EF
S31500004CF894E70560D6E700BF681D00200148FFF766
S31500004D0898B800BF601D00200148FFF793B800BFA0
S31500004D18601D002070B5C66904460D4676B9102098
S31500004D28FFF742FF0246E06120B9184B6B2118488D
S31500004D38FDF734FDC0E901660660C660E669F368FA
S31500004D4883B1E369DB6853F82500B8B90121204629
S31500004D5801FA05F6721D920000F0E0FD60B1C0E9A7
S31500004D6801560EE021220421204600F0D7FDE36912
S31500004D78F060DB68002BE4D1002070BD026843F8C0
S31500004D8825200023C0E90333F7E700BF0F7C0000A6
S31500004D98907C000070B5C66905460C4676B91020A9
S31500004DA8FFF702FF0246E86120B9094B8F2109483F
S31500004DB8FDF7F4FCC0E901660660C6603CB1EB6924
S31500004DC86268DB6853F82210216043F8224070BD00
S31500004DD80F7C0000907C00002DE9F04101F1140CD5
S31500004DE807460C461E460D690020DCF800300130E7
S31500004DF899B2854202FB01614FEA13464FEA114315
S31500004E0889B202FB063301EB03414FEA13464CF81D
S31500004E18041BEADC0EB3A368AB4219DC61683846AA
S31500004E280131FFF777FF804628B902460C4BBA21B5
S31500004E380C48FDF7B3FC226904F10C010C30023270
S31500004E489200FFF706F8214644463846FFF7A2FFC8
S31500004E5804EB850301355E6125612046BDE8F081D6
S31500004E687F7C0000907C0000B0F5803F034636BF8B
S31500004E78030400201020B3F1807F3CBF1B020830DA
S31500004E88B3F1805F3CBF1B010430B3F1804F3CBFD8
S31500004E989B000230002B05DB13F0804F00F1010068
S31500004EA808BF202070470368024613F007000BD09E
S31500004EB8D90721D4980747BF5B0801209B08022021
S31500004EC84CBF13601360704799B209B91B0C1020C8
S31500004ED8D9B209B908301B0A190704BF1B090430DF
S31500004EE8990704BF9B080230D90703D45B0800F171
S31500004EF8010003D0136070470020704720207047D8
S31500004F0810B50C460121FFF705FF024628B9054BE7
S31500004F1840F245110448FDF741FC01234461036151
S31500004F2810BD00BF7F7C0000907C00002DE9F04F8B
S31500004F3817460A69894685B03B699A42A2BF3B462D
S31500004F480F4699463D69BB68D9F810A0796805EB04
S31500004F580A06B342B8BF0131FFF7DCFE30B9024694
S31500004F68424B4FF4B1714248FDF718FC00F11404A6
S31500004F78002204EB860E2346734520D307F1140856
S31500004F8809F1140108EB850501EB8A030293EB1B73
S31500004F981537153B23F003030433BD4238BF0423FA
S31500004FA80193029B03918B420CD8002E03DD5EF819
S31500004FB8043D002B57D0066105B0BDE8F08F43F8D5
S31500004FC8042BD9E7B1F800A0BAF1000F21D0C446E6
S31500004FD8A14600275CF8042BD9F800301FFA82FB9B
S31500004FE865459BB24FEA12420AFB0B333B44D9F89C
S31500004FF800704FEA17470AFB027202EB13429BB294
S315000050084FEA124743EA024349F8043BE2D8019BB8
S31500005018E750039B0431B3F80290B9F1000F20D092
S3150000502823684746A4464FF0000AB7F800B09BB27B
S31500005038BCF8022009FB0B22524443EA02434CF80F
S31500005048043B57F8043B4FEA134ABCF80030BD420C
S3150000505809FB0A3303EB12434FEA134AE5D8019AD0
S31500005068A35004349DE7013E9FE700BF7F7C000004
S31500005078907C00002DE9F843154612F00302074616
S315000050880E4607D0013A254C002354F82220FFF794
S31500005098A3FE0646AD103DD0FC697CB91020FFF78B
S315000050A883FD0246F86128B91D4B40F2B3111D482D
S315000050B8FDF774FBC0E901440460C460D7F81C809E
S315000050C8D8F808404CB940F271213846FFF718FF66
S315000050D800230446C8F8080003604FF00009EB07F0
S315000050E80AD5314622463846FFF720FF8046314624
S315000050F838464646FFF74EFE6D100BD0206838B985
S31500005108224621463846FFF711FF2060C0F8009076
S315000051180446E4E73046BDE8F88300BF087D000092
S315000051280F7C0000907C00002DE9F0470C460746EE
S3150000513891464FEA621A2369496803EB6218A36825
S3150000514808F10106B3420BDB3846FFF7E3FD0546D7
S3150000515848B90246284B4FF4EF712848FDF71EFB65
S3150000516801315B00EEE7002300F1140100F11002A3
S315000051781846534533DB2AEAEA7A04F11403206910
S3150000518819F01F0901EB8A0103EB800C2BD0C9F13A
S31500005198200E8A460022186800FA09F010434AF8D9
S315000051A8040B53F8042B9C4522FA0EF2F3D8ACEB09
S315000051B8040304F11500153B23F00303043360458B
S315000051C888BF0423CA500AB108F10206013E3846D0
S315000051D821462E61FFF7DEFD2846BDE8F08701333C
S315000051E842F8040FC5E7043953F8042B9C4541F8E7
S315000051F8042FF9D8EAE700BF7F7C0000907C000006
S3150000520803460A690069801A30B50ED11433143181
S3150000521803EB820401EB820154F8045D51F8042D76
S31500005228954203D005D24FF0FF3030BDA342F3D3E9
S31500005238FBE70120F9E700002DE9F74F8946064606
S31500005248114614464846FFF7DBFF051E12D12946CC
S315000052583046FFF75FFD024628B9414B40F2372139
S315000052684048FDF79BFA0123C0E90435104603B010
S31500005278BDE8F08FBCBF4B46A1463046B8BF0125F6
S31500005288D9F80410B4BF1C460025FFF743FD0246B3
S3150000529818B9334B40F24521E2E7D9F8107004F10A
S315000052A8140E266900F1140BC56009F1140509F1FD
S315000052B810030EEB860605EB8708D9464FF0000C5F
S315000052C80193019B5EF8040B53F804AF76450193EE
S315000052D81FFA8AF3194683B24FEA1040A1EB03037B
S315000052E8C0EB1A40634400EB23409BB24FEA204CC4
S315000052F843EA004349F8043BE3D8331B1534153B0E
S3150000530823F003030433A64238BF04231D445B4439
S315000053182C461E4644450ED308F10301491B033D9E
S3150000532821F00301A84538BF00210B4453F8041D9A
S3150000533899B117619AE754F8041BE6461FFA81FCEF
S31500005348080C7144F44489B200EB2C4041EA004150
S315000053584FEA204C46F8041BDCE7013FE6E700BFAE
S315000053687F7C0000907C00002DE9F7430F46012161
S31500005378164659EC108BFFF7CDFC044630B90246A9
S31500005388234B40F20F312348FDF708FAC9F30A55B3
S31500005398C9F313030DB143F480130193B8F1000365
S315000053A823D068460093FFF77EFDDDE90012D0B1F1
S315000053B8C0F1200302FA03F3C2400B430192636172
S315000053C8019B002BA3610CBF012202222261A5B119
S315000053D8A5F233450544C0F135003D6030602046EE
S315000053E803B0BDE8F0836161EAE701A8FFF75BFD5A
S315000053F8019B203001226361E8E7A0F2324004EB0A
S31500005408820338601869FFF72FFDC0EB4210E5E705
S315000054187F7C0000907C00009368013B002B936022
S3150000542810B408DA9469A34201DB0A2903D15DF8AE
S31500005438044BFEF710BC1368581C10600846197018
S315000054485DF8044B7047F8B506460F461446D5185E
S31500005458AC4201D1002007E03A4614F8011B304659
S31500005468FFF7DAFF431CF3D1F8BD00002DE9F04F32
S315000054780D469DB014469846064618B1036A0BB900
S31500005488FEF700FB6B6ED90705D4AB899A0502D4E3
S31500005498A86DFEF7CEFCAB891B0701D52B699BB916
S315000054A829463046FEF716FC70B16B6EDC0704D54C
S315000054B84FF0FF301DB0BDE8F08FAB899805F7D4E3
S315000054C8A86DFEF7B7FCF3E70023CDF80C804FF084
S315000054D80109DFF8B481099320238DF82930302398
S315000054E88DF82A3023469A4613F8012B0AB1252A45
S315000054F8F9D1BAEB040B0BD05B4622462946304657
