S00D00007363616C652E737265630F
S3150000000080180020C926000009250000C52600002A
S31500000010C5260000C5260000C5260000C52600002E
S31500000020000000000000000000000000C5260000DF
S31500000030C526000000000000C5260000C5260000F9
S31500000040611B0000C91500003D150000591600008F
S31100000050A1160000E12100007121000053
S3150000005C010000000003050911FF118905C300E02A
S3150000006C00F000F8000000000000004428FF11AA70
S3150000007C440000000000000000000000000000002A
S3150000008C000000000000000000000000000000005E
S3150000009C000000000000000000000000000000004E
S315000000AC00000000000000000000000000008301BA
S315000000BC3844829292740183000000000000007C98
S315000000CC44FF017D7D7D7D017D7D7D7D017D7D7D79
S315000000DC7D01FF000000000000010001000100018D
S315000000EC00010001000000000000000000010100FA
S315000000FC00000000000000000000000000000000EE
S3150000010C00000000000000000000000000000000DD
S3150000011C00000000000000000000000000000000CD
S3150000012C00000000000000000000000000000101BB
S3150000013C00000000000001010000000000000000AB
S3150000014C000101010101010101010101010101018E
S3150000015C010101000000000000000000000000008A
S3150000016C000000000000000000000000000000007D
S3150000017C000000F80808080808080800F81860804D
S3150000018C000000806018F80000002020F800000035
S3150000019C000000E0100808080810E000000020200D
S315000001ACF80000000000000000000000000808082D
S315000001BC0808886818000000000000000000000015
S315000001CC000000000000000000000000000000001D
S315000001DC000000000000000000000000000000000D
S315000001EC00000000000000000000000000000000FD
S315000001FC0000007F01010101010100007F000001E8
S3150000020C0618060100007F00000040407F404000B9
S3150000021C0000001F2040404040201F0000004040CE
S3150000022C7F404000000000006000000000000060FD
S3150000023C180601000000000000000000000000008D
S3150000024C000000000000000000000000000000009C
S3150000025C000000000000000000000000000000008C
S3150000026C000000000000000000000000000000007C
S3150000027C00000000000000000040202020C000000C
S3150000028CE0202020E000000040E00000000060209C
S3150000029C2020E00000000000E0202020E00000000C
S315000002AC000040202020C0000040202020C000007C
S315000002BC000000000000000000000000000000002C
S315000002CC000000000000000000000000000000001C
S315000002DC000000000000000000000000000000000C
S315000002EC00000000000000000000000000000000FC
S315000002FC0000000000000000000C0A0A090C0000B7
S3150000030C0F0808080F000000080F080000000C0872
S3150000031C09090E00000C00000F0909090F00000C5A
S3150000032C00000C0A0A090C00000C0A0A090C000051
S3150000033C00000000000000000000000000000000AB
S3150000034C000000000000000000000000000000009B
S3150000035C000000000000000000000000000000008B
S3150000036C000000000000000000000000000000007B
S3150000037C000000000000000000000000000000006B
S3150000038C000000000000000000000000000000005B
S3150000039C808080808080808000000000000000004B
S315000003AC000000000000000000000000000000003B
S315000003BC000000000000000000000000000000002B
S315000003CC000000000000000000000000000000001B
S315000003DC00000000007F030C300C037F0000385433
S315000003EC545800007C04047800003C40407C00001B
S315000003FC00000000000000000000000000000000EB
S3150000040C00000000000000000000000000000000DA
S3150000041CFFAAAAAA280800FF00000000000000009E
S3150000042C00000000000000000000000000000000BA
S3150000043C000000000000000000000000007F030C1C
S3150000044C300C037F0000264949493200007F020424
S3150000045C08107F004000350000000000030000007B
S3150000046C5C1E002018040020000000005C1E00200A
S3150000047CC41E00202C1F00200000000000000000FD
S3150000048C000000000000000000000000000000005A
S3150000049C000000000000000000000000000000004A
S315000004AC000000000000000000000000000000003A
S309000004BC0000000036
S315000004C00348044B834202D0034B03B118477047DD
S315000004D0640400206404002000000000064B074965
S315000004E0C91A891048BF0131491003D0044B0BB11A
S315000004F001481847704700BF6404002064040020C8
S315000005000000000010B5064C237843B9FFF7D8FF6A
S31500000510044B13B10448AFF300800123237010BDD0
S31500000520981800200000000004A2000108B5054B41
S315000005301BB105490548AFF30080BDE80840FFF749
S31500000540CDBF00BF000000009C18002004A20001DF
S3150000055070B540F6454282B040F20D21414801F0A7
S31500000560A3F9002876D10121052001F087FF012299
S3150000057040F20D213B4801F0E1F80121084601F067
S315000005807DFF00224FF40371364801F0D7F81022A0
S3150000059040F20D21334801F087F900285ED1012190
S315000005A0052001F06BFF2F4C2F4E02E09DF80750FF
S315000005B07DB140F20D2120460DF1070201F0ACF8A5
S315000005C00028F3D0304602F0FDFB9DF80750002DC1
S315000005D0EFD11824234E0BE001219DF80730084681
S315000005E003B10D4401F04AFF621E12F0FF041DD054
S315000005F001224FF40371304601F0A0F801210846AC
S315000006008D4001F03BFF00224FF40371304601F0AC
S3150000061095F840F20D2130460DF1070201F07CF805
S315000006200028D9D0104802F0CDFBD5E701224FF4BF
S3150000063003710C4801F082F80121084601F01EFF03
S3150000064022464FF40371074801F078F885F400005C
S3150000065002B070BD054802F0B5FB84E7034802F01E
S31500000660B1FB9CE7441D0020983A00007C3A00004C
S3150000067008B540F6454240F20D210D4801F014F947
S3150000068090B9012240F20D21094801F057F84FF4C4
S3150000069003710122064801F051F8BDE808404FF405
S315000006A07A71642001F0EABE024802F08BFBE8E7AB
S315000006B0441D00207C3A000008B5FFF749FF014BB6
S315000006C0186008BDB418002008B5FFF741FF084BB5
S315000006D01B68834209D2C01A07EE900A9FED057A7D
S315000006E0F8EE677A87EE870A08BD9FED030A08BD14
S315000006F0B418002000004F430000000008B505496B
S31500000700054800F04FFD00B908BD0448BDE80840A3
S3150000071002F058BB9C3B00006C1D0020B43A000060
S3150000072003790146022B0AD0042B02D0012B0AD0F2
S315000007307047064B06481A68083100F0E9BC0122EA
S31500000740044B1A707047044A13707047000000206B
S315000007506C1D0020B8180020B91800204FF0FF309B
S31500000760704700BF4FF0FF30704700BF0020704752
S315000007704FF0FF30704700BF0120704710B50648A4
S31500000780144600F0C5FC05490B78002BFCD000236D
S315000007900B70204610BD00BF6C1D0020B81800204D
S315000007A010B5054C0549204601F026F92046BDE85E
S315000007B0104001F0CDB800BF4C1D00203C3B0000AE
S315000007C003793BB9044AB2F880309BB283F0040344
S315000007D0A2F88030704700BF0000084010B5134CE7
S315000007E001224FF48161204600F0A8FF012240F269
S315000007F00741204600F0A2FF0121032001F03EFE42
S3150000080000224FF48161204600F098FF0121032069
S3150000081001F034FE40F207412046002200F08EFF30
S31500000820BDE810400121032001F028BE441D002030
S3150000083070B508250446124E23064CBF012200223D
S315000008404FF48161304600F079FF0121032001F069
S3150000085015FE012240F20741304600F06FFF0121EC
S31500000860032001F00BFE002240F20741304600F063
S3150000087065FF6B1E640013F0FF05E4B2DCD170BDAA
S31500000880441D002010B5104C01224FF48161204612
S3150000089000F054FF0121032001F0F0FD012240F297
S315000008A00741204600F04AFF0121032001F0E6FD42
S315000008B040F207412046002200F040FFBDE810400C
S315000008C00121032001F0DABD441D002038B50C4695
S315000008D00546FFF783FF7820FFF7AAFFFFF7D2FF51
S315000008E00CB34020FFF7A4FFFFF7CCFF2846FFF725
S315000008F09FFFFFF7C7FF00224FF481610C4800F00D
S315000009001DFF012240F20741094800F017FF0121AF
S31500000910032001F0B3FDBDE8384001224FF48161A8
S31500000920034800F00BBF2046FFF782FFDCE700BF5D
S31500000930441D002030B1012800D070470021A720B7
S31500000940FFF7C4BF0146A620FFF7C0BF10B5044697
S3150000095060B1012800D010BD0021C020FFF7B6FF0E
S31500000960BDE810400021A020FFF7B0BF0146C82017
S31500000970FFF7ACFF2146BDE81040A120FFF7A6BF58
S315000009802DE9F041224F234E3D460837C5F1B00808
S3150000099008EB05000021C0B2FFF798FF00210846CA
S315000009A0FFF794FF00211020FFF790FFFFF716FFD7
S315000009B07820FFF73DFFFFF765FF4020FFF738FF80
S315000009C00024FFF75FFF15F834000134FFF730FF0E
S315000009D0FFF758FF802CF6D100224FF48161304694
S315000009E000F0ACFE012240F20741304600F0A6FEC0
S315000009F00121032001F042FD013501224FF48161FE
S31500000A00304600F09BFEBD42C2D1BDE8F08100BF7A
S31500000A10BC180020441D0020012310B50C4C01F029
S31500000A20070E04EBC00C03FA0EF3C9081CF801C04C
S31500000A30C000DBB22AB143EA0C0C044404F801C03E
S31500000A4010BD2CEA030C044404F801C010BD00BF1D
S31500000A50BC1800202DE9F04F8E4613F0070118BF91
S31500000A60012189B011EBD3069DF84C906AD0002481
S31500000A7083462546A0461046DC46079600285DD0EC
S31500000A80012700EB0804A3B204930595039006948E
S31500000A90129A08F1010312F808501FFA83F82C4B3A
S31500000AA00EF1080A03EBCB06CDE9018E7446B0467B
S31500000AB05FFA8AFA4E46E14610E018F800C0D2B254
S31500000AC04CEA020E2CEA020C002E3ED008F800E09A
S31500000AD0611CCCB2A2454FEA550515D004F00702B9
S31500000AE015F0010FC4F3C70007FA02F2E5D1B6FA12
S31500000AF086F2214658465209FFF78EFF611CCCB29A
S31500000B00A2454FEA5505E9D1CC460BF1010B5FFA38
S31500000B108BFB039AABEB0C039342DDF80480049B3A
S31500000B2008BFE346DDF808E008BFD6469845B1465B
S31500000B30AED11046069C059D1FFA84F8079B013529
S31500000B40AB429BD109B0BDE8F08F08F800C0BFE703
S31500000B50BC18002008B5012240F20741484800F0C1
S31500000B60EDFD01224FF48161454800F0E7FD0021CB
S31500000B70AE20FFF7ABFE00210846FFF7A7FE0021D7
S31500000B801020FFF7A3FE00214020FFF79FFE002163
S31500000B908120FFF79BFE0021CF20FFF797FE002163
S31500000BA0A120FFF793FE0021C820FFF78FFE00214A
S31500000BB0A620FFF78BFE0021A820FFF787FE002165
S31500000BC03F20FFF783FE0021D320FFF77FFE0021A1
S31500000BD00846FFF77BFE0021D520FFF777FE0021B0
S31500000BE08020FFF773FE0021D920FFF76FFE00215A
S31500000BF0F120FFF76BFE0021DA20FFF767FE0021E8
S31500000C001220FFF763FE0021DB20FFF75FFE0021C5
S31500000C104020FFF75BFE00212020FFF757FE002152
S31500000C200220FFF753FE00218D20FFF74FFE002123
S31500000C301420FFF74BFE0021A420FFF747FE0021FA
S31500000C40A620FFF743FE00200E4BA3F1080203F592
S31500000C50806143F8080C08338B42FAD100210A4B15
S31500000C6002F20C4243F8081C08339A42FAD1FFF705
S31500000C7087FEBDE808400021AF20FFF727BE00BF72
S31500000C80441D0020C4180020C818002008B51621ED
S31500000C90024B034A034801F0E9FB00BFC83A0000D3
S31500000CA0243B0000DC3A000008B50449044801F082
S31500000CB0F1F800B908BDFFF7E9FF00BFD03B00001F
S31500000CC09C1D00200378032B13D8DFE803F00E0ADF
S31500000CD0060201220A4B1A7070470122094B1A704C
S31500000CE070470122084B1A7070470122074B1A7091
S31500000CF0704701200649074A08701370704700BF05
S31500000D003F1D00203E1D0020401D0020411D0020EB
S31500000D103D1D00203C1D002000B583B0FFF7EEFC12
S31500000D20FFF73EFD1D4802F04DF8FFF7BDFF00F04E
S31500000D30C7F8FFF79DFCFFF7BFFCFFF70BFF00208E
S31500000D40FFF7F8FD0020FFF701FE40F2D24000F069
S31500000D5077F90126124D134C0021402380220846C4
S31500000D60CDE90056FFF776FEFFF70AFE4FF47A71DB
S31500000D70C82001F083FBFFF7A7FC10EE100A01F074
S31500000D809FFE02460B46204601F0B4FF4FF47A71EF
S31500000D904FF4967001F072FBDEE700BFF43A0000F4
S31500000DA004000020043B000010B5154C012240F25F
S31500000DB00721204600F0C2FC01210A2001F05EFB5B
S31500000DC0012240F20621204600F0B8FC01210A204B
S31500000DD001F054FB002240F20721204600F0AEFC51
S31500000DE001210A2001F04AFB40F20621204600229A
S31500000DF000F0A4FCBDE8104001210A2001F03EBB32
S31500000E00441D002070B500240646124D8022224162
S31500000E10324040F20721284600F090FC01210A20CA
S31500000E2001F02CFB012240F20621284600F086FC48
S31500000E3001210A2001F022FB002240F20621284669
S31500000E4000F07CFC013401210A2001F017FB082C7C
S31500000E50DCD170BD441D002010B5184C82B00122B3
S31500000E6040F20721204600F069FC01210A2001F02A
S31500000E7005FB012240F20621204600F05FFC01211D
S31500000E800A2001F0FBFA0DF1070240F20721204685
S31500000E9000F042FC01210A2001F0F0FA002240F2A3
S31500000EA0062120469DF8074000F048FC01210A2053
S31500000EB001F0E4FA204602B010BD00BF441D002038
S31500000EC038B5FFF771FF4820FFF79CFFFFF7C4FF17
S31500000ED05120FFF797FFFFF7BFFF002240F20721DF
S31500000EE0384800F02BFC01210A2001F0C7FA012244
S31500000EF040F20621334800F021FC01210A2001F0CE
S31500000F00BDFA012240F207212E4800F017FC01210C
S31500000F100A2001F0B3FA68252A4C012240F2072183
S31500000F20204600F00BFC01210A2001F0A7FA01225D
S31500000F3040F20621204600F001FC01210A2001F0C2
S31500000F409DFA002240F20721204600F0F7FB01211E
S31500000F500A2001F093FA002240F20621204600F012
S31500000F60EDFB01210A2001F089FA2846FFF74AFF26
S31500000F70FFF772FF0020FFF745FFFFF76DFF002226
S31500000F8040F20721204600F0D9FB01210A2001F09A
S31500000F9075FA012240F20621204600F0CFFB01211E
S31500000FA00A2001F06BFA0235012240F207212046A1
S31500000FB000F0C4FBEDB201210A2001F05FFA702DAA
S31500000FC0ABD138BD441D002038B504460D46FFF7A9
S31500000FD0EBFE04F13400400000F0FE00FFF712FFC4
S31500000FE0FFF73AFF0A2D16BF134B0020585DFFF797
S31500000FF009FFFFF731FF002240F207210F4800F0FA
S315000010009DFB01210A2001F039FA012240F2062156
S315000010100A4800F093FB01210A2001F02FFA40F262
S3150000102007210122054800F089FBBDE8384001216F
S315000010300A2001F023BA00BF303B0000441D002007
S31500001040254970B581FB0031C417C4EBA10101EB42
S3150000105081030A280E46A0EB430123DD1F4A6428BC
S31500001060A2FB06534FEAD30303EB8303A6EB430627
S31500001070F6B22CDD1A4DB0F57A7F85FB0035C4EB50
S315000010806515A2FB05324FEAD20202EB8202A5EBFE
S315000010904205EDB21EDD134B83FB0030C4EBA014FA
S315000010A0E4B202E00024254626460320C9B2FFF733
S315000010B08BFF31460220FFF787FF29460120FFF705
S315000010C083FF2146BDE870400020FFF77DBF002466
S315000010D02546EAE70024E8E767666666CDCCCCCC11
S315000010E01F85EB51D34D6210FFF716BE022800D0C4
S315000010F070470249024800F0CDBB00BFE43B000048
S31500001100441D002008B5FFF7EFFF002008BD00BF13
S3150000111010B4046AA37803F07B03A3708378046A8F
S3150000112003F00303D21A0B44C0E90332A37843F059
S315000011308003A370837803F00303022B06D0036AAF
S315000011400A780020DA705DF8044B70470B88026A53
S3150000115043F47E43D38100205DF8044B704700BF03
S31500001160F0B5846A85B005460F4694466E46B4B11E
S3150000117094E80F0086E80F00EB6920461B78A7600D
S31500001180236084F804C0EB6AE3606B6A9847AC6A34
S315000011901CB196E80F0084E80F0005B0F0BD344698
S315000011A0EAE700BF034600224FF0010C2DE9F041AB
S315000011B008781A7000F5800000F58C500002C3E92B
S315000011C007104869D44C58628D699878C3E90A2596
S315000011D06CF3010098704878904214BF654602256A
S315000011E0987865F30100987091F90B5091F80AE030
S315000011F0680905F01F0620300CFA06F644F8206050
S31500001200BFF34F8FBFF36F8FC44805F1C00650F888
S31500001210267062F3104740F8267050F82660C04EDC
S315000012204FEA0E1E67195FFA8EFE87F800E346F84E
S31500001230253091F9055091F804E06F0905F01F0873
S3150000124020370CFA08F844F82780BFF34F8FBFF316
S315000012506F8F05F1C00750F8278062F3104840F8F9
S31500001260278050F827704FEA0E1E67195FFA8EFE28
S3150000127087F800E346F8253091F9075091F806E023
S315000012806F0905F01F0820370CFA08F844F8278084
S31500001290BFF34F8FBFF36F8F05F1C00750F827805C
S315000012A062F3104840F8278050F827704FEA0E1E68
S315000012B067195FFA8EFE87F800E346F8253091F944
S315000012C0095091F808E06F0905F01F0820370CFA5D
S315000012D008F844F82780BFF34F8FBFF36F8F05F1EF
S315000012E0C00750F8278062F3104840F8278050F86E
S315000012F027004FEA0E10C0B22C4484F8000346F8CB
S315000013002530EFF310868CF310884FF000450C78EB
S315000013108448E540446824EA05044460406886F34E
S315000013201088186A8270186A0271186A4272186AFE
S315000013308272186AC272186A428340F201220878E1
S315000013400CFA00FC1CEA020F02D040201A6AD07484
S315000013500625012240F201201C6A25770C78A2405E
S31500001360024203D04FF478401A6A9082CA784878CD
S315000013708C78D200032842EA041200F0DB800028B1
S315000013800CBFE220F2201C6AD2B222701A6A907157
S31500001390C869027B082A00F0C9801C6A520002F064
S315000013A002026273002542788478D201640104F057
S315000013B02004D2B222431C6A25720478023C012C16
S315000013C01C6A40F29D80D2B2E27140681A6A847843
S315000013D054704578147865F301041470C4789474D5
S315000013E0D479007804F0A30400F05C002043D071A7
S315000013F00020C3E90300C3E90500DC69474A94F904
S315000014000540CD6904F1C00152F8216095F800C08D
S3150000141060F3104642F821600CF0030C52F82110DC
S31500001420BFF35F8F4FF0010E6109890004F01F04BE
S3150000143001F1604101F561410EFA04F4C1F8804101
S315000014400C60D96991F90B4004F1C00152F8216092
S3150000145060F3104642F8216052F82110BFF35F8F07
S315000014606109890004F01F0401F160410EFA04F4D9
S3150000147001F56141C1F880410C60D96991F90740D5
S3150000148004F1C00152F8216060F3104642F8216071
S3150000149052F82110BFF35F8F6109890004F01F0421
S315000014A001F160410EFA04F401F56141C1F8804191
S315000014B00C60D96991F9091001F1C00452F8246051
S315000014C060F3104642F8246052F82420BFF35F8F81
S315000014D04A09920001F01F0102F160420EFA01F181
S315000014E002F56142C2F8801111601A6A4CF0700C64
S315000014F082F802C069890C4A19815A60BDE8F081F8
S31500001500FF2565700078022808BF42F01002186AAD
S31500001510D2B2C2716CE700BF00E100E0006000409B
S315000015202C1E002000400840554943530A241A6ADD
S31500001530547337E7F22042F0400224E7EFF30383C7
S31500001540103B1F4A5BB203F1C00152F8210020F4A0
S31500001550803042F8210052F821201A4A52F823001E
S31500001560C3691B6983B1036903B17047026A00212D
S31500001570937803F07F0343F004039370436AC160DA
S31500001580C3B18022FFF7ECBD0369026A002BEED0DF
S315000015908378C16803F00303022B0CD00B78D37059
S315000015A08278D0E9031302F003029B1A1144C0E9C2
S315000015B00313D9E770470B8843F47E43D381EFE7E3
S315000015C0006000402C1E002010B582B0EFF30383AC
S315000015D0103B1F4A5BB203F1C00152F8210020F410
S315000015E0803042F8210052F821201A4A52F823404E
S315000015F0A27802F00303022B236A0CBF198A5979D9
S31500001600A3690CBFC1F30801C9B2019143B9636A6A
S31500001610B3B10422204602B0BDE81040FFF7A0BDDA
S3150000162002F0030201A9606901F003FDD4E9052176
S31500001630A37803F003031A44C91AC4E9052109B1C2
S3150000164002B010BD636A002BFAD00122E2E700BFA8
S31500001650006000402C1E002010B5EFF303830E4AF5
S31500001660103B5CB252F82400026A937803F07B03C5
S315000016709370436A1BB102220021FFF771FD074AEE
S3150000168004F1C00352F8231021F4803142F82310EC
S3150000169052F8233010BD00BF2C1E00200060004011
S315000016A010B5EFF303831A4A103B5CB252F82400DC
S315000016B0837803F00303022B036A0CBF198A597956
S315000016C093F804C00CBFC1F30801C9B21CF0100F97
S315000016D00CF0380206D093F81CC01CF0010F08BFAE
S315000016E042F0400293F804C00CF0C70C83F804C023
S315000016F0436A0BB1FFF734FD064A04F1C00352F802
S31500001700231021F4803142F8231052F8233010BD03
S315000017102C1E00200060004010B40B0A064C1B0172
S3150000172053FA81F154F821300020C3F340035DF8E9
S31500001730044B1370704700BF000808400120CBB26D
S31500001740984080B202B900040B0A5B0103F18043A2
S3150000175003F5002398600020704700BF2DE9F84389
S315000017600388BBB107464FF00008DFF878900024E5
S315000017701B4D4FEAC8067B6835F8022B99198988F4
S31500001780914209D00134032CF5D13B8808F10108B8
S315000017904345ECD8BDE8F8839B5904F1200203F0D9
S315000017A0B853B3F1807F19F812300CD0DB09E9D0B9
S315000017B019F81230012123F08003C82009F81230ED
S315000017C000F05CFEDEE7DB09DCD119F812300121FE
S315000017D043F08003C82009F8123000F04FFED1E72D
S315000017E0683C000000300840F8B50646FFF7B6FF33
S315000017F0EFF31082012383F31088234F3B681BB954
S315000018002249CB704023CB703B6801333B6082F3A7
S315000018101088338823B300211D4D08E01B011344B3
S3150000182045F82340328801318BB29A4218D9736841
S3150000183053F8314003EBC1029288E0034FEA1223CA
S31500001840D2B2EBD502EB031055F820E024F4803C2D
S315000018502EF4803E45F820E01B0145F820C0DEE767
S31500001860EFF31082012383F310883B6813B13B68C2
S31500001870013B3B603B681BB980200449CB70C870B4
S3150000188082F31088F8BD00BF281E0020000D084016
S315000018900008084008B5034B03600846FFF7A4FF9D
S315000018A0002008BD54524F5070B5012686B001ABDA
S315000018B003A80C4615460493ADF80C60ADF8081065
S315000018C00192FFF74BFFEFF3108286F310881D4954
S315000018D00B681BB940261C48C370C6700B680133E1
S315000018E00B6082F31088EA034FEA1423E4B219D49A
S315000018F01B01164A234442F82350EFF310820123BA
S3150000190083F310880B6813B10B68013B0B600B68FF
S315000019101BB980200C49CB70C87082F31088002058
S3150000192006B070BD094A04EB031052F820601B0193
S3150000193026F4803642F8206025F4803642F820608E
S31500001940D7E700BF281E0020000D08400008084009
S3150000195003460020D3E902235360704770B58369BC
S3150000196084B004468C46164601AD9BB193E8070049
S3150000197085E8070083F804C09E60E26918461A608D
S3150000198063699847A3691BB195E8070083E80700D8
S3150000199004B070BD2B46EDE7002800DA704710B49E
S315000019A000F160430901124CC9B203F5614383F8A3
S315000019B00013104B44F8202000F1C00253F8221007
S315000019C021F4803143F8221053F82230BFF35F8FA1
S315000019D0012243099B0000F01F0003F1604303F559
S315000019E061438240C3F880211A605DF8044B70475A
S315000019F02C1E0020006000404FF0010CF8B50B468D
S31500001A000026097C43600CFA01F1C16080F810C021
S31500001A10197C504A04460A44120282605A6942619D
S31500001A209A69C0E90662DD69EFF310878CF31088C6
S31500001A304FF00040197C484AC840116921EA00016C
S31500001A401161126987F310884FF42541A26811606D
S31500001A50A268D662A268D663A26896641878002641
S31500001A6003284FF00040197AA7684FEAC15108BF12
S31500001A7041F480315A68F962A168013A0861A168A7
S31500001A804861A1688861A1684E62A1688E62A168FA
S31500001A90A869C861A168E8690862A1688A66A16840
S31500001AA04A666268A86BD26992F83010CE0705D5EF
S31500001AB0916AA6680139F16492F83010890703D556
S31500001AC0D26AA168013A0A650122197C8A40920607
S31500001AD002D00021A26851640022A1688A63A1682D
S31500001AE0C1F88820AA6B3AB995F8212095F82010FC
S31500001AF0520742EA4132104395F830200326002A65
S31500001B0014BF4FF4A0074FF4AA070121A268176477
S31500001B10A2685063A2681663A2681163D4E9022121
S31500001B20D160597C93F912002246FFF735FF224611
S31500001B3095F8221095F92400FFF72EFF95F9250058
S31500001B40224695F82310FFF727FF044B0020236059
S31500001B50F8BD00BF901640000040084054504700B2
S31500001B60F0B5EFF30382103A214C51B201F1C00CEB
S31500001B7054F82C3023F4803344F82C308B0003F1D6
S31500001B80804303F5C043D3F800031A4850F82100F8
S31500001B90456895F800E0BEF1010F08D043692BB106
S31500001BA0BDE8F04000221146FFF7D8BEF0BD002583
S31500001BB0D0E90267B760866802F0FF02B5648668FE
S31500001BC0F5648668356554F82C6065F3104644F86C
S31500001BD02C60D3F80033BFF35F8F074C4B0902F03C
S31500001BE01F020EFA02F2603344F82320D6E700BF44
S31500001BF0006000402C1E002000E100E04FF0000CC9
S31500001C002DE9F0410126394A80F83CC0384B01469F
S31500001C10106A1B68146A82F81664C0F3026203FA3B
S31500001C2002F2344DC0F30270C4F30264C240A34012
S31500001C30AA4223FA04F355D92F4803F5742302F573
S31500001C40742203F23F2302F23F22A0FB034340F635
S31500001C50D866A0FB0202604644F2506C43F6B857C1
S31500001C6054254FF4FA2E254C920C02F5F052A4F8A6
S31500001C70E420234C9B0C03FB04F4224A03FB06F6E8
S31500001C80A2FB0484A4080C620CFB03F403FB07F715
S31500001C90A2FB0668A2FB0464A2FB077C03FB05F516
S31500001CA00EFB03FEA4084C62174CA2FB0557A2FBD1
S31500001CB00E654FEA9C0604FB03FC5B00A2FB034394
S31500001CC0A2FB0C2C9B084FEA9808BF08AD080B61D5
S31500001CD04FEA9C03C1F80C804F618D618E60CB6129
S31500001CE0BDE8F0814FF4FB70BDE8F08100E00140F3
S31500001CF0581E0020FF083D0083DE1B4300E07F40A6
S31500001D0080DE0F00ABAAAAAAA0F7030030B5436C89
S31500001D1085B004468C4601ADA3B193E8070085E87B
S31500001D200700002283F800C05A60A26C18469A6029
S31500001D30236C9847636C1BB195E8070083E807009E
S31500001D4005B030BD2B46ECE74FF42A431C49B1F8E9
S31500001D5084C0A1F88430B1F884001FFA8CFC80B2EC
S31500001D6060B14FF496420020B1F88430002A9BB24D
S31500001D7008BF4FF4FA70013A002BF5D1BCF1010F00
S31500001D800AD0BCF1800F00D0704701230D4A536082
S31500001D905368002BFCD170474DF60111084B0A4AD7
S31500001DA0A3F84410A2F804C1B2F804319BB2002B88
S31500001DB0FAD101230349A2F800318B600B6070470A
S31500001DC000E07F400070004000C0014030B482B0A7
S31500001DD081B9012443682C4D93F911305A0903F057
S31500001DE01F03203204FA03F345F82230BFF34F8F66
S31500001DF0BFF36F8FE8234FF0020C426B234D244C48
S31500001E0022632B7085F800C0036B1B882B80036947
S31500001E10019303E0019B5A1E019293B1D4F88030DE
S31500001E205B05F7D4426B036B02324263826B02336B
S31500001E30013ABCF1010F0363826306D04FF0010C37
S31500001E40E3E7142002B030BC7047D0220F4B1A7063
S31500001E5069B1D4F880301A0414D40D4A01E000297F
S31500001E60EFD0D2F8803001391B04F8D50AE0436878
S31500001E7093F91130044903F01F005A090CFA00F0D7
S31500001E8041F822000020DDE700E100E000007E408E
S31500001E9000E07F402DE9F04141600B78044653B9DC
S31500001EA0324A137613752046FFF7A8FE08B9304B61
S31500001EB02360BDE8F081002701204B68DFF8ACE025
S31500001EC02364CB686764A3648EF818000A7C91F9D2
S31500001ED01130284EDFF8A4C01201274D06EB030887
S31500001EE0D2B288F800234CF8234003F1C00255F81B
S31500001EF0228067F3104845F8228055F82220BFF368
S31500001F005F8F5A09920003F01F0302F1604200FA44
S31500001F1003F302F56142C2F88031136098238EF80C
S31500001F2014308B7C91F913201B01DBB2164486F822
S31500001F3000334CF8224002F1C00355F8231067F332
S31500001F40104145F8231055F82330BFF35F8F53092E
S31500001F509B0002F01F0203F1604300FA02F203F550
S31500001F606143C3F880211A609DE700BF00E07F400F
S31500001F704E45504F00E100E0006000402C1E00205E
S31500001F804FF4964310B483B0019343681A7802BBAA
S31500001F904AF680232B4AA2F88430B2F884309BB2EA
S31500001FA0802B08D110E0019B013B0193B2F88430ED
S31500001FB09BB2802B08D0019B002BF4D14FF4FA7012
S31500001FC003B05DF8044B7047002003B05DF8044B86
S31500001FD0704793F911301C4A03F1C00152F82140B1
S31500001FE024F4803442F8214052F82110BFF35F8F69
S31500001FF0012103F01F045B099B0003F1604303F515
S31500002000614301FA04F4C3F880411C60436893F904
S31500002010130000F1C00352F8234024F4803442F840
S31500002020234052F82330BFF35F8F43099B0000F033
S315000020301F0003F16043814003F56143C3F880113B
S315000020401960A5E700E07F400060004030B54368B6
S3150000205004461A7883B0F2B1012293F9113041484F
S31500002060590903F01F03203102FA03F340F8213027
S31500002070BFF34F8FBFF36F8F636893F9133059091E
S3150000208003F01F039A4001F1200340F82320BFF319
S315000020904F8FBFF36F8F344BB3F884309BB2002B56
S315000020A055D04FF49640B321304B2F4A019019700A
S315000020B0D2F880301B040CD406E0019B013B01934F
S315000020C0D2F880301D0404D4019B002BF5D11425D1
S315000020D007E0254B40F2F5151B7C13F0100F08BFE7
S315000020E000254FF496405021204B1F4A009019704E
S315000020F0D2F88030180414D406E0009B013B00930C
S31500002100D2F8803019040CD4009B002BF5D1B5B958
S31500002110FFF71AFE14250023284684F83C3003B046
S3150000212030BD114B1B7CDB0615D445B9FFF70CFE01
S3150000213005460023284684F83C3003B030BDFFF73F
S3150000214003FE0023284684F83C3003B030BD204609
S31500002150FFF716FFA5E7002DF1D1FFF7F5FD40F2D9
S31500002160F515D8E700E100E000E07F4000007E4082
S3150000217070B5EFF30383174917480A7C103B5CB22E
S3150000218050F824501007D1F880100AD4D3B21A069A
S315000021901CD4DB061CD511F4405F14BF07260626A7
S315000021A000E004262846FFF751FF0C4A04F1C0035D
S315000021B052F8230020F4803042F8230052F82330EE
S315000021C031462846BDE87040FFF7A0BD0526E9E781
S315000021D00726E7E700E07F402C1E00200060004055
S315000021E038B5EFF30383103B234A5BB203F1C0011A
S315000021F052F82100214C20F4803054F8234042F854
S31500002200210052F8213094F83C50012D26D0022DA1
S3150000221011D01B4B93F8D430012B14BF0225032594
S31500002220FFF792FD002384F83C3029462046BDE89E
S315000022303840FFF76BBDA56B002DF1D0D0222021D1
S31500002240206B0F4B1863A3F5F03319701A70226BCD
S31500002250A36B4032013B2263A36338BDA36B002B03
S31500002260DED000212046FFF7B1FD0028F5D020463C
S31500002270BDE83840FFF7EABE006000402C1E002093
S3150000228000E07F40064B074993F826001A6A51F88A
S315000022902030C2F302620449D3400B60704700BF8E
S315000022A000E0014080180020581E0020704700BF43
S315000022B0F8B54AF2035001234349444AA1F8FE0304
S315000022C0A2F80431B2F804319BB2002BFAD10120F6
S315000022D04FF400454FF0090C3D4CDFF80CE13D4E44
S315000022E0C4F804E03C4F0EF1376E37490EF5D83E80
S315000022F0E660C4F814E0A2F80001B8603860266011
S31500002300A560256191F82620086A54F82220334EEC
S31500002310C0F30260C240326081F8133481F8A2C073
S3150000232091F880341BB991F88134990746D0264D2F
S3150000233095F88034002B36D00022234B83F8812475
S3150000234083F880240023204981F8363091F83C3008
S31500002350DA07FBD541F2103000231B4A088581F8C5
S315000023602A3092F83C309B06FBD5032005231749FB
S31500002370F12581F81C011A49116282F8263092F87B
S315000023802630106A54F82310C0F30260C140316051
S315000023900124F0204FF42541124B1D731C72187353
S315000023A0A2F8FE13F8BD0121C82085F8801400F0BC
S315000023B065F895F88034012BFBD1BDE74FF47A70B0
S315000023C0FFF774FFBEE700BF00E0014000C0014018
S315000023D080180020002D310100700040581E00209A
S315000023E0211200200020004000127A0038B5002596
S315000023F01C4C0121C82084F8285000F03FF884F8CE
S31500002400245094F82430002BFBD194F82430154A3C
S3150000241043F0020384F8243092F82430C3F34000DA
S315000024209B07F9D40F4982F8220091F8223003F075
S31500002430FF00002BF9D191F840300A4A60F3C71328
S3150000244081F8403092F84030DB09FBD192F8420027
S31500002450044963F3C71082F8420091F84230DB0961
S31500002460FBD138BD00300840704700BF00BEFEE714
S31500002470A0F101000028FBD1704700BF1F4B204A86
S315000024801B6800FB01F1934213D302F1854202F56A
S31500002490071203F5741302F6834203F6FF03A2FB49
S315000024A003231B0DA3FB01314FF0FF30F9B1FFF7FA
S315000024B0DFBF4FF47A7210B4A1FB02C41148B0FB1F
S315000024C0F3F34FF0FF3044B9BCFBF3FC4FEA9C003A
S315000024D088B15DF8044BFFF7CBBF9B00B1FBF3F16E
S315000024E0A1FB0212002AF4D1084620B1F1E71846F2
S315000024F0002BDCD170475DF8044B7047581E002056
S3150000250000127A0000CA9A3B70B500240B4B0C4EA1
S31500002510B3F82021B3F84051ADB2154025FA04F3C3
S31500002520DB0704D556F82430E0B203B198470134EE
S31500002530102CF3D1014BA3F8305170BD0060004060
S31500002540E81D002030B5032085B000F075F80025A1
S315000025506FF0FF004FF0FF321B4B1C4C9864214676
S315000025602B464FF0010ECDE90122039231F8020FFE
S315000025700EFA03FC013310B1012522EA0C02072BE7
S31500002580F4D1F5B10192124B0F4903200A67C3F843
S315000025908022029A4A67C3F88422039A8A67C3F89C
S315000025A0882200F019F800230A4834F8022F03F1B4
S315000025B0C00101330AB140F82120072BF5D105B03F
S315000025C030BD4FF0FF32DEE700800040563C000091
S315000025D000E100E000600040EFF31081012383F387
S315000025E01088124B33F8102092B22AB133F810201B
S315000025F0013A92B223F8102033F810309BB293B907
S3150000260010B40B4A0B4CB2F8FE3334F810009BB2F0
S3150000261043F4254323EA0003A2F8FE3381F310882E
S315000026205DF8044B704781F310887047481E002000
S3150000263000E00140D83C000030B4EFF310810123E4
S3150000264083F310880E4A32F810309BB26BB90D4CEA
S315000026500D4DB4F8FE3335F810C09BB243EA0C03B7
S3150000266043F425439BB2A4F8FE3332F8103001330D
S315000026709BB222F8103081F3108830BC704700BF3F
S31500002680481E002000E00140D83C000008B5034683
S315000026900A4903330A6823F0030309481344B3F5D0
S315000026A0805F104401D80B6008BD00F0B9FC0C2215
S315000026B003461A604FF0FF3008BD00BF541E0020CD
S315000026C08004002000BE704708B500F035F8FEF71C
S315000026D019FDFEE7F8B5174F05463E68A6B17C68BA
S315000026E006EB460604EB860602E00C34B4420BD039
S315000026F0637AAB42F9D1D4E900020021121A0C34F4
S3150000270000F040FCB442F3D1BE6896B1FC6804EB1D
S31500002710061602E01034A6420BD0637BAB42F9D119
S31500002720D4E90002A168121A103400F082FCA64215
S31500002730F3D1F8BD703C00004FF47001274B284AD6
S3150000274070B50020C3F888109A60FEF7CFFCFFF73B
S31500002750AFFD0120FEF7CAFC224B83F30A88002056
S31500002760FFF7B8FFFFF78EFDFFF740FE0320FFF7E8
S3150000277063FF00234FF6FF701B4903F10802013384
S31500002780092B21F81200F8D100240320FFF724FFBB
S315000027900320FFF751FF154B03205C609C60DC6053
S315000027A01C61FFF719FF0220FEF7A0FC0120FFF7CE
S315000027B091FF0F4D0F4B5B1BA3424FEAA30605DDAE
S315000027C055F8043B01349847A642F9DCFFF7BAFEF8
S315000027D0BDE870400020FFF747BE00BF00ED00E0F7
S315000027E00000000080140020000D084000000E408C
S315000027F0703D0000743D000081F0004102E000BF22
S3150000280083F0004330B54FEA41044FEA430594EAAA
S31500002810050F08BF90EA020F1FBF54EA000C55EAE5
S31500002820020C7FEA645C7FEA655C00F0E2804FEAB6
S315000028305454D4EB5555B8BF6D420CDD2C4480EA98
S31500002840020281EA030382EA000083EA010180EAC8
S31500002850020281EA0303362D88BF30BD11F0004F16
S315000028604FEA01314FF4801C4CEA113102D040424C
S3150000287061EB410113F0004F4FEA03334CEA133387
S3150000288002D0524263EB430394EA050F00F0A7809F
S31500002890A4F10104D5F1200E0DDB02FA0EFC22FA9A
S315000028A005F2801841F1000103FA0EF2801843FA8E
S315000028B005F359410EE0A5F120050EF1200E012A7F
S315000028C003FA0EFC28BF4CF0020C43FA05F3C018BD
S315000028D051EBE37101F0004507D54FF0000EDCF136
S315000028E0000C7EEB00006EEB0101B1F5801F1BD3DF
S315000028F0B1F5001F0CD349085FEA30004FEA3C0CE3
S3150000290004F101044FEA445212F5800F80F09A80D8
S31500002910BCF1004F08BF5FEA500C50F1000041EBDC
S31500002920045141EA050130BD5FEA4C0C404141EBE0
S315000029300101013C28BFB1F5801FE9D291F0000FDB
S3150000294004BF01460020B1FA81F308BF2033A3F18A
S315000029500B03B3F120020CDA0C3208DD02F1140C81
S31500002960C2F10C0201FA0CF021FA02F10CE002F1BC
S315000029701402D8BFC2F1200C01FA02F120FA0CFCB5
S31500002980DCBF41EA0C019040E41AA2BF01EB0451FE
S31500002990294330BD6FEA04041F3C1CDA0C340EDCFC
S315000029A004F11404C4F1200220FA04F001FA02F33F
S315000029B040EA030021FA04F345EA030130BDC4F1FD
S315000029C00C04C4F1200220FA02F001FA04F340EAF2
S315000029D00300294630BD21FA04F0294630BD94F0A3
S315000029E0000F83F4801306BF81F480110134013D8A
S315000029F04EE77FEA645C18BF7FEA655C29D094EAFB
S31500002A00050F08BF90EA020F05D054EA000C04BF78
S31500002A101946104630BD91EA030F1EBF0021002063
S31500002A2030BD5FEA545C05D14000494128BF41F002
S31500002A30004130BD14F580043CBF01F5801130BD66
S31500002A4001F0004545F0FE4141F470014FF00000F1
S31500002A5030BD7FEA645C1ABF194610467FEA655CA2
S31500002A601CBF0B46024650EA013406BF52EA033544
S31500002A7091EA030F41F4002130BD00BF90F0000F32
S31500002A8004BF0021704730B54FF4806404F132046E
S31500002A904FF000054FF0000150E700BF90F0000F27
S31500002AA004BF0021704730B54FF4806404F132044E
S31500002AB010F0004548BF40424FF000013EE700BF1E
S31500002AC042004FEAE2014FEA31014FEA02701FBFAE
S31500002AD012F07F4393F07F4F81F06051704732F0E0
S31500002AE07F4208BF704793F07F4F04BF41F4002137
S31500002AF0704730B54FF4607401F0004521F0004195
S31500002B001CE700BF50EA010208BF704730B54FF01E
S31500002B1000050AE050EA010208BF704730B511F01F
S31500002B20004502D5404261EB41014FF4806404F157
S31500002B3032045FEA915C3FF4D8AE4FF003025FEADD
S31500002B40DC0C18BF03325FEADC0C18BF033202EB61
S31500002B50DC02C2F1200300FA03FC20FA02F001FABB
S31500002B6003FE40EA0E0021FA02F11444BDE600BF5E
S31500002B70002310B504468360818119464366C281ED
S31500002B8008228361C0E90033C0E904335C3000F0F9
S31500002B90F9F90D4B246263620C4BA3620C4BE362A2
S31500002BA00C4B23630C4B9C4206D003F16802944203
S31500002BB002D0D0339C4205D104F15800BDE8104044
S31500002BC000F034BA10BD00BFD52D0000F72D00006F
S31500002BD02F2E0000532E00005C1E0020024A0349DF
S31500002BE0034800F069B800BF08040020E938000077
S31500002BF01804002041680C4B994210B5044601D0D8
S31500002C0000F072FEA168094B994202D0204600F0FE
S31500002C106BFEE168064B994204D02046BDE81040A1
S31500002C2000F062BE10BD00BF5C1E0020C41E002066
S31500002C302C1F002010B50B4B04210B4C0B4A2046D1
S31500002C401A600022FFF794FF04F1680001220921AF
S31500002C50FFF78EFF04F1D00002221221BDE81040DA
S31500002C60FFF786BF941F00205C1E0020DD2B0000AE
S31500002C70014800F0DCB900BF9D1F0020014800F0AC
S31500002C80D7B900BF9D1F002010B50446FFF7F0FF1F
S31500002C90236A1BB1BDE81040FFF7F0BF044B236267
S31500002CA0044B1B68002BF5D1FFF7C4FFF2E700BF0A
S31500002CB0F52B0000941F00202DE9F84307468846AF
S31500002CC014460026D4E90195B9F1010905D5246811
S31500002CD0002CF7D13046BDE8F883AB89012B07D924
S31500002CE0B5F90E30013303D029463846C0470643AE
S31500002CF06835E9E70FB407B5064904AB086853F829
S31500002D00042B8168019300F0C3FA03B05DF804EB6D
S31500002D1004B0704714040020036A70B505460E46D9
S31500002D2084680BB9FFF7B0FF636EDB0705D4A38990
S31500002D30980502D4A06D00F07AF9A389190702D587
S31500002D402369002B35D12146284600F0C5F880B30B
S31500002D504FF0FF35636EDA0705D4A3899B0502D4CD
S31500002D60A06D00F065F9284670BD002B04DAA26953
S31500002D709A4217DC0A2915D023685A1C226019705A
S31500002D80A36816F8011F013BA3600029EDD1002BB3
S31500002D9011DA22460A21284600F05FF80130D7D022
S31500002DA00A25D7E72246284600F057F80130E7D132
S31500002DB0CEE7013EE4E723685A1C22600A221A7015
S31500002DC0EEE70000024B01461868FFF7A5BF00BFFB
S31500002DD01404002010B50C46B1F90E1000F0FCF8F2
S31500002DE00028ABBF636DA3891B1823F48053ACBFC7
S31500002DF06365A38110BD2DE9F0411F468B89054609
S31500002E000C46DB05164605D502230022B1F90E1045
S31500002E1000F0D0F8A3893246B4F90E10284623F400
S31500002E208053A3813B46BDE8F04100F0E7B810B5FA
S31500002E300C46B1F90E1000F0BDF8431CA38915BF6E
S31500002E40606523F4805343F48053A38118BFA381A4
S31500002E5010BDB1F90E1000F09DB8F8B50E46144637
S31500002E60054618B1036A0BB9FFF70EFFA369A36005
S31500002E70A3891A0701D5236943B92146284600F0DC
S31500002E802BF818B14FF0FF373846F8BD2368F6B275
S31500002E9022693746981A6369834205DC214628462B
S31500002EA000F022FD0028EDD1A368013BA360236852
S31500002EB05A1C22601E70431C62699A4204D0A38980
S31500002EC0DB07E1D50A2EDFD12146284600F00CFDAE
S31500002ED00028D9D0D6E7000038B5294B05460C4660
S31500002EE0186818B1036A0BB9FFF7CEFEB4F90C30B7
S31500002EF0190722D4DA0607D409222A6043F04003D0
S31500002F004FF0FF30A38133E0580712D5616B41B112
S31500002F1004F14403994202D0284600F097F80023B2
S31500002F206363A38923F02403A381002363602369D9
S31500002F302360A38943F00803A38123694BB9A389BE
S31500002F4003F42073B3F5007F03D02146284600F032
S31500002F5018FDB4F90C3013F001020AD00022A26069
S31500002F6062695242A261226942B913F08000C5D15A
S31500002F7038BD990758BF6269A260F4E70020F7E7F9
S31500002F801404002002440346934200D1704703F81C
S31500002F90011BF9E738B50023054D044608462B60AA
S31500002FA0FDF7DCFB431C02D12B6803B1236038BD5F
S31500002FB0981F002038B50446064D084611460022E3
S31500002FC02A601A46FDF7CEFB431C02D12B6803B1DB
S31500002FD0236038BD981F002038B50446064D0846C4
S31500002FE0114600222A601A46FDF7C0FB431C02D197
S31500002FF02B6803B1236038BD981F002038B50446FE
S31500003000064D0846114600222A601A46FDF7B6FB11
S31500003010431C02D12B6803B1236038BD981F0020E2
S31500003020014B1868704700BF1404002070477047B2
S3150000303070470A44431E914200D1704710B511F8FB
S31500003040014B914203F8014FF9D110BD38B5054641
S31500003050002941D051F8043C0C1F002BB8BFE418DE
S3150000306000F0E0F81D4A136833B96360146028461F
S31500003070BDE8384000F0DCB8A34208D92068211822
S315000030808B4201BF19685B6809182160EDE71A4693
S315000030905B680BB1A342FAD911685018A0420BD154
S315000030A020680144501811608342E0D118685B68BB
S315000030B0084453601060DAE702D90C232B60D6E788
S315000030C0206821188B4202BF19685B680918636083
S315000030D008BF21605460CAE738BD00BFA41F0020A6
S315000030E070B50F4E0C460546316811B900F0A8FCC4
S315000030F030602146284600F0A3FC431C03D14FF064
S31500003100FF34204670BDC41C24F00304A042F8D04E
S31500003110211A284600F094FC0130F2D1EFE700BFF7
S31500003120A01F00202DE9F843CD1C064625F0030517
S3150000313008350C2D38BF0C25002D01DBA94204D91A
S315000031400C2333600020BDE8F883DFF8D48000F05C
S3150000315069F8D8F800301C4644BB29463046FFF7CC
S31500003160BFFF431C044658D1D8F800402746002F1D
S3150000317043D1002C4BD023683946304604EB030973
S3150000318000F05EFC814542D1216830466D1A294621
S31500003190FFF7A6FF01303AD023682B442360D8F806
S315000031A000305A6862BBC8F800700FE02268521BF4
S315000031B020D40B2A17D96119A342256018BF59607C
S315000031C0636808BFC8F8001062514B60304600F0D3
S315000031D02FF804F10B00231D20F00700C21A1CBFB4
S315000031E01B1AA350AFE76268A3420CBFC8F80020C1
S315000031F05A60EBE723466468AEE73C467F68B6E76D
S315000032001A465B68A342FBD100235360DEE70C231A
S315000032103046336000F00CF894E70560D6E700BF4F
S31500003220A41F00200148FFF702BF00BF9C1F00201B
S315000032300148FFF7FDBE00BF9C1F00209368013BBD
S31500003240002B936010B408DA9469A34201DB0A29C3
S3150000325003D15DF8044BFFF700BE1368581C1060DD
S31500003260084619705DF8044B7047F8B506460F46D8
S315000032701446D518AC4201D1002007E03A4614F8AE
S31500003280011B3046FFF7DAFF431CF3D1F8BD0000FF
S315000032902DE9F04F0D469DB014469846064618B1E6
S315000032A0036A0BB9FFF7F0FC6B6ED90705D4AB893F
S315000032B09A0502D4A86DFFF7BAFEAB891B0701D5A4
S315000032C02B699BB929463046FFF706FE70B16B6E37
S315000032D0DC0704D54FF0FF301DB0BDE8F08FAB8999
S315000032E09805F7D4A86DFFF7A3FEF3E70023CDF802
S315000032F00C804FF00109DFF8B481099320238DF883
S31500003300293030238DF82A3023469A4613F8012BAC
S315000033100AB1252AF9D1BAEB040B0BD05B4622463B
S3150000332029463046FFF7A1FF013000F0A780099A31
S315000033305A4409929AF80030002B00F09F8000232F
S315000033404FF0FF320AF1010A049307938DF85330C8
S315000033501A93CDE9052354460522544814F8011B57
S3150000336000F07EFB049AD8B9D10644BF20238DF81D
S315000033705330130744BF2B238DF853309AF800308F
S315000033802A2B15D0079A544600204FF00A0C2146E6
S3150000339011F8013B303B092B4BD9B0B1079214E031
S315000033A0A0EB0803A24609FA03F313430493D2E7FA
S315000033B0039B191D1B68002B0391BBBF5B4242F0A8
S315000033C0020207930793B8BF049223782E2B0AD1E3
S315000033D063782A2B32D1039B02341A1D1B6843EAF9
S315000033E0E37303920593DFF8D4A0032221785046B5
S315000033F000F036FB38B1A0EB0A004022049B0134F2
S3150000340082401343049314F8011B062228488DF8C2
S31500003410281000F025FB00283FD0264B1BBB039B42
S31500003420073323F0070308330393099B3B440993AF
S315000034306AE70CFB02320C460120A8E700230134A0
S315000034404FF00A0C19460593204610F8012B303A26
S31500003450092A03D9002BC6D00591C4E70CFB01212C
S3150000346004460123F0E703AB2A4604A9304600933D
S31500003470114BAFF300800746781CD6D16B6ED90787
S3150000348005D4AB899A0502D4A86DFFF7D1FDAB89A7
S315000034905B063FF51FAF09981EE703AB2A4604A952
S315000034A030460093044B00F07DF8E4E7E23C000070
S315000034B0EC3C0000000000006B320000E83C00001D
S315000034C02DE9F047164698468A6807460B690C466A
S315000034D0DDF820909342B8BF1346336091F843203D
S315000034E00AB1013333602368990642BF3368023359
S315000034F03360256815F0060506D104F1190AE3685C
S3150000350032689B1AAB422BDC94F843302268003BAE
S3150000351018BF0123920630D404F1430241463846CF
S31500003520C847013023D023681A3454F80A2C03F014
S315000035300603042B0ABF54F80E5C002533684FF0CF
S31500003540000608BFED1A54F8123C08BF25EAE575D7
S315000035509342C4BF9B1AED18B5421AD1002008E069
S315000035600123524641463846C847013003D14FF041
S31500003570FF30BDE8F0870135C1E7E1185A1C30205D
S315000035800233224481F8430094F8451082F8431030
S31500003590C2E70123224641463846C8470130E6D0F5
S315000035A00136D9E72DE9FF470F7E914680460C4646
S315000035B0782F9A460C9E01F1430207D8622F0AD84B
S315000035C0002F00F0D180582F00F0B88004F1420699
S315000035D084F842703AE0A7F16303152BF6D801A1EF
S315000035E051F823F03D36000051360000CD3500007D
S315000035F0CD350000CD350000CD3500005136000038
S31500003600CD350000CD350000CD350000CD350000AC
S315000036104F3700007B36000009370000CD3500002B
S31500003620CD35000071370000CD3500007B36000037
S31500003630CD350000CD3500001137000033681A1D66
S315000036401B68326004F1420684F8423001239CE094
S3150000365033682068191D3160060601D51D6803E030
S315000036604506FBD5B3F90050002D03DA2D236D4234
S3150000367084F8433058480A2311E021683368080665
S3150000368053F8045B02D4490648BFADB26F2F3360CE
S31500003690514814BF0A230823002184F843106668A2
S315000036A0002EA66005DB21682E4321F0040121606F
S315000036B04BD01646B5FBF3F103FB1157C75D06F871
S315000036C0017D2F460D46BB42F4D9082B0BD123684A
S315000036D0DF0708D5236961689942DEBF302306F803
S315000036E0013C06F1FF36921B22614B4603AA214696
S315000036F04046CDF800A0FFF7E3FE01304AD14FF077
S31500003700FF3004B0BDE8F087236843F02003236050
S3150000371078273248236884F845701F06316851F8C7
S31500003720045B02D45F0648BFADB23160D90744BF1F
S3150000373043F0200323601DB11023ADE72648E9E7D7
S31500003740236823F020032360F6E71646BDE73368B7
S315000037502568181D616930602E061B6801D5196041
S3150000376002E06806FBD51980002316462361BCE7F4
S31500003770336800211A1D32601E686268304600F008
S315000037806FF908B1801B606063682361002384F8C9
S315000037904330AAE72369324649464046D0470130BE
S315000037A0ADD023689B0713D4E068039B9842B8BF4B
S315000037B01846A6E70123324649464046D04701301F
S315000037C09DD00135E36803995B1AAB42F2DCEBE767
S315000037D0002504F11906F5E7F33C0000043D00005E
S315000037E0B1F90C202DE9F041160705460C4654D4D4
S315000037F04B68002B02DC0B6C002B48DDE66A002EC2
S3150000380045D0002312F480522F68216A2B6030D0F5
S31500003810626DA389590705D56368D21A636B0BB12C
S31500003820236CD21A0023E66A216A2846B047431C55
S31500003830A38906D129681D292BD82A4ACA40D6074A
S3150000384027D50022D90462602269226004D5421C71
S3150000385001D12B6803B96065616B2F60B9B104F1C2
S315000038604403994202D02846FFF7F0FB0023636326
S315000038700DE001232846B0470246501CC9D12B68EB
S31500003880002BC6D01D2B01D0162B1DD12F6000207A
S3150000389021E043F040031BB21AE00F69002FF6D077
S315000038A093070E680F600CBF4B690023A6EB070851
S315000038B08B60B8F1000FEADD43463A46216A284696
S315000038C0A66AB047002808DCB4F90C3043F0400380
S315000038D04FF0FF30A381BDE8F0810744A8EB000854
S315000038E0E7E700BF0100402038B50B6905460C46E6
S315000038F013B90025284638BD18B1036A0BB9FFF77E
S31500003900C3F9B4F90C30002BF3D0626ED00704D49F
S31500003910990502D4A06DFFF78AFB28462146FFF7DA
S315000039205FFF636E0546DA07E4D4A3899B05E1D4FD
S31500003930A06DFFF77DFBDDE770B50C46B1F90E1003
S3150000394096B0154600291E460CDAA389002113F00D
S31500003950800F14BF40234FF48063002031602B603A
S3150000396016B070BD6A4600F049F80028EDDB0199F3
S3150000397001F47041A1F50053594259414FF4806357
S31500003980EBE78B89F7B59D0706460C4607D504F18C
S315000039904703236023610123636103B0F0BD01ABDC
S315000039A06A46FFF7C9FF009F054630463946FFF7CE
S315000039B0B9FB48B9B4F90C309A05EED423F00303E9
S315000039C043F00203A381E2E7A389206043F080036A
S315000039D0A381019BC4E904075BB1B4F90E1030461C
S315000039E000F01EF828B1A38923F0030343F0010376
S315000039F0A381A3891D43A581CFE7000038B5002325
S31500003A00064D0446084611462B60FCF7B1FE431CE2
S31500003A1002D12B6803B1236038BD00BF981F002078
S31500003A2038B50023054D044608462B60FCF7A4FE76
S31500003A30431C02D12B6803B1236038BD981F0020B8
S31500003A4038B50023054D044608462B60FEF71EFEDA
S31500003A50431C02D12B6803B1236038BD981F002098
S31500003A60C9B20346024410B59342184601D100205C
S31500003A7003E0047801338C42F6D110BD525F494F02
S31500003A80504F52545F50696E436667204661696CB9
S31500003A90656421210D0000004750494F20496E7092
S31500003AA075742052656164204661696C65642121E4
S31500003AB00D000000756172743020696E69742066AD
S31500003AC061696C65640000004653505F535543437B
S31500003AD0455353203D3D2065727200002E2E2F73F4
S31500003AE072632F666C6173682F666C6173682E63F0
S31500003AF00000000048656C6C6F20576F726C642183
S31500003B000D0000000D0A48583731312047657420F2
S31500003B10576569676874203D205B252E3266675DB0
S31500003B200D0A0000464C4153485F496E6974000017
S31500003B303F065B4F666D7D077F6F0000000000004B
S31500003B40BCBE00000A0000005E5F0000000B000023
S31500003B50C1070000000000005C3B00000000000000
S31500003B60000000000000000000000000000000004F
S31500003B700000000000000000000000000000FFFF41
S31500003B80DFDF000000000000000000000000000071
S31500003B90000000000000000000000000000200001D
S31500003BA00C010C020C030C040000000000000000D5
S31500003BB02107000000000000BC3B000000010000DF
S31500003BC0040400200F00FFFF00000000FFFF0000BC
S31500003BD001000000C50C000000000000000000000D
S31500003BE0020502060D000000F03B00000000000088
S31500003BF000000104000100000000010401010000B2
S31500003C000000010008010000000001050901000094
S31500003C10000001050A010000450C00000602000034
S31500003C20450C000007020000050C00000C02000015
S31500003C30050C00000D02000000000100000300005A
S31500003C40050C000002040000450C000007040000FB
S31500003C50450C000008040000C600800181018201B5
S31500003C608301310030000000020403040404000054
S31500003C7002000000C03C000003000000903C000071
S31500003C8001000000883C0000800400208004002021
S31500003C9000000020000000200000006000010C036E
S31500003CA000000020000000200000000800000203C1
S31500003CB000000020640400205C00000000000103F6
S31500003CC064040020800400200000000398180020EF
S31500003CD0A81F0020000000030100020008001000D9
S31500003CE02000232D302B2000686C4C00656667454C
S31500003CF0464700303132333435363738394142435E
S31500003D00444546003031323334353637383961620E
S31500003D1063646566000000004275696C742077690B
S31500003D2074682052656E6573617320416476616EB6
S31500003D3063656420466C657869626C6520536F66BE
S31500003D407477617265205061636B61676520766583
S31500003D507273696F6E20362E322E3000362E322E5A
S30D00003D6030000000000002061D
S30900003D68F8B500BFE5
S30900003D6CF8B500BFE1
S30900003D702D05000017
S30900003D74050500003B
S3090100A100FFFFFFFF58
S3090100A200FFFDFFFF59
S705000026C90B
