S00D00007363616C652E737265630F
S315000000008014002099250000D923000095250000C2
S3150000001095250000952500009525000095250000F2
S315000000200000000000000000000000009525000010
S31500000030952500000000000095250000952500008C
S31500000040311A0000991400000D1400002915000053
S3150000005071150000991400000D1400002915000008
S3110000006071150000B120000041200000D6
S3150000006C0100000040003500400035000000000093
S3150000007C03000000E01A00201C0000200000000015
S3150000008CE01A0020481B0020B01B002000000000D6
S3150000009C000000000000000000000000000000004E
S315000000AC000000000000000000000000000000003E
S315000000BC000000000000000000000000000000002E
S30D000000CC000000000000000026
S315000000D40348044B834202D0034B03B118477047CD
S315000000E4680000206800002000000000064B074955
S315000000F4C91A891048BF0131491003D0044B0BB10A
S3150000010401481847704700BF6800002068000020B7
S315000001140000000010B5064C237843B9FFF7D8FF5A
S31500000124044B13B10448AFF300800123237010BDC0
S31500000134981400200000000004A2000108B5054B35
S315000001441BB105490548AFF30080BDE80840FFF739
S31500000154CDBF00BF000000009C14002004A20001D3
S3150000016470B540F6454282B040F20D21414801F097
S3150000017401FB002876D10121052002F0E5F80122D1
S3150000018440F20D213B4801F03FFA0121084602F0F6
S31500000194DBF800224FF40371364801F035FA1022D9
S315000001A440F20D21334801F0E5FA00285ED1012121
S315000001B4052002F0C9F82F4C2F4E02E09DF8075097
S315000001C47DB140F20D2120460DF1070201F00AFA35
S315000001D40028F3D0304602F05BFD9DF80750002D51
S315000001E4EFD11824234E0BE001219DF80730084671
S315000001F403B10D4402F0A8F8621E12F0FF041DD0EC
S3150000020401224FF40371304601F0FEF9012108463C
S315000002148D4002F099F800224FF40371304601F044
S31500000224F3F940F20D2130460DF1070201F0DAF937
S315000002340028D9D0104802F02BFDD5E701224FF44F
S3150000024403710C4801F0E0F90121084602F07CF83C
S3150000025422464FF40371074801F0D6F985F40000ED
S3150000026402B070BD054802F013FD84E7034802F0AE
S315000002740FFD9CE788190020683900004C390000FE
S3150000028408B540F6454240F20D210D4801F072FAD8
S3150000029490B9012240F20D21094801F0B5F94FF455
S315000002A403710122064801F0AFF9BDE808404FF496
S315000002B47A71642002F048B8024802F0E9FCE8E7E3
S315000002C4881900204C39000008B5FFF749FF014B97
S315000002D4186008BDF814002070B5FFF741FF002828
S315000002E439D01E4A956A92F83030D46A691C03B331
S315000002F452F825601A4BA41B42F825000444A3FBBC
S315000003040150C00800EB8000A3FB0453A1EB40019D
S31500000314D4629162134ADB0812689A421BD29B1A72
S3150000032407EE903A9FED107AF8EE677A87EE870A21
S3150000033470BD42F825000A292044C2E90A1004D1F6
S3150000034401241946936282F83040B0FBF1F3054A62
S3150000035412689A42E3D39FED050A70BDC4140020C7
S31500000364CDCCCCCCF8140020F628DE4200000000E8
S3150000037438B5224C224D21782B78A279013361704D
S31500000384E27140F2013122461E482B7001F02AF92F
S3150000039440F202311B48A21D01F024F92378B3B9B7
S315000003A46378012B25D0A3791BB9E379012B1CD0E3
S315000003B438BD012BFCD1E379002BF9D12A78A37A35
S315000003C46272002BF4D04FF48073638138BD012B25
S315000003D4E9D16378002BE6D12A782379E270002BE1
S315000003E4E1D04FF48073A380DDE72A78A3722272EA
S315000003F438BD2A782371A270D5E700BFB81400204F
S31500000404B41400208819002008B50549054800F0F1
S315000004142FFE00B908BD0448BDE8084002F038BC08
S3150000042474540000B01900208439000008B5054949
S31500000434054800F01DFE00B908BD0448BDE80840A3
S3150000044402F026BCA8540000E019002098390000E8
S3150000045403790146022B0AD0042B02D0012B0AD0C1
S315000004647047064B06481A68083100F0B7BD0122EA
S31500000474044B1A707047044A13707047000000203A
S31500000484B0190020FE140020FF1400200379012B6C
S3150000049406D0022B00D070470122034B1A70704716
S315000004A4024A1370704700BFFC140020FD1400209C
S315000004B44FF0FF30704700BF4FF0FF30704700BF6A
S315000004C4002070474FF0FF30704700BF012070478F
S315000004D410B50648144600F081FD05490B78002B3B
S315000004E4FCD000230B70204610BD00BFB0190020BD
S315000004F4FE14002010B5054C0549204601F0E2F92A
S315000005042046BDE8104001F089B900BF90190020CB
S315000005141454000003793BB9044AB2F880309BB204
S3150000052483F00403A2F88030704700BF000008403F
S3150000053410B5134C01224FF48161204601F064F892
S31500000544012240F20741204601F05EF80121032012
S3150000055401F0FAFE00224FF48161204601F054F8BE
S315000005640121032001F0F0FE40F20741204600225B
S3150000057401F04AF8BDE810400121032001F0E4BE71
S315000005848819002070B508250446124E23064CBF70
S31500000594012200224FF48161304601F035F8012131
S315000005A4032001F0D1FE012240F20741304601F05A
S315000005B42BF80121032001F0C7FE002240F2074177
S315000005C4304601F021F86B1E640013F0FF05E4B217
S315000005D4DCD170BD8819002010B5104C01224FF4EF
S315000005E48161204601F010F80121032001F0ACFEE0
S315000005F4012240F20741204601F006F801210320BA
S3150000060401F0A2FE40F207412046002200F0FCFF62
S31500000614BDE810400121032001F096BE8819002090
S3150000062438B50C460546FFF783FF7820FFF7AAFF87
S31500000634FFF7D2FF0CB34020FFF7A4FFFFF7CCFF70
S315000006442846FFF79FFFFFF7C7FF00224FF481619B
S315000006540C4800F0D9FF012240F20741094800F096
S31500000664D3FF0121032001F06FFEBDE838400122CB
S315000006744FF48161034800F0C7BF2046FFF782FFAD
S31500000684DCE700BF8819002030B1012800D070478C
S315000006940021A720FFF7C4BF0146A620FFF7C0BF6D
S315000006A410B5044660B1012800D010BD0021C02059
S315000006B4FFF7B6FFBDE810400021A020FFF7B0BF4A
S315000006C40146C820FFF7ACFF2146BDE81040A12033
S315000006D4FFF7A6BF2DE9F041224F234E3D460837CA
S315000006E4C5F1B00808EB05000021C0B2FFF798FF7A
S315000006F400210846FFF794FF00211020FFF790FF22
S31500000704FFF716FF7820FFF73DFFFFF765FF402050
S31500000714FFF738FF0024FFF75FFF15F834000134B4
S31500000724FFF730FFFFF758FF802CF6D100224FF475
S315000007348161304600F068FF012240F207413046ED
S3150000074400F062FF0121032001F0FEFD01350122C4
S315000007544FF48161304600F057FFBD42C2D1BDE877
S31500000764F08100BF0015002088190020012310B570
S315000007740C4C01F0070E04EBC00C03FA0EF3C90887
S315000007841CF801C0C000DBB22AB143EA0C0C0444D5
S3150000079404F801C010BD2CEA030C044404F801C09B
S315000007A410BD00BF001500202DE9F04F203A89B096
S315000007B4082B9DF84880D4B24FEA530C00F08A8087
S315000007C413F0070218BF012202EBD30212FB0CF24C
S315000007D412F0FF0A4AD0434A434F02EB041909EBCD
S315000007E40A02DFF80CE10392404A04EB440504EBE9
S315000007F4C40402EB850A07EB450B0EEB840EA3F14A
S315000008040802059376464B46D146DA468346CDE939
S3150000081406C00492049A102A28D8DFE802F05E275C
S3150000082427274F2727274A272727272727272A0027
S31500000834059A0BF10100082ADDE900312C465FFA1E
S3150000084480FB03F101030AF1010A06F1010609F12D
S31500000854010939D0079A0698ABEB0205854208BF11
S315000008649346039A08BF21469342D3D109B0BDE803
S31500000874F08F01F10802357802922C46CDE9003159
S315000008840D469DF808700AE0424629465846FFF789
S315000008946DFF691CCDB2BD424FEA5404C8D0E307CC
S315000008A4F2D4B8FA88F2294658465209FFF75EFF91
S315000008B4EFE701F108021D780292DEE701F1080272
S315000008C499F800500292D8E7039A9342CED09AF848
S315000008D40050D2E74FF0060A7DE701F108020292C2
S315000008E4F5E700BF70470000D4510000604D0000DA
S315000008F4143A00002DE9F043154612789946A2F100
S31500000904200383B05E2B9DF8287015D804460E4646
S315000009144FEA590820464B4631460097FFF744FFF5
S3150000092415F8012FB9F1080FA2F120000CBF063407
S3150000093444445E28E4B2EDD903B0BDE8F08300BFB9
S315000009442DE9F04F83B09DF830709DF83490A7F1EF
S315000009540804B4FA84F4640973B383460E469046D5
S315000009646400013BDFF870A004EB5705DCB22346B4
S31500000974013CE4B26BB322460123013AD2B203EB43
S315000009848303FF2A4FEA4303F7D1B8FBF3F3AAFB29
S315000009940312D20802EB8202B3EB42020FD13B46AA
S315000009A4302231465846CDF80090FFF7FDFEAB44A1
S315000009B4FF2C5FFA8BFBDAD103B0BDE8F08F30323F
S315000009C43B4631465846CDF80090D2B2FFF7ECFECE
S315000009D4EDE74346DBE700BFCDCCCCCC08B501221E
S315000009E440F20741484800F00FFE01224FF48161AE
S315000009F4454800F009FE0021AE20FFF711FE002154
S31500000A040846FFF70DFE00211020FFF709FE00211E
S31500000A144020FFF705FE00218120FFF701FE00219B
S31500000A24CF20FFF7FDFD0021A120FFF7F9FD0021EE
S31500000A34C820FFF7F5FD0021A620FFF7F1FD0021F0
S31500000A44A820FFF7EDFD00213F20FFF7E9FD002177
S31500000A54D320FFF7E5FD00210846FFF7E1FD00215D
S31500000A64D520FFF7DDFD00218020FFF7D9FD002109
S31500000A74D920FFF7D5FD0021F120FFF7D1FD002194
S31500000A84DA20FFF7CDFD00211220FFF7C9FD002172
S31500000A94DB20FFF7C5FD00214020FFF7C1FD002143
S31500000AA42020FFF7BDFD00210220FFF7B9FD00213C
S31500000AB48D20FFF7B5FD00211420FFF7B1FD0021BD
S31500000AC4A420FFF7ADFD0021A620FFF7A9FD002015
S31500000AD40E4BA3F1080203F5806143F8080C0833B2
S31500000AE48B42FAD100210A4B02F20C4243F8081C4D
S31500000AF408339A42FAD1FFF7EDFDBDE8084000211C
S31500000B04AF20FFF78DBD00BF88190020081500200F
S31500000B140C15002008B51621024B034A034801F0C0
S31500000B240BFC00BFAC390000FC530000C0390000C8
S31500000B3408B50449044801F013F900B908BDFFF7E4
S31500000B44E9FF00BFDC540000101A00200378032BD1
S31500000B5413D8DFE803F00E0A060201220A4B1A70C4
S31500000B6470470122094B1A7070470122084B1A700C
S31500000B7470470122074B1A70704701200649074A3D
S31500000B8408701370704700BF831900208219002073
S31500000B94841900208519002081190020801900205D
S31500000BA4F0B52DED028B012583B0FFF72DFCFFF781
S31500000BB43DFCFFF79FFC2A4802F06AF8FFF7B8FFEE
S31500000BC400F0E4F8FFF75CFBFFF77EFBFFF706FF98
S31500000BD40020FFF759FD0020FFF762FD10231821BE
S31500000BE40020204A0095FFF785FE10231821602077
S31500000BF41D4A0095FFF77EFE1027FFF76BFD1B4C81
S31500000C041B4EFFF7B5FBFFF767FB10EE100AB0EEBD
S31500000C14408A01F0BBFE02460B46304601F0D0FF87
S31500000C24FDEEC87A17EE900A00F070F9FCEEC87A69
S31500000C3405231821382017EE902ACDE90075FFF711
S31500000C447FFEFFF747FD63791BB1FFF73DFB0023EA
S31500000C5463714FF47A71142001F076FBD1E700BF7B
S31500000C64D8390000E8390000F0390000B814002033
S31500000C74F439000010B5154C012240F20721204634
S31500000C8400F0C2FC01210A2001F05EFB012240F2C1
S31500000C940621204600F0B8FC01210A2001F054FB8D
S31500000CA4002240F20721204600F0AEFC01210A2072
S31500000CB401F04AFB40F206212046002200F0A4FC83
S31500000CC4BDE8104001210A2001F03EBB881900202E
S31500000CD470B500240646124D80222241324040F26D
S31500000CE40721284600F090FC01210A2001F02CFB84
S31500000CF4012240F20621284600F086FC01210A2042
S31500000D0401F022FB002240F20621284600F07CFC7A
S31500000D14013401210A2001F017FB082CDCD170BD37
S31500000D248819002010B5184C82B0012240F2072120
S31500000D34204600F069FC01210A2001F005FB01228E
S31500000D4440F20621204600F05FFC01210A2001F052
S31500000D54FBFA0DF1070240F20721204600F042FC9F
S31500000D6401210A2001F0F0FA002240F20621204671
S31500000D749DF8074000F048FC01210A2001F0E4FA3E
S31500000D84204602B010BD00BF8819002038B5FFF711
S31500000D9471FF4820FFF79CFFFFF7C4FF5120FFF7C0
S31500000DA497FFFFF7BFFF002240F20721384800F003
S31500000DB42BFC01210A2001F0C7FA012240F2062188
S31500000DC4334800F021FC01210A2001F0BDFA01227A
S31500000DD440F207212E4800F017FC01210A2001F0F9
S31500000DE4B3FA68252A4C012240F20721204600F076
S31500000DF40BFC01210A2001F0A7FA012240F2062188
S31500000E04204600F001FC01210A2001F09DFA00228F
S31500000E1440F20721204600F0F7FB01210A2001F0E9
S31500000E2493FA002240F20621204600F0EDFB012150
S31500000E340A2001F089FA2846FFF74AFFFFF772FFF6
S31500000E440020FFF745FFFFF76DFF002240F2072160
S31500000E54204600F0D9FB01210A2001F075FA01228F
S31500000E6440F20621204600F0CFFB01210A2001F0C2
S31500000E746BFA0235012240F20721204600F0C4FB3A
S31500000E84EDB201210A2001F05FFA702DABD138BD15
S31500000E948819002038B504460D46FFF7EBFE04F129
S31500000EA43400400000F0FE00FFF712FFFFF73AFFA0
S31500000EB40A2D16BF134B0020585DFFF709FFFFF7F5
S31500000EC431FF002240F207210F4800F09DFB01216B
S31500000ED40A2001F039FA012240F206210A4800F0FC
S31500000EE493FB01210A2001F02FFA40F20721012287
S31500000EF4054800F089FBBDE8384001210A2001F0CD
S31500000F0423BA00BF0854000088190020254970B58B
S31500000F1481FB0031C417C4EBA10101EB81030A284C
S31500000F240E46A0EB430123DD1F4A6428A2FB0653A9
S31500000F344FEAD30303EB8303A6EB4306F6B22CDD99
S31500000F441A4DB0F57A7F85FB0035C4EB6515A2FB17
S31500000F5405324FEAD20202EB8202A5EB4205EDB25C
S31500000F641EDD134B83FB0030C4EBA014E4B202E095
S31500000F740024254626460320C9B2FFF78BFF3146D7
S31500000F840220FFF787FF29460120FFF783FF21464A
S31500000F94BDE870400020FFF77DBF00242546EAE740
S31500000FA40024E8E767666666CDCCCCCC1F85EB519A
S31500000FB4D34D6210FFF7F4BD022800D070470249F2
S31500000FC4024800F0CDBB00BFF05400008819002091
S31500000FD408B5FFF7EFFF002008BD00BF10B4046A90
S31500000FE4A37803F07B03A3708378046A03F00303F6
S31500000FF4D21A0B44C0E90332A37843F08003A370EA
S31500001004837803F00303022B06D0036A0A780020D0
S31500001014DA705DF8044B70470B88026A43F47E432A
S31500001024D38100205DF8044B704700BFF0B5846A95
S3150000103485B005460F4694466E46B4B194E80F0053
S3150000104486E80F00EB6920461B78A760236084F8C6
S3150000105404C0EB6AE3606B6A9847AC6A1CB196E815
S315000010640F0084E80F0005B0F0BD3446EAE700BF80
S31500001074034600224FF0010C2DE9F04108781A705E
S3150000108400F5800000F58C500002C3E9071048699A
S31500001094D44C58628D699878C3E90A256CF301002B
S315000010A498704878904214BF65460225987865F38F
S315000010B40100987091F90B5091F80AE0680905F05F
S315000010C41F0620300CFA06F644F82060BFF34F8F53
S315000010D4BFF36F8FC44805F1C00650F8267062F35B
S315000010E4104740F8267050F82660C04E4FEA0E1E90
S315000010F467195FFA8EFE87F800E346F8253091F902
S31500001104055091F804E06F0905F01F0820370CFA22
S3150000111408F844F82780BFF34F8FBFF36F8F05F1AC
S31500001124C00750F8278062F3104840F8278050F82B
S3150000113427704FEA0E1E67195FFA8EFE87F800E3E2
S3150000114446F8253091F9075091F806E06F0905F045
S315000011541F0820370CFA08F844F82780BFF34F8F8E
S31500001164BFF36F8F05F1C00750F8278062F310486C
S3150000117440F8278050F827704FEA0E1E67195FFA69
S315000011848EFE87F800E346F8253091F9095091F868
S3150000119408E06F0905F01F0820370CFA08F844F830
S315000011A42780BFF34F8FBFF36F8F05F1C00750F849
S315000011B4278062F3104840F8278050F827004FEA4A
S315000011C40E10C0B22C4484F8000346F82530EFF321
S315000011D410868CF310884FF000450C788448E5405F
S315000011E4446824EA05044460406886F31088186A53
S315000011F48270186A0271186A4272186A8272186AD0
S31500001204C272186A428340F2012208780CFA00FC82
S315000012141CEA020F02D040201A6AD0740625012265
S3150000122440F201201C6A25770C78A240024203D0C2
S315000012344FF478401A6A9082CA7848788C78D2003B
S31500001244032842EA041200F0DB8000280CBFE220E7
S31500001254F2201C6AD2B222701A6A9071C869027BA3
S31500001264082A00F0C9801C6A520002F00202627366
S31500001274002542788478D201640104F02004D2B2B5
S3150000128422431C6A25720478023C012C1C6A40F233
S315000012949D80D2B2E27140681A6A847854704578A7
S315000012A4147865F301041470C4789474D4790078BE
S315000012B404F0A30400F05C002043D0710020C3E9CD
S315000012C40300C3E90500DC69474A94F90540CD6982
S315000012D404F1C00152F8216095F800C060F310468D
S315000012E442F821600CF0030C52F82110BFF35F8F13
S315000012F44FF0010E6109890004F01F0401F16041F9
S3150000130401F561410EFA04F4C1F880410C60D96913
S3150000131491F90B4004F1C00152F8216060F31046C4
S3150000132442F8216052F82110BFF35F8F61098900EA
S3150000133404F01F0401F160410EFA04F401F5614161
S31500001344C1F880410C60D96991F9074004F1C001E4
S3150000135452F8216060F3104642F8216052F82110D9
S31500001364BFF35F8F6109890004F01F0401F1604136
S315000013740EFA04F401F56141C1F880410C60D969A3
S3150000138491F9091001F1C00452F8246060F3104683
S3150000139442F8246052F82420BFF35F8F4A09920072
S315000013A401F01F0102F160420EFA01F102F56142F9
S315000013B4C2F8801111601A6A4CF0700C82F802C0EF
S315000013C469890C4A19815A60BDE8F081FF25657068
S315000013D40078022808BF42F01002186AD2B2C2711D
S315000013E46CE700BF00E100E000600040A01A0020A6
S315000013F400400840554943530A241A6A547337E790
S31500001404F22042F0400224E7EFF30383103B1F4A25
S315000014145BB203F1C00152F8210020F4803042F897
S31500001424210052F821201A4A52F82300C3691B6985
S3150000143483B1036903B17047026A0021937803F00C
S315000014447F0343F004039370436AC160C3B18022EF
S31500001454FFF7ECBD0369026A002BEED08378C168FE
S3150000146403F00303022B0CD00B78D3708278D0E9F7
S31500001474031302F003029B1A1144C0E90313D9E7CC
S3150000148470470B8843F47E43D381EFE70060004046
S31500001494A01A002010B582B0EFF30383103B1F4A55
S315000014A45BB203F1C00152F8210020F4803042F807
S315000014B4210052F821201A4A52F82340A27802F059
S315000014C40303022B236A0CBF198A5979A3690CBF3B
S315000014D4C1F30801C9B2019143B9636AB3B10422E5
S315000014E4204602B0BDE81040FFF7A0BD02F003029B
S315000014F401A9606901F003FDD4E90521A37803F08D
S3150000150403031A44C91AC4E9052109B102B010BD7E
S31500001514636A002BFAD00122E2E700BF00600040B4
S31500001524A01A002010B5EFF303830E4A103B5CB2F9
S3150000153452F82400026A937803F07B039370436A9B
S315000015441BB102220021FFF771FD074A04F1C00313
S3150000155452F8231021F4803142F8231052F8233034
S3150000156410BD00BFA01A00200060004010B5EFF3C4
S3150000157403831A4A103B5CB252F82400837803F0C2
S315000015840303022B036A0CBF198A597993F804C022
S315000015940CBFC1F30801C9B21CF0100F0CF03802DD
S315000015A406D093F81CC01CF0010F08BF42F040029D
S315000015B493F804C00CF0C70C83F804C0436A0BB15B
S315000015C4FFF734FD064A04F1C00352F8231021F450
S315000015D4803142F8231052F8233010BDA01A00209F
S315000015E40060004010B40B0A064C1B0153FA81F14B
S315000015F454F821300020C3F340035DF8044B137004
S31500001604704700BF000808400120CBB2984080B262
S3150000161402B900040B0A5B0103F1804303F50023BE
S3150000162498600020704700BF2DE9F8430388BBB1DA
S3150000163407464FF00008DFF8789000241B4D4FEA68
S31500001644C8067B6835F8022B99198988914209D016
S315000016540134032CF5D13B8808F101084345ECD845
S31500001664BDE8F8839B5904F1200203F0B853B3F1A3
S31500001674807F19F812300CD0DB09E9D019F8123042
S31500001684012123F08003C82009F8123000F05CFE23
S31500001694DEE7DB09DCD119F81230012143F08003BF
S315000016A4C82009F8123000F04FFED1E78C5500002F
S315000016B400300840F8B50646FFF7B6FFEFF3108290
S315000016C4012383F31088234F3B681BB92249CB704F
S315000016D44023CB703B6801333B6082F31088338828
S315000016E423B300211D4D08E01B01134445F8234094
S315000016F4328801318BB29A4218D9736853F8314053
S3150000170403EBC1029288E0034FEA1223D2B2EBD56F
S3150000171402EB031055F820E024F4803C2EF4803EBE
S3150000172445F820E01B0145F820C0DEE7EFF3108200
S31500001734012383F310883B6813B13B68013B3B608C
S315000017443B681BB980200449CB70C87082F31088AB
S31500001754F8BD00BF9C1A0020000D08400008084090
S3150000176408B5034B03600846FFF7A4FF002008BD35
S3150000177454524F5070B5012686B001AB03A80C46EF
S3150000178415460493ADF80C60ADF808100192FFF706
S315000017944BFFEFF3108286F310881D490B681BB9C3
S315000017A440261C48C370C6700B6801330B6082F375
S315000017B41088EA034FEA1423E4B219D41B01164A2B
S315000017C4234442F82350EFF31082012383F3108855
S315000017D40B6813B10B68013B0B600B681BB98020C7
S315000017E40C49CB70C87082F31088002006B070BD17
S315000017F4094A04EB031052F820601B0126F48036D4
S3150000180442F8206025F4803642F82060D7E700BF0E
S315000018149C1A0020000D08400008084003460020DA
S31500001824D3E902235360704770B5836984B00446D4
S315000018348C46164601AD9BB193E8070085E8070080
S3150000184483F804C09E60E26918461A606369984783
S31500001854A3691BB195E8070083E8070004B070BDCF
S315000018642B46EDE7002800DA704710B400F1604318
S315000018740901124CC9B203F5614383F80013104BF6
S3150000188444F8202000F1C00253F8221021F48031DC
S3150000189443F8221053F82230BFF35F8F0122430925
S315000018A49B0000F01F0003F1604303F5614382408F
S315000018B4C3F880211A605DF8044B7047A01A002013
S315000018C4006000404FF0010CF8B50B460026097C79
S315000018D443600CFA01F1C16080F810C0197C504ACB
S315000018E404460A44120282605A6942619A69C0E94E
S315000018F40662DD69EFF310878CF310884FF0004021
S31500001904197C484AC840116921EA0001116112692B
S3150000191487F310884FF42541A2681160A268D66245
S31500001924A268D663A26896641878002603284FF046
S315000019340040197AA7684FEAC15108BF41F48031C3
S315000019445A68F962A168013A0861A1684861A16808
S315000019548861A1684E62A1688E62A168A869C8619F
S31500001964A168E8690862A1688A66A1684A6662682D
S31500001974A86BD26992F83010CE0705D5916AA6688D
S315000019840139F16492F83010890703D5D26AA16847
S31500001994013A0A650122197C8A40920602D0002186
S315000019A4A26851640022A1688A63A168C1F88820EC
S315000019B4AA6B3AB995F8212095F82010520742EA05
S315000019C44132104395F830200326002A14BF4FF401
S315000019D4A0074FF4AA070121A2681764A2685063FE
S315000019E4A2681663A2681163D4E90221D160597C06
S315000019F493F912002246FFF735FF224695F8221086
S31500001A0495F92400FFF72EFF95F92500224695F84F
S31500001A142310FFF727FF044B00202360F8BD00BF07
S31500001A24901640000040084054504700F0B5EFF3CC
S31500001A340382103A214C51B201F1C00C54F82C30F7
S31500001A4423F4803344F82C308B0003F1804303F5F0
S31500001A54C043D3F800031A4850F82100456895F8A6
S31500001A6400E0BEF1010F08D043692BB1BDE8F04098
S31500001A7400221146FFF7D8BEF0BD0025D0E9026763
S31500001A84B760866802F0FF02B5648668F564866806
S31500001A94356554F82C6065F3104644F82C60D3F889
S31500001AA40033BFF35F8F074C4B0902F01F020EFA97
S31500001AB402F2603344F82320D6E700BF00600040FA
S31500001AC4A01A002000E100E04FF0000C2DE9F041DF
S31500001AD40126394A80F83CC0384B0146106A1B6817
S31500001AE4146A82F81664C0F3026203FA02F2344DF1
S31500001AF4C0F30270C4F30264C240A340AA4223FAAC
S31500001B0404F355D92F4803F5742302F5742203F21E
S31500001B143F2302F23F22A0FB034340F6D866A0FB14
S31500001B240202604644F2506C43F6B85754254FF40B
S31500001B34FA2E254C920C02F5F052A4F8E420234C1C
S31500001B449B0C03FB04F4224A03FB06F6A2FB048463
S31500001B54A4080C620CFB03F403FB07F7A2FB06685C
S31500001B64A2FB0464A2FB077C03FB05F50EFB03FE44
S31500001B74A4084C62174CA2FB0557A2FB0E654FEA5C
S31500001B849C0604FB03FC5B00A2FB0343A2FB0C2C98
S31500001B949B084FEA9808BF08AD080B614FEA9C03FF
S31500001BA4C1F80C804F618D618E60CB61BDE8F08118
S31500001BB44FF4FB70BDE8F08100E00140DC1A002020
S31500001BC4FF083D0083DE1B4300E07F4080DE0F00FC
S31500001BD4ABAAAAAAA0F7030030B5436C85B00446A5
S31500001BE48C4601ADA3B193E8070085E807000022FF
S31500001BF483F800C05A60A26C18469A60236C984712
S31500001C04636C1BB195E8070083E8070005B030BD97
S31500001C142B46ECE74FF42A431C49B1F884C0A1F8DB
S31500001C248430B1F884001FFA8CFC80B260B14FF4A2
S31500001C3496420020B1F88430002A9BB208BF4FF4C4
S31500001C44FA70013A002BF5D1BCF1010F0AD0BCF1B0
S31500001C54800F00D0704701230D4A53605368002B50
S31500001C64FCD170474DF60111084B0A4AA3F84410FB
S31500001C74A2F804C1B2F804319BB2002BFAD10123B5
S31500001C840349A2F800318B600B60704700E07F4087
S31500001C940070004000C0014030B482B081B9012414
S31500001CA443682C4D93F911305A0903F01F0320326F
S31500001CB404FA03F345F82230BFF34F8FBFF36F8F57
S31500001CC4E8234FF0020C426B234D244C22632B7005
S31500001CD485F800C0036B1B882B800369019303E01E
S31500001CE4019B5A1E019293B1D4F880305B05F7D458
S31500001CF4426B036B02324263826B0233013ABCF1DC
S31500001D04010F0363826306D04FF0010CE3E714204E
S31500001D1402B030BC7047D0220F4B1A7069B1D4F8A8
S31500001D2480301A0414D40D4A01E00029EFD0D2F809
S31500001D34803001391B04F8D50AE0436893F9113061
S31500001D44044903F01F005A090CFA00F041F8220076
S31500001D540020DDE700E100E000007E4000E07F4077
S31500001D642DE9F04141600B78044653B9324A1376A3
S31500001D7413752046FFF7A8FE08B9304B2360BDE86B
S31500001D84F081002701204B68DFF8ACE02364CB68C0
S31500001D946764A3648EF818000A7C91F91130284E02
S31500001DA4DFF8A4C01201274D06EB0308D2B288F867
S31500001DB400234CF8234003F1C00255F8228067F350
S31500001DC4104845F8228055F82220BFF35F8F5A0940
S31500001DD4920003F01F0302F1604200FA03F302F5D6
S31500001DE46142C2F88031136098238EF814308B7CDC
S31500001DF491F913201B01DBB2164486F800334CF824
S31500001E04224002F1C00355F8231067F3104145F848
S31500001E14231055F82330BFF35F8F53099B0002F05C
S31500001E241F0203F1604300FA02F203F56143C3F8AB
S31500001E3480211A609DE700BF00E07F404E45504F69
S31500001E4400E100E000600040A01A00204FF4964331
S31500001E5410B483B0019343681A7802BB4AF6802310
S31500001E642B4AA2F88430B2F884309BB2802B08D176
S31500001E7410E0019B013B0193B2F884309BB2802BA6
S31500001E8408D0019B002BF4D14FF4FA7003B05DF82F
S31500001E94044B7047002003B05DF8044B704793F978
S31500001EA411301C4A03F1C00152F8214024F4803455
S31500001EB442F8214052F82110BFF35F8F012103F04D
S31500001EC41F045B099B0003F1604303F5614301FAB8
S31500001ED404F4C3F880411C60436893F9130000F1CD
S31500001EE4C00352F8234024F4803442F8234052F8C5
S31500001EF42330BFF35F8F43099B0000F01F0003F1FB
S31500001F046043814003F56143C3F880111960A5E776
S31500001F1400E07F400060004030B5436804461A780C
S31500001F2483B0F2B1012293F911304148590903F003
S31500001F341F03203102FA03F340F82130BFF34F8F19
S31500001F44BFF36F8F636893F91330590903F01F03C6
S31500001F549A4001F1200340F82320BFF34F8FBFF3CB
S31500001F646F8F344BB3F884309BB2002B55D04FF4AB
S31500001F749640B321304B2F4A01901970D2F8803025
S31500001F841B040CD406E0019B013B0193D2F880307C
S31500001F941D0404D4019B002BF5D1142507E0254B21
S31500001FA440F2F5151B7C13F0100F08BF00254FF403
S31500001FB496405021204B1F4A00901970D2F8803069
S31500001FC4180414D406E0009B013B0093D2F8803039
S31500001FD419040CD4009B002BF5D1B5B9FFF71AFEF2
S31500001FE414250023284684F83C3003B030BD114B39
S31500001FF41B7CDB0615D445B9FFF70CFE054600230A
S31500002004284684F83C3003B030BDFFF703FE0023B6
S31500002014284684F83C3003B030BD2046FFF716FF4F
S31500002024A5E7002DF1D1FFF7F5FD40F2F515D8E748
S3150000203400E100E000E07F4000007E4070B5EFF371
S315000020440383174917480A7C103B5CB250F82450A6
S315000020541007D1F880100AD4D3B21A061CD4DB06B2
S315000020641CD511F4405F14BF0726062600E004269B
S315000020742846FFF751FF0C4A04F1C00352F8230027
S3150000208420F4803042F8230052F8233031462846A3
S31500002094BDE87040FFF7A0BD0526E9E70726E7E798
S315000020A400E07F40A01A00200060004038B5EFF33E
S315000020B40383103B234A5BB203F1C00152F82100AB
S315000020C4214C20F4803054F8234042F8210052F881
S315000020D4213094F83C50012D26D0022D11D01B4BF3
S315000020E493F8D430012B14BF02250325FFF792FD84
S315000020F4002384F83C3029462046BDE83840FFF7E3
S315000021046BBDA56B002DF1D0D0222021206B0F4B87
S315000021141863A3F5F03319701A70226BA36B40325F
S31500002124013B2263A36338BDA36B002BDED00021E1
S315000021342046FFF7B1FD0028F5D02046BDE838401B
S31500002144FFF7EABE00600040A01A002000E07F40CE
S31500002154064B074993F826001A6A51F82030C2F351
S3150000216402620449D3400B60704700BF00E001409F
S3150000217480140020DC1A0020704700BFF8B54AF22C
S31500002184035001234349444AA1F8FE03A2F804314B
S31500002194B2F804319BB2002BFAD101204FF400456A
S315000021A44FF0090C3D4CDFF80CE13D4EC4F804E059
S315000021B43C4F0EF1376E37490EF5D83EE660C4F84B
S315000021C414E0A2F80001B86038602660A5602561B5
S315000021D491F82620086A54F82220334EC0F3026090
S315000021E4C240326081F8133481F8A2C091F8803479
S315000021F41BB991F88134990746D0264D95F8803459
S31500002204002B36D00022234B83F8812483F88024C4
S315000022140023204981F8363091F83C30DA07FBD5A3
S3150000222441F2103000231B4A088581F82A3092F8BF
S315000022343C309B06FBD5032005231749F12581F87D
S315000022441C011A49116282F8263092F82630106A67
S3150000225454F82310C0F30260C14031600124F02019
S315000022644FF42541124B1D731C721873A2F8FE130A
S31500002274F8BD0121C82085F8801400F065F895F8AA
S315000022848034012BFBD1BDE74FF47A70FFF774FF5E
S31500002294BEE700BF00E0014000C0014080140020FA
S315000022A4002D310100700040DC1A002021120020AC
S315000022B40020004000127A0038B500251C4C01218C
S315000022C4C82084F8285000F03FF884F8245094F885
S315000022D42430002BFBD194F82430154A43F0020332
S315000022E484F8243092F82430C3F340009B07F9D4D1
S315000022F40F4982F8220091F8223003F0FF00002BE8
S31500002304F9D191F840300A4A60F3C71381F8403096
S3150000231492F84030DB09FBD192F84200044963F39A
S31500002324C71082F8420091F84230DB09FBD138BD70
S3150000233400300840704700BF00BEFEE7A0F1010070
S315000023440028FBD1704700BF1F4B204A1B6800FBC7
S3150000235401F1934213D302F1854202F5071203F504
S31500002364741302F6834203F6FF03A2FB03231B0D39
S31500002374A3FB01314FF0FF30F9B1FFF7DFBF4FF494
S315000023847A7210B4A1FB02C41148B0FBF3F34FF008
S31500002394FF3044B9BCFBF3FC4FEA9C0088B15DF8FE
S315000023A4044BFFF7CBBF9B00B1FBF3F1A1FB021279
S315000023B4002AF4D1084620B1F1E71846002BDCD1F7
S315000023C470475DF8044B7047DC1A002000127A004F
S315000023D400CA9A3B70B500240B4B0C4EB3F820216F
S315000023E4B3F84051ADB2154025FA04F3DB0704D522
S315000023F456F82430E0B203B198470134102CF3D1D7
S31500002404014BA3F8305170BD006000405C1A0020F7
S3150000241430B5032085B000F075F800256FF0FF0194
S315000024244FF0FF301B4B1C4C996422462B464FF051
S31500002434010ECDE90100039032F8021B0EFA03FCEB
S31500002444013311B1012520EA0C000B2BF4D1F5B1AF
S315000024540190124B0F4A1067C3F8800202990320B9
S315000024645167C3F8841203999167C3F8881200F080
S3150000247419F800230A4834F8022B03F1C00101338A
S315000024840AB140F821200B2BF5D105B030BD4FF031
S31500002494FF30DEE7008000407455000000E100E0F4
S315000024A400600040EFF31081012383F31088124B80
S315000024B433F8102092B22AB133F81020013A92B2BE
S315000024C423F8102033F810309BB293B910B40B4A9A
S315000024D40B4CB2F8FE3334F810009BB243F4254398
S315000024E423EA0003A2F8FE3381F310885DF8044B57
S315000024F4704781F310887047CC1A002000E0014031
S31500002504FC55000030B4EFF31081012383F31088E7
S315000025140E4A32F810309BB26BB90D4C0D4DB4F81F
S31500002524FE3335F810C09BB243EA0C0343F425434B
S315000025349BB2A4F8FE3332F8103001339BB222F872
S31500002544103081F3108830BC704700BFCC1A0020CD
S3150000255400E00140FC55000008B503460A49033370
S315000025640A6823F0030309481344B3F5805F104453
S3150000257401D80B6008BD00F0B9FC0C2203461A60B2
S315000025844FF0FF3008BD00BFD81A0020800000209D
S3150000259400BE704708B500F035F8FEF719FDFEE7F2
S315000025A4F8B5174F05463E68A6B17C6806EB4606A5
S315000025B404EB860602E00C34B4420BD0637AAB42D9
S315000025C4F9D1D4E900020021121A0C3400F040FCBF
S315000025D4B442F3D1BE6896B1FC6804EB061602E079
S315000025E41034A6420BD0637BAB42F9D1D4E9000286
S315000025F4A168121A103400F082FCA642F3D1F8BD89
S31500002604945500004FF47001274B284A70B50020FA
S31500002614C3F888109A60FEF7CFFCFFF7AFFD0120E0
S31500002624FEF7CAFC224B83F30A880020FFF7B8FFA3
S31500002634FFF78EFDFFF740FE0320FFF763FF00233D
S315000026444FF6FF701B4903F108020133092B21F8E9
S315000026541200F8D100240320FFF724FF0320FFF71C
S3150000266451FF154B03205C609C60DC601C61FFF726
S3150000267419FF0220FEF7A0FC0120FFF791FF0F4D82
S315000026840F4B5B1BA3424FEAA30605DD55F8043B3B
S3150000269401349847A642F9DCFFF7BAFEBDE870405C
S315000026A40020FFF747BE00BF00ED00E00000000079
S315000026B480100020000D084000000E4094560000D3
S315000026C49856000081F0004102E000BF83F0004309
S315000026D430B54FEA41044FEA430594EA050F08BFB3
S315000026E490EA020F1FBF54EA000C55EA020C7FEA77
S315000026F4645C7FEA655C00F0E2804FEA5454D4EBF4
S315000027045555B8BF6D420CDD2C4480EA020281EABD
S31500002714030382EA000083EA010180EA020281EAF5
S315000027240303362D88BF30BD11F0004F4FEA013147
S315000027344FF4801C4CEA113102D0404261EB410156
S3150000274413F0004F4FEA03334CEA133302D05242DC
S3150000275463EB430394EA050F00F0A780A4F1010498
S31500002764D5F1200E0DDB02FA0EFC22FA05F28018D2
S3150000277441F1000103FA0EF2801843FA05F35941B8
S315000027840EE0A5F120050EF1200E012A03FA0EFC37
S3150000279428BF4CF0020C43FA05F3C01851EBE37161
S315000027A401F0004507D54FF0000EDCF1000C7EEB7E
S315000027B400006EEB0101B1F5801F1BD3B1F5001FBC
S315000027C40CD349085FEA30004FEA3C0C04F10104DB
S315000027D44FEA445212F5800F80F09A80BCF1004F04
S315000027E408BF5FEA500C50F1000041EB045141EA86
S315000027F4050130BD5FEA4C0C404141EB0101013C4F
S3150000280428BFB1F5801FE9D291F0000F04BF01463D
S315000028140020B1FA81F308BF2033A3F10B03B3F10F
S3150000282420020CDA0C3208DD02F1140CC2F10C029F
S3150000283401FA0CF021FA02F10CE002F11402D8BFFD
S31500002844C2F1200C01FA02F120FA0CFCDCBF41EAC9
S315000028540C019040E41AA2BF01EB0451294330BD98
S315000028646FEA04041F3C1CDA0C340EDC04F1140475
S31500002874C4F1200220FA04F001FA02F340EA03004C
S3150000288421FA04F345EA030130BDC4F10C04C4F192
S31500002894200220FA02F001FA04F340EA0300294672
S315000028A430BD21FA04F0294630BD94F0000F83F4BC
S315000028B4801306BF81F480110134013D4EE77FEA9F
S315000028C4645C18BF7FEA655C29D094EA050F08BFEB
S315000028D490EA020F05D054EA000C04BF19461046CC
S315000028E430BD91EA030F1EBF0021002030BD5FEA10
S315000028F4545C05D14000494128BF41F0004130BD38
S3150000290414F580043CBF01F5801130BD01F000458B
S3150000291445F0FE4141F470014FF0000030BD7FEAFE
S31500002924645C1ABF194610467FEA655C1CBF0B46F9
S31500002934024650EA013406BF52EA033591EA030F10
S3150000294441F4002130BD00BF90F0000F04BF002108
S31500002954704730B54FF4806404F132044FF000053B
S315000029644FF0000150E700BF90F0000F04BF0021B4
S31500002974704730B54FF4806404F1320410F000451A
S3150000298448BF40424FF000013EE700BF42004FEA15
S31500002994E2014FEA31014FEA02701FBF12F07F4392
S315000029A493F07F4F81F06051704732F07F4208BF49
S315000029B4704793F07F4F04BF41F40021704730B550
S315000029C44FF4607401F0004521F000411CE700BF9C
S315000029D450EA010208BF704730B54FF000050AE01F
S315000029E450EA010208BF704730B511F0004502D520
S315000029F4404261EB41014FF4806404F132045FEA22
S31500002A04915C3FF4D8AE4FF003025FEADC0C18BFCA
S31500002A1403325FEADC0C18BF033202EBDC02C2F1BC
S31500002A24200300FA03FC20FA02F001FA03FE40EA4E
S31500002A340E0021FA02F11444BDE600BF002310B5CE
S31500002A4404468360818119464366C28108228361F4
S31500002A54C0E90033C0E904335C3000F0F9F90D4BEA
S31500002A64246263620C4BA3620C4BE3620C4B23633C
S31500002A740C4B9C4206D003F16802944202D0D03338
S31500002A849C4205D104F15800BDE8104000F034BA68
S31500002A9410BD00BFA52C0000C72C0000FF2C0000B1
S31500002AA4232D0000E01A0020024A0349034800F0DF
S31500002AB469B800BF0C000020B93700001C000020D4
S31500002AC441680C4B994210B5044601D000F072FEE1
S31500002AD4A168094B994202D0204600F06BFEE168DA
S31500002AE4064B994204D02046BDE8104000F062BE71
S31500002AF410BD00BFE01A0020481B0020B01B0020B8
S31500002B0410B50B4B04210B4C0B4A20461A600022CD
S31500002B14FFF794FF04F1680001220921FFF78EFFF5
S31500002B2404F1D00002221221BDE81040FFF786BF4F
S31500002B34181C0020E01A0020AD2A0000014800F00D
S31500002B44DCB900BF211C0020014800F0D7B900BF42
S31500002B54211C002010B50446FFF7F0FF236A1BB1C1
S31500002B64BDE81040FFF7F0BF044B2362044B1B681B
S31500002B74002BF5D1FFF7C4FFF2E700BFC52A00001A
S31500002B84181C00202DE9F8430746884614460026FB
S31500002B94D4E90195B9F1010905D52468002CF7D1CA
S31500002BA43046BDE8F883AB89012B07D9B5F90E3059
S31500002BB4013303D029463846C04706436835E9E75A
S31500002BC40FB407B5064904AB086853F8042B8168AB
S31500002BD4019300F0C3FA03B05DF804EB04B0704748
S31500002BE418000020036A70B505460E4684680BB9C2
S31500002BF4FFF7B0FF636EDB0705D4A389980502D4FB
S31500002C04A06D00F07AF9A389190702D52369002B70
S31500002C1435D12146284600F0C5F880B34FF0FF357C
S31500002C24636EDA0705D4A3899B0502D4A06D00F070
S31500002C3465F9284670BD002B04DAA2699A4217DCAE
S31500002C440A2915D023685A1C22601970A36816F83D
S31500002C54011F013BA3600029EDD1002B11DA2246A6
S31500002C640A21284600F05FF80130D7D00A25D7E7B5
S31500002C742246284600F057F80130E7D1CEE7013E58
S31500002C84E4E723685A1C22600A221A70EEE7000061
S31500002C94024B01461868FFF7A5BF00BF18000020C5
S31500002CA410B50C46B1F90E1000F0FCF80028ABBFC5
S31500002CB4636DA3891B1823F48053ACBF6365A3819A
S31500002CC410BD2DE9F0411F468B8905460C46DB05F0
S31500002CD4164605D502230022B1F90E1000F0D0F8ED
S31500002CE4A3893246B4F90E10284623F48053A381EF
S31500002CF43B46BDE8F04100F0E7B810B50C46B1F923
S31500002D040E1000F0BDF8431CA38915BF606523F4BB
S31500002D14805343F48053A38118BFA38110BDB1F936
S31500002D240E1000F09DB8F8B50E461446054618B1C7
S31500002D34036A0BB9FFF70EFFA369A360A3891A07F9
S31500002D4401D5236943B92146284600F02BF818B16A
S31500002D544FF0FF373846F8BD2368F6B22269374686
S31500002D64981A6369834205DC2146284600F022FD51
S31500002D740028EDD1A368013BA36023685A1C226096
S31500002D841E70431C62699A4204D0A389DB07E1D50D
S31500002D940A2EDFD12146284600F00CFD0028D9D0A2
S31500002DA4D6E7000038B5294B05460C46186818B115
S31500002DB4036A0BB9FFF7CEFEB4F90C30190722D417
S31500002DC4DA0607D409222A6043F040034FF0FF30A5
S31500002DD4A38133E0580712D5616B41B104F1440372
S31500002DE4994202D0284600F097F800236363A3892A
S31500002DF423F02403A3810023636023692360A3894A
S31500002E0443F00803A38123694BB9A38903F4207310
S31500002E14B3F5007F03D02146284600F018FDB4F927
S31500002E240C3013F001020AD00022A26062695242F9
S31500002E34A261226942B913F08000C5D138BD990751
S31500002E4458BF6269A260F4E70020F7E71800002083
S31500002E5402440346934200D1704703F8011BF9E785
S31500002E6438B50023054D044608462B60FDF720FBC4
S31500002E74431C02D12B6803B1236038BD1C1C0020FF
S31500002E8438B50446064D0846114600222A601A46FD
S31500002E94FDF712FB431C02D12B6803B1236038BD36
S31500002EA41C1C002038B50446064D0846114600226F
S31500002EB42A601A46FDF704FB431C02D12B6803B1B2
S31500002EC4236038BD1C1C002038B50446064D084650
S31500002ED4114600222A601A46FDF7FAFA431C02D16B
S31500002EE42B6803B1236038BD1C1C0020014B1868F5
S31500002EF4704700BF180000207047704770470A44A7
S31500002F04431E914200D1704710B511F8014B91420E
S31500002F1403F8014FF9D110BD38B50546002941D053
S31500002F2451F8043C0C1F002BB8BFE41800F0E0F87D
S31500002F341D4A136833B9636014602846BDE83840F7
S31500002F4400F0DCB8A34208D9206821188B4201BFDF
S31500002F5419685B6809182160EDE71A465B680BB1CE
S31500002F64A342FAD911685018A0420BD12068014433
S31500002F74501811608342E0D118685B6808445360B6
S31500002F841060DAE702D90C232B60D6E720682118F3
S31500002F948B4202BF19685B680918636008BF216029
S31500002FA45460CAE738BD00BF281C002070B50F4E18
S31500002FB40C460546316811B900F0A8FC306021467C
S31500002FC4284600F0A3FC431C03D14FF0FF342046EF
S31500002FD470BDC41C24F00304A042F8D0211A28466C
S31500002FE400F094FC0130F2D1EFE700BF241C00206E
S31500002FF42DE9F843CD1C064625F0030508350C2DAE
S3150000300438BF0C25002D01DBA94204D90C233360FB
S315000030140020BDE8F883DFF8D48000F069F8D8F81A
S3150000302400301C4644BB29463046FFF7BFFF431C0D
S31500003034044658D1D8F800402746002F43D1002C27
S315000030444BD023683946304604EB030900F05EFC96
S31500003054814542D1216830466D1A2946FFF7A6FFFD
S3150000306401303AD023682B442360D8F800305A68DC
S3150000307462BBC8F800700FE02268521B20D40B2AEA
S3150000308417D96119A342256018BF5960636808BF40
S31500003094C8F8001062514B60304600F02FF804F176
S315000030A40B00231D20F00700C21A1CBF1B1AA350D5
S315000030B4AFE76268A3420CBFC8F800205A60EBE78A
S315000030C423466468AEE73C467F68B6E71A465B6803
S315000030D4A342FBD100235360DEE70C233046336062
S315000030E400F00CF894E70560D6E700BF281C002022
S315000030F40148FFF702BF00BF201C00200148FFF76C
S31500003104FDBE00BF201C00209368013B002B93608A
S3150000311410B408DA9469A34201DB0A2903D15DF8E5
S31500003124044BFFF700BE1368581C1060084619705C
S315000031345DF8044B7047F8B506460F461446D51895
S31500003144AC4201D1002007E03A4614F8011B304690
S31500003154FFF7DAFF431CF3D1F8BD00002DE9F04F69
S315000031640D469DB014469846064618B1036A0BB937
S31500003174FFF7F0FC6B6ED90705D4AB899A0502D428
S31500003184A86DFFF7BAFEAB891B0701D52B699BB95E
S3150000319429463046FFF706FE70B16B6EDC0704D590
S315000031A44FF0FF301DB0BDE8F08FAB899805F7D41A
S315000031B4A86DFFF7A3FEF3E70023CDF80C804FF0CC
S315000031C40109DFF8B481099320238DF829303023CF
S315000031D48DF82A3023469A4613F8012B0AB1252A7C
S315000031E4F9D1BAEB040B0BD05B462246294630468E
S315000031F4FFF7A1FF013000F0A780099A5A4409920B
S315000032049AF80030002B00F09F8000234FF0FF3225
S315000032140AF1010A049307938DF853301A93CDE902
S31500003224052354460522544814F8011B00F07EFB7E
S31500003234049AD8B9D10644BF20238DF85330130716
S3150000324444BF2B238DF853309AF800302A2B15D01F
S31500003254079A544600204FF00A0C214611F8013B08
S31500003264303B092B4BD9B0B1079214E0A0EB08030D
S31500003274A24609FA03F313430493D2E7039B191DE9
S315000032841B68002B0391BBBF5B4242F0020207930B
S315000032940793B8BF049223782E2B0AD163782A2B7E
S315000032A432D1039B02341A1D1B6843EAE37303926B
S315000032B40593DFF8D4A003222178504600F036FBAC
S315000032C438B1A0EB0A004022049B01348240134328
S315000032D4049314F8011B062228488DF8281000F0E0
S315000032E425FB00283FD0264B1BBB039B073323F04B
S315000032F4070308330393099B3B4409936AE70CFBD2
S3150000330402320C460120A8E7002301344FF00A0CD0
S3150000331419460593204610F8012B303A092A03D999
S31500003324002BC6D00591C4E70CFB012104460123FA
S31500003334F0E703AB2A4604A930460093114BAFF3DA
S3150000334400800746781CD6D16B6ED90705D4AB89A5
S315000033549A0502D4A86DFFF7D1FDAB895B063FF54C
S315000033641FAF09981EE703AB2A4604A9304600930B
S31500003374044B00F07DF8E4E7065600001056000002
S31500003384000000003B3100000C5600002DE9F04718
S31500003394164698468A6807460B690C46DDF820905F
S315000033A49342B8BF1346336091F843200AB1013300
S315000033B433602368990642BF336802333360256855
S315000033C415F0060506D104F1190AE36832689B1A5A
S315000033D4AB422BDC94F843302268003B18BF012330
S315000033E4920630D404F1430241463846C8470130B8
S315000033F423D023681A3454F80A2C03F00603042B4A
S315000034040ABF54F80E5C002533684FF0000608BF67
S31500003414ED1A54F8123C08BF25EAE5759342C4BF79
S315000034249B1AED18B5421AD1002008E00123524632
S3150000343441463846C847013003D14FF0FF30BDE856
S31500003444F0870135C1E7E1185A1C302002332244C3
S3150000345481F8430094F8451082F84310C2E701232B
S31500003464224641463846C8470130E6D00136D9E7F8
S315000034742DE9FF470F7E914680460C46782F9A46E3
S315000034840C9E01F1430207D8622F0AD8002F00F0E0
S31500003494D180582F00F0B88004F1420684F84270B7
S315000034A43AE0A7F16303152BF6D801A151F823F0EE
S315000034B40D350000213500009D3400009D340000C8
S315000034C49D3400009D340000213500009D34000029
S315000034D49D3400009D3400009D3400001F3600001A
S315000034E44B350000D93500009D3400009D340000A2
S315000034F4413600009D3400004B3500009D34000029
S315000035049D340000E135000033681A1D1B683260E3
S3150000351404F1420684F8423001239CE033682068B3
S31500003524191D3160060601D51D6803E04506FBD565
S31500003534B3F90050002D03DA2D236D4284F843308D
S3150000354458480A2311E021683368080653F8045BD7
S3150000355402D4490648BFADB26F2F3360514814BF39
S315000035640A230823002184F843106668002EA66007
S3150000357405DB21682E4321F0040121604BD0164659
S31500003584B5FBF3F103FB1157C75D06F8017D2F4622
S315000035940D46BB42F4D9082B0BD12368DF0708D5A7
S315000035A4236961689942DEBF302306F8013C06F1BF
S315000035B4FF36921B22614B4603AA21464046CDF8AC
S315000035C400A0FFF7E3FE01304AD14FF0FF3004B00C
S315000035D4BDE8F087236843F0200323607827324848
S315000035E4236884F845701F06316851F8045B02D4D9
S315000035F45F0648BFADB23160D90744BF43F020032C
S3150000360423601DB11023ADE72648E9E7236823F0BC
S3150000361420032360F6E71646BDE733682568181DC0
S31500003624616930602E061B6801D5196002E06806E0
S31500003634FBD51980002316462361BCE733680021B5
S315000036441A1D32601E686268304600F06FF908B1D0
S31500003654801B606063682361002384F84330AAE713
S315000036642369324649464046D0470130ADD02368E7
S315000036749B0713D4E068039B9842B8BF1846A6E795
S315000036840123324649464046D04701309DD0013594
S31500003694E36803995B1AAB42F2DCEBE7002504F11D
S315000036A41906F5E71756000028560000B1F90C2054
S315000036B42DE9F041160705460C4654D44B68002BF9
S315000036C402DC0B6C002B48DDE66A002E45D0002395
S315000036D412F480522F68216A2B6030D0626DA38960
S315000036E4590705D56368D21A636B0BB1236CD21ADA
S315000036F40023E66A216A2846B047431CA38906D1FB
S3150000370429681D292BD82A4ACA40D60727D500225C
S31500003714D90462602269226004D5421C01D12B6857
S3150000372403B96065616B2F60B9B104F14403994232
S3150000373402D02846FFF7F0FB002363630DE0012364
S315000037442846B0470246501CC9D12B68002BC6D068
S315000037541D2B01D0162B1DD12F60002021E043F034
S3150000376440031BB21AE00F69002FF6D093070E68C8
S315000037740F600CBF4B690023A6EB07088B60B8F1FA
S31500003784000FEADD43463A46216A2846A66AB04750
S31500003794002808DCB4F90C3043F040034FF0FF3046
S315000037A4A381BDE8F0810744A8EB0008E7E700BF62
S315000037B40100402038B50B6905460C4613B90025AF
S315000037C4284638BD18B1036A0BB9FFF7C3F9B4F933
S315000037D40C30002BF3D0626ED00704D4990502D4C2
S315000037E4A06DFFF78AFB28462146FFF75FFF636E4D
S315000037F40546DA07E4D4A3899B05E1D4A06DFFF757
S315000038047DFBDDE770B50C46B1F90E1096B0154692
S3150000381400291E460CDAA389002113F0800F14BF79
S3150000382440234FF48063002031602B6016B070BDD6
S315000038346A4600F049F80028EDDB019901F470416D
S31500003844A1F50053594259414FF48063EBE78B8944
S31500003854F7B59D0706460C4607D504F147032360D2
S3150000386423610123636103B0F0BD01AB6A46FFF730
S31500003874C9FF009F054630463946FFF7B9FB48B9EC
S31500003884B4F90C309A05EED423F0030343F0020393
S31500003894A381E2E7A389206043F08003A381019B0F
S315000038A4C4E904075BB1B4F90E10304600F01EF803
S315000038B428B1A38923F0030343F00103A381A38959
S315000038C41D43A581CFE7000038B50023064D044605
S315000038D4084611462B60FCF7F5FD431C02D12B6804
S315000038E403B1236038BD00BF1C1C002038B500237B
S315000038F4054D044608462B60FCF7E8FD431C02D13F
S315000039042B6803B1236038BD1C1C002038B5002386
S31500003914054D044608462B60FEF71EFE431C02D1E5
S315000039242B6803B1236038BD1C1C0020C9B20346B2
S31500003934024410B59342184601D1002003E00478EE
S3150000394401338C42F6D110BD525F494F504F525449
S315000039545F50696E436667204661696C6564212120
S315000039640D0000004750494F20496E70757420526F
S31500003974656164204661696C656421210D0000005F
S31500003984756172743020696E6974206661696C654C
S3150000399464000000756172743120696E6974206672
S315000039A461696C65640000004653505F5355434398
S315000039B4455353203D3D2065727200002E2E2F7311
S315000039C472632F666C6173682F666C6173682E630D
S315000039D40000000048656C6C6F20576F726C6421A0
S315000039E40D0000005745494748543A006700000057
S315000039F40D0A485837313120476574205765696781
S31500003A046874203D205B252E3266675D0D0A000032
S31500003A14000000000000000000000000000000009C
S31500003A24000000000000000000000000000000008C
S31500003A34000000000000000000F0F0F000000000AC
S31500003A440000000000017F010000000000000000EB
S31500003A54001C1C1C0000000000008060301C8C60F0
S31500003A64301C0C00000000000000000000000000F4
S31500003A74000000000000000000000000000000E05C
S31500003A840000000000E000000086E69F8686868629
S31500003A94E69F860000011F01010101011F010100CB
S31500003AA4000080C06020F820E0C00000000003078A
S31500003AB40C18FF70E18100000000070F10107F1042
S31500003AC40F0700008060206080000000E0200000F6
S31500003AD40F3020309F70DC371030C0000000100E0D
S31500003AE403000718101807000000C02020E0C000DB
S31500003AF40000000080E01F38E88703C43C0400008F
S31500003B04070F1810100B070D1010080000808C4CBE
S31500003B143800000000000000000000000000000063
S31500003B24000000000000000000000000000000008B
S31500003B3400000000000080E03008040000000000DF
S31500003B4400FEFF0100000000000000000000030F5B
S31500003B541820400000040830E08000000000000047
S31500003B640000000001FFFE000000000000402018D5
S31500003B740F03000000000000000000000000C00069
S31500003B8400000000004266663C18FF183C66664268
S31500003B940000000000000300000000000000000018
S31500003BA40000800000000000001010101010FF102C
S31500003BB410101010000000000000030000000000B8
S31500003BC400000000000000000000000000000000EB
S31500003BD4000000000000000000808C4C380000004B
S31500003BE400000000000000000000000000000000CB
S31500003BF4001010101010101010101000000000001B
S31500003C0400000000000000000000000000000000AA
S31500003C14000000000000000000000000000000009A
S31500003C2400001C1C1C000000000000000000000036
S31500003C3400000000E0380C000000000080701C0347
S31500003C44000000000060380E0100000000000000C3
S31500003C54000080C060202060C080000000FEFF01DC
S31500003C640000000001FFFE000001070E18101018E6
S31500003C740E0701000000808080C0E0000000000004
S31500003C840000000000FFFF0000000000000010100C
S31500003C94101F1F10101000000080402020202060FC
S31500003CA4C080000000030300804020381F07000086
S31500003CB4001C1A1918181818181F00000080C020B4
S31500003CC4202060C080000000000303001010182F9D
S31500003CD4E780000000070F10101010180F070000EF
S31500003CE4000000000000C0E0F000000000C0B08842
S31500003CF4868180FFFF808000000000000010101FF6
S31500003D041F1010000000E0606060606060600000EA
S31500003D1400003F1008080818F0E0000000070B1028
S31500003D241010101C0F030000000080C0402020204B
S31500003D34E0C0000000FCFF211008080818F0E000AD
S31500003D440001070C18101010080F03000000C0E053
S31500003D546060606060E06000000003000000E0183E
S31500003D640700000000000000001F1F000000000004
S31500003D740080C0602020202060C080000087EF2CD7
S31500003D841818303068CF830000070F081010101081
S31500003D94180F07000000C0C020202020C0800000AB
S31500003DA4001F3F604040402010FFFE0000000C1C36
S31500003DB4101010080F0300000000000000000000AF
S31500003DC40000000000000000000E0E0E00000000BF
S31500003DD400000000001C1C1C000000000000000085
S31500003DE4000000000000000000000000000C0C00B1
S31500003DF40000000000000000005838000000000029
S31500003E040000000000000080402010000000102880
S31500003E1444820100000000000000000000000102CE
S31500003E24040810000000000000000000000000006C
S31500003E340084848484848484848484000000000050
S31500003E440000000000000000000010204080000078
S31500003E540000000000000000000001824428100059
S31500003E6400001008040201000000000000C0202029
S31500003E741010101030E0C0000003030000F010081A
S31500003E840C070300000000001C1C1C0000000000BE
S31500003E94000000C0406020202040C00000FCFF015C
S31500003EA4F00E03C1FE03807F0001070E08111110F6
S31500003EB4110904020000000080E0E0000000000098
S31500003EC40000807C4340477FF880000010181F10D4
S31500003ED400000000131F1C1020E0E02020202060BA
S31500003EE4C080000000FFFF10101010182FE780009C
S31500003EF4101F1F1010101010180F0700000080C0AC
S31500003F04402020202060E00000FCFF0100000000AB
S31500003F14000001000001070E181010100804030029
S31500003F2420E0E02020202040C080000000FFFF00A9
S31500003F340000000001FFFE00101F1F1010101808DB
S31500003F440E07010020E0E0202020202020608000D1
S31500003F5400FFFF101010107C00000000101F1F103F
S31500003F64101010101018060020E0E0202020202059
S31500003F746060800000FFFF101010107C000001003C
S31500003F84101F1F100000000000000000000080C089
S31500003F946020202040E0000000FCFF0100004040BB
S31500003FA4C0C140400001070E181010100F0F00008A
S31500003FB420E0E0200000000020E0E02000FFFF10E9
S31500003FC41010101010FFFF00101F1F10000000003B
S31500003FD4101F1F100000202020E0E02020200000F9
S31500003FE40000000000FFFF000000000000001010A9
S31500003FF4101F1F101010000000000000202020E0F9
S31500004004E020202000000000000000FFFF00000068
S315000040140060E0808080C07F3F00000020E0E02058
S31500004024000020A06020200000FFFF30187CE3C0C1
S3150000403400000000101F1F10000001131F1C1810A1
S3150000404420E0E020000000000000000000FFFF0068
S315000040540000000000000000101F1F1010101010B8
S315000040641018060020E0E0E000000000E0E0E02098
S3150000407400FF013FFEC0E01E01FFFF00101F1000FD
S31500004084031F0300101F1F1020E0E0C00000000003
S315000040940020E02000FF0003071C78E08000FF00FA
S315000040A4101F100000000000030F1F00000080C056
S315000040B460202060C080000000FEFF0100000000B8
S315000040C400FFFE000001070E181010180C0701006F
S315000040D420E0E0202020202060C0800000FFFF2098
S315000040E420202020301F0F00101F1F10000000008A
S315000040F400000000000080C060202060C080000036
S3150000410400FEFF010000000000FFFE000001070E94
S315000041141111133C7C67210020E0E02020202020A0
S3150000412460C0800000FFFF101030F0D0080F0700B9
S31500004134101F1F10000000030F1C10100080C06029
S31500004144202020204040E00000070F0C18183030D3
S3150000415460E08100001F0C0810101010180F0700F3
S315000041648060202020E0E020202060800100000004
S3150000417400FFFF000000000100000000101F1F10D8
S315000041840000000020E0E020000000000020E02005
S3150000419400FFFF00000000000000FF0000070F18EA
S315000041A410101010100807002060E0E02000000046
S315000041B420E060200000077FF88000807C03000078
S315000041C400000000071F1C070000000020E0E0209C
S315000041D400E0E0200020E0200007FFF8E01FFFFCDD
S315000041E4E01F00000000031F0300011F030000007E
S315000041F4002060E0A0000020E06020000000000332
S315000042048F7CF8C6010000000010181E1300011769
S315000042141F1810002060E0E02000000020E060206D
S31500004224000001073EF8E018070000000000001037
S31500004234101F1F101000000000806020202020A006
S31500004244E0E0200000000000C0F03E0F0300000084
S3150000425400101C1F17101010101806000000000094
S3150000426400FC0404040404000000000000FF000035
S315000042740000000000000000007F40404040400075
S31500004284000010E000000000000000000000000034
S31500004294031C608000000000000000000000000312
S315000042A40C70800000000404040404FC00000000F8
S315000042B400000000000000FF000000000000404075
S315000042C44040407F0000000000000010080C040C71
S315000042D408100000000000000000000000000000BC
S315000042E400000000000000000000000000000000C4
S315000042F400000000000000000000000000000000B4
S3150000430400000000808080808080808080808080A3
S31500004314000000040408080000000000000000007B
S315000043240000000000000000000000000000000083
S315000043340000000000000000000000000000000073
S31500004344000098D844642424FCF80000000F1F18C9
S31500004354101010081F1F10180020E0F000000000C5
S31500004364000000000000FFFF180804040CF8F00029
S3150000437400001F0F18101010180F03000000000093
S31500004384000000000000000000E0F8180404043CEB
S315000043943800000000030F0C10101010080600006F
S315000043A40000000000000020E0F0000000E0F81C1F
S315000043B404040408FFFF000000030F18101010087F
S315000043C41F0F0800000000000000000000000000AD
S315000043D40000E0F8484444444C7870000000030FA1
S315000043E40C181010100804000000000080C06020A3
S315000043F420E0C00000040404FFFF040404040000D9
S31500004404000010101F1F1010100000000000000014
S315000044140000000000000000000070F88C04048C0A
S31500004424F874040C007076CF8D8D8D89C878700071
S315000044340020E0F000000000000000000000FFFF84
S3150000444408040404FCF8000000101F1F10000010EC
S315000044541F1F100000000000006060000000000044
S315000044640000040404FCFC0000000000000010101E
S31500004474101F1F1010100000000000000000006054
S315000044846000000000000000040404FCFC000000BE
S315000044940000C0C08080C07F3F0000000020E0F024
S315000044A400000000000000000000FFFF80C0F41CB4
S315000044B40404000000101F1F1100031F1C1010002D
S315000044C40000202020E0F0000000000000000000B2
S315000044D400FFFF000000000000001010101F1F1056
S315000044E410100000000000000000000000000000A2
S315000044F404FCFC0804FCFC0804FCFC00101F1F1050
S31500004504001F1F10001F1F10000000000000000005
S31500004514000000000004FCFC08080404FCF8000089
S3150000452400101F1F100000101F1F100000000000C5
S31500004534000000000000000000E0F0180C04040C69
S3150000454418F0E00000030F0C101010100C0F0300FD
S315000045540000000000000000000000000004FCFC55
S31500004564080404040CF8F0000080FFFF8890101083
S315000045741C0F030000000000000000000000000003
S3150000458400E0F81C04040408F8FC000000030F18FB
S3150000459410109088FFFF800000000000000000005B
S315000045A400000000040404FCFC100804040C0C00C5
S315000045B41010101F1F101010000000000000000053
S315000045C4000000000000000000003078CCC48484A1
S315000045D4840C1C0000001E1810101011190F060080
S315000045E40000000000C000000000000000040404F5
S315000045F4FFFF040404000000000000000F1F101059
S31500004604100C000000000000000000000000000084
S315000046140004FCFE00000004FCFE000000000F1F66
S31500004624181010081F0F080000000000000000000A
S315000046340000000000040C3CFCC40000C43C0C0454
S3150000464400000000010F1E0E010000000000000023
S315000046540000000000000000043CFCC400E47CFCF4
S3150000466484807C040000071F070000071F07000062
S315000046740000000000000000000000000004041C0C
S315000046847CE4C0341C0404000010101C1601131F23
S315000046941C181000000000000000000000000000CC
S315000046A400040C3CFCC400C43C0404000000C080AC
S315000046B4C1370E01000000000000000000000000E9
S315000046C40000000000001C0404C4F47C1C04000068
S315000046D40000101C1F17111010180E000000000017
S315000046E4000000F80C04000000000000001028EF91
S315000046F400000000000000000000003F60400000D1
S31500004704000000000000FF000000000000000000A0
S315000047140000FF0000000000000000000000FF0091
S31500004724000000000000040CF80000000000000077
S3150000473400000000EF2810000000000000004060A8
S315000047443F000000000000000018060202040810E2
S3150000475420203008000000000000000000000000D7
S31500004764000000000000000000000000000000003F
S31500004774000000000000000000000000000000F837
S3150000478400000000000000333000000000100C069A
S31500004794100C0600000000000000000040C0784035
S315000047A4C0784000043F04043F040400007088FC01
S315000047B408300000001820FF211E0000F008F00059
S315000047C4E018000000211C031E211E0000F00888CA
S315000047D4700000001E2123241927211010160E0034
S315000047E4000000000000000000000000000000E0DF
S315000047F418040200000000071820400000020418F4
S31500004804E00000000040201807000000404080F04F
S31500004814804040000202010F01020200000000F085
S31500004824000000000101011F010101000000000059
S315000048340000000080B070000000000000000000CE
S315000048440000000000010101010101010000000057
S3150000485400000000003030000000000000000000EE
S3150000486480601804006018060100000000E01008CB
S315000048740810E000000F102020100F00001010F8A0
S31500004884000000000020203F2020000000700808DF
S31500004894088870000030282422213000003008885F
S315000048A4884830000018202020110E000000C02087
S315000048B410F8000000070424243F240000F80888A8
S315000048C4880808000019212020110E0000E0108835
S315000048D488180000000F112020110E000038080867
S315000048E4C83808000000003F000000000070880877
S315000048F408887000001C222121221C0000E01008F8
S315000049040810E0000000312222110F00000000C050
S31500004914C0000000000000303000000000000080ED
S3150000492400000000000080600000000000008040DD
S3150000493420100800000102040810200040404040F6
S315000049444040400004040404040404000008102049
S31500004954408000000020100804020100007048088E
S315000049640808F0000000003036010000C030C828F6
S31500004974E810E0000718272423140B000000C038B1
S31500004984E0000000203C23020227382008F888882B
S3150000499488700000203F202020110E00C030080837
S315000049A408083800071820202010080008F808080E
S315000049B40810E000203F202020100F0008F8888807
S315000049C4E8081000203F20202320180008F88888D3
S315000049D4E8081000203F200003000000C03008084B
S315000049E40838000007182020221E020008F80800D4
S315000049F40008F808203F210101213F20000808F89B
S31500004A04080800000020203F2020000000000808BD
S31500004A14F8080800C08080807F00000008F888C07D
S31500004A2428180800203F20012638200008F808002E
S31500004A3400000000203F20202020300008F8F80065
S31500004A44F8F80800203F003F003F200008F830C077
S31500004A540008F808203F200007183F00E010080867
S31500004A640810E0000F10202020100F0008F8080896
S31500004A740808F000203F210101010000E0100808A9
S31500004A840810E0000F18242438504F0008F88888CE
S31500004A9488887000203F2000030C302000708808AE
S31500004AA4080838000038202121221C00180808F8BC
S31500004AB4080818000000203F2000000008F808003D
S31500004AC40008F808001F202020201F00087888000E
S31500004AD400C83808000007380E010000F80800F87E
S31500004AE40008F800033C0700073C03000818688028
S31500004AF48068180820302C03032C30200838C8009E
S31500004B04C83808000000203F2000000010080808EC
S31500004B14C83808002038262120201800000000FE8E
S31500004B24020202000000007F40404000000C30C03A
S31500004B3400000000000000010638C0000002020266
S31500004B44FE000000004040407F0000000000040218
S31500004B540202040000000000000000000000000043
S31500004B640000000080808080808080800002020433
S31500004B74000000000000000000000000000080802B
S31500004B84808000000019242222223F2008F8008099
S31500004B9480000000003F112020110E00000000805C
S31500004BA480800000000E11202020110000000080EB
S31500004BB48088F800000E112020103F20000080801D
S31500004BC480800000001F222222221300008080F031
S31500004BD4888888180020203F20200000000080805C
S31500004BE480808000006B94949493600008F80080A1
S31500004BF480800000203F210000203F2000809898FC
S31500004C04000000000020203F20200000000000805B
S31500004C149898000000C08080807F000008F800009B
S31500004C2480808000203F24022D302000000808F8F0
S31500004C34000000000020203F2020000080808080AB
S31500004C4480808000203F20003F20003F808000803D
S31500004C5480800000203F210000203F20000080804B
S31500004C6480800000001F202020201F0080800080FC
S31500004C748000000080FFA12020110E0000000080AB
S31500004C8480808000000E112020A0FF80808080009C
S31500004C948080800020203F212000010000008080C9
S31500004CA4808080000033242424241900008080E0BE
S31500004CB4808000000000001F20200000808000008B
S31500004CC400808000001F202020103F20808080006C
S31500004CD40080808000010E3008060100808000807C
S31500004CE4008080800F300C030C300F0000808000A1
S31500004CF4808080000020312E0E31200080808000CC
S31500004D040080808080818E7018060100008080807B
S31500004D14808080000021302C222130000000000019
S31500004D24807C020200000000003F404000000000BA
S31500004D34FF00000000000000FF0000000002027CEB
S31500004D44800000000040403F000000000006010112
S31500004D54020204040000000000000000000000003D
S31500004D6400000000000000000000FC00000000003D
S31500004D7402000000000C020C02000000000000000B
S31500004D8490D0BCD0BC900003000300001824FE445D
S31500004D948C000302070201001824D8B04C800003DB
S31500004DA400010201C038E438E000010202010202F7
S31500004DB4080600000000000000000000000000F8E3
S31500004DC40402000000010204000204F800000004CA
S31500004DD4020100009060F8609000000001000000ED
S31500004DE42020FC202000000001000000000000003C
S31500004DF400000806000000002020202020000000FB
S31500004E040000000000000000000000020000000096
S31500004E140080601C0200040300000000F80404047F
S31500004E24F8000102020201000008FC000000000272
S31500004E34030200001884442418000302020202003C
S31500004E4408042424D80001020202010040B088FCB0
S31500004E5480000000000302003C242424C400010254
S31500004E6402020100F824242CC000010202020100FF
S31500004E740C04E41C0400000003000000D8242424CD
S31500004E84D80001020202010038444444F800000339
S31500004E9402020100000010000000000002000000F1
S31500004EA400002000000000000600000000205088DA
S31500004EB4040200000000010290909090900000000F
S31500004EC400000000000204885020000201000000D7
S31500004ED41804C4241800000002000000F804E49436
S31500004EE4F80001020202020000E09CF080000203C6
S31500004EF40000030204FC2424D80002030202010079
S31500004F04F80404040C0001020202010004FC040477
S31500004F14F80002030202010004FC24740C000203DC
S31500004F240202030004FC24740C00020302000000C5
S31500004F34F0080444CC4000010202010004FC2020D5
S31500004F44FC040203000003020404FC04040002023D
S31500004F5403020200000404FC040406040403000023
S31500004F6404FC24D00C0402030200030204FC040023
S31500004F740000020302020203FC3CC03CFC000300E6
S31500004F840300030004FC30C4FC0402030200030013
S31500004F94F8040404F80001020202010004FC2424BB
S31500004FA41800020302000000F8848404F8000102D9
S31500004FB40207050004FC24649800020302000302AD
S31500004FC4182424448C000302020201000C04FC048D
S31500004FD40C0000020302000004FC0000FC040001B3
S31500004FE402020100047C80E01C04000003000000AF
S31500004FF41CE03CE01C00000300030000049C609CD1
S315000050040400020300030200041CE01C0400000266
S31500005014030200000C84641C040002030202030061
S315000050240000FE020200000007040400000E30C067
S315000050340000000000010200000202FE000000045D
S315000050440407000000040204000000000000000041
S315000050540000000000000808080808080000020014
S3150000506400000000000000000040A0A0C0000001F5
S315000050740202030204FC2020C00000030202010015
S3150000508400C02020600000010202020000C02024AB
S31500005094FC0000010202030200C0A0A0C00000013F
S315000050A4020202000020F824240400020302020083
S315000050B40040A0A0602000070A0A0A0404FC20207D
S315000050C4C0000203020003020020E4000000000204
S315000050D403020000000020E400000808080700009E
S315000050E404FC80E020200203020003020404FC0006
S315000050F40000020203020200E020E020C0000300D8
S315000051040300030020E02020C00002030200030283
S3150000511400C02020C00000010202010020E020207F
S31500005124C000080F0A02010000C02020E0000001B0
S31500005134020A0F0820E040202000020302000000BB
S315000051440060A0A020000002020203000020F82054
S31500005154000000000102020020E00020E00000013F
S315000051640202030220E02080602000000301000008
S315000051746080E0806000000300030000206080601F
S31500005184200002030003020020E0208060200808BB
S31500005194070100000020A0602000000203020200B4
S315000051A4000020DE0200000000070400000000FFEB
S315000051B400000000000F00000002DE2000000004D2
S315000051C407000000020102040402000000000000BF
S315000051D40000000000000000002F0000000007008F
S315000051E4070000147F147F1400242A7F2A12006209
S315000051F464081323003649552250000005030000B5
S3150000520400001C224100000041221C000014083E3C
S3150000521408140008083E0808000000A06000000802
S315000052240808080800006060000000201008040256
S31500005234003E5149453E0000427F40000042615114
S315000052444946002141454B31001814127F100027AE
S3150000525445454539003C4A49493000017109050371
S3150000526400364949493600064949291E00003636A2
S315000052740000000056360000000814224100001405
S3150000528414141414000041221408000201510906E2
S3150000529400324959513E007C1211127C007F494963
S315000052A44936003E41414122007F4141221C007F94
S315000052B449494941007F09090901003E4149497AA2
S315000052C4007F0808087F0000417F4100002040411C
S315000052D43F01007F08142241007F40404040007F88
S315000052E4020C027F007F0408107F003E4141413ECC
S315000052F4007F09090906003E4151215E007F091914
S3150000530429460046494949310001017F0101003F10
S315000053144040403F001F2040201F003F4038403F90
S3150000532400631408146300070870080700615149F4
S31500005334454300007F41410000552A552A55000087
S3150000534441417F0000040201020400404040404005
S31500005354000001020400002054545478007F48449D
S31500005364443800384444442000384444487F0038D4
S315000053745454541800087E0901020018A4A4A47CFD
S31500005384007F080404780000447D400000408084C7
S315000053947D00007F102844000000417F4000007C0F
S315000053A404180478007C080404780038444444381B
S315000053B400FC242424180018242418FC007C080467
S315000053C4040800485454542000043F444020003C40
S315000053D44040207C001C2040201C003C4030403CC7
S315000053E4004428102844001CA0A0A07C0044645457
S315000053F44C44141414141414464C4153485F496E17
S31500005404697400003F065B4F666D7D077F6F000081
S3150000541400000000BCBE00000A0000005E5F000041
S31500005424000B0000190500000000000034540000C1
S315000054340000000000000000000000000000000062
S315000054440000000000000000000000000000000052
S315000054540000FFFFDFDF0000000000000000000086
S315000054640000000000000000000000000000000032
S31500005474000200000C010C020C030C0400000000E6
S3150000548400000000550400000000000094540000D1
S3150000549400010000040000200F00FFFF00000000D0
S315000054A4FFFF0000090200000C050C060C070C089F
S315000054B4000000000000000091040000000000004D
S315000054C4C854000000010000080000200F00FFFF80
S315000054D400000000FFFF000001000000510B000067
S315000054E400000000000000000209020A0F0000008C
S315000054F4FC5400000000000000000104000100004C
